{
  "contractName": "OracleContract",
  "abi": [
    {
      "inputs": [
        {
          "internalType": "address",
          "name": "_registryContract",
          "type": "address"
        }
      ],
      "stateMutability": "nonpayable",
      "type": "constructor"
    },
    {
      "anonymous": false,
      "inputs": [],
      "name": "ValidationBegin",
      "type": "event"
    },
    {
      "anonymous": false,
      "inputs": [
        {
          "indexed": false,
          "internalType": "enum OracleContract.ValidationType",
          "name": "typ",
          "type": "uint8"
        },
        {
          "indexed": true,
          "internalType": "address",
          "name": "from",
          "type": "address"
        },
        {
          "indexed": false,
          "internalType": "bytes32",
          "name": "hash",
          "type": "bytes32"
        }
      ],
      "name": "ValidationRequest",
      "type": "event"
    },
    {
      "anonymous": false,
      "inputs": [
        {
          "indexed": false,
          "internalType": "enum OracleContract.ValidationType",
          "name": "typ",
          "type": "uint8"
        },
        {
          "indexed": true,
          "internalType": "address",
          "name": "aggregator",
          "type": "address"
        },
        {
          "indexed": false,
          "internalType": "bytes32",
          "name": "hash",
          "type": "bytes32"
        },
        {
          "indexed": false,
          "internalType": "bool",
          "name": "valid",
          "type": "bool"
        },
        {
          "indexed": false,
          "internalType": "uint256",
          "name": "fee",
          "type": "uint256"
        }
      ],
      "name": "ValidationResponse",
      "type": "event"
    },
    {
      "inputs": [],
      "name": "BASE_FEE",
      "outputs": [
        {
          "internalType": "uint256",
          "name": "",
          "type": "uint256"
        }
      ],
      "stateMutability": "view",
      "type": "function",
      "constant": true
    },
    {
      "inputs": [],
      "name": "CHANLLENGE_FEE",
      "outputs": [
        {
          "internalType": "uint256",
          "name": "",
          "type": "uint256"
        }
      ],
      "stateMutability": "view",
      "type": "function",
      "constant": true
    },
    {
      "inputs": [],
      "name": "COMPENSATION_FEE",
      "outputs": [
        {
          "internalType": "uint256",
          "name": "",
          "type": "uint256"
        }
      ],
      "stateMutability": "view",
      "type": "function",
      "constant": true
    },
    {
      "inputs": [],
      "name": "TOTAL_FEE",
      "outputs": [
        {
          "internalType": "uint256",
          "name": "",
          "type": "uint256"
        }
      ],
      "stateMutability": "view",
      "type": "function",
      "constant": true
    },
    {
      "inputs": [],
      "name": "VALIDATOR_FEE",
      "outputs": [
        {
          "internalType": "uint256",
          "name": "",
          "type": "uint256"
        }
      ],
      "stateMutability": "view",
      "type": "function",
      "constant": true
    },
    {
      "inputs": [
        {
          "internalType": "bytes32",
          "name": "_hash",
          "type": "bytes32"
        }
      ],
      "name": "validateBlock",
      "outputs": [],
      "stateMutability": "payable",
      "type": "function",
      "payable": true
    },
    {
      "inputs": [
        {
          "internalType": "bytes32",
          "name": "_hash",
          "type": "bytes32"
        }
      ],
      "name": "validateTransaction",
      "outputs": [],
      "stateMutability": "payable",
      "type": "function",
      "payable": true
    },
    {
      "inputs": [
        {
          "internalType": "bool",
          "name": "_result",
          "type": "bool"
        },
        {
          "internalType": "address",
          "name": "aggregateAddress",
          "type": "address"
        },
        {
          "internalType": "uint8",
          "name": "v",
          "type": "uint8"
        },
        {
          "internalType": "bytes32",
          "name": "r",
          "type": "bytes32"
        },
        {
          "internalType": "bytes32",
          "name": "s",
          "type": "bytes32"
        },
        {
          "internalType": "bytes32",
          "name": "_hash",
          "type": "bytes32"
        }
      ],
      "name": "submitBlockValidationResult",
      "outputs": [],
      "stateMutability": "nonpayable",
      "type": "function"
    },
    {
      "inputs": [
        {
          "internalType": "bool",
          "name": "_result",
          "type": "bool"
        },
        {
          "internalType": "address",
          "name": "aggregateAddress",
          "type": "address"
        },
        {
          "internalType": "uint8",
          "name": "v",
          "type": "uint8"
        },
        {
          "internalType": "bytes32",
          "name": "r",
          "type": "bytes32"
        },
        {
          "internalType": "bytes32",
          "name": "s",
          "type": "bytes32"
        },
        {
          "internalType": "bytes32",
          "name": "_hash",
          "type": "bytes32"
        }
      ],
      "name": "submitTransactionValidationResult",
      "outputs": [],
      "stateMutability": "nonpayable",
      "type": "function"
    },
    {
      "inputs": [],
      "name": "chanllenge",
      "outputs": [],
      "stateMutability": "payable",
      "type": "function",
      "payable": true
    },
    {
      "inputs": [],
      "name": "fine",
      "outputs": [],
      "stateMutability": "payable",
      "type": "function",
      "payable": true
    },
    {
      "inputs": [],
      "name": "EnrollOracleNode",
      "outputs": [],
      "stateMutability": "payable",
      "type": "function",
      "payable": true
    },
    {
      "inputs": [
        {
          "internalType": "address",
          "name": "_addr",
          "type": "address"
        }
      ],
      "name": "oracleNodeIsEnroll",
      "outputs": [
        {
          "internalType": "bool",
          "name": "",
          "type": "bool"
        }
      ],
      "stateMutability": "view",
      "type": "function",
      "constant": true
    },
    {
      "inputs": [
        {
          "internalType": "uint256",
          "name": "_index",
          "type": "uint256"
        }
      ],
      "name": "findEnrollNodeByIndex",
      "outputs": [
        {
          "components": [
            {
              "internalType": "address",
              "name": "addr",
              "type": "address"
            },
            {
              "internalType": "uint256",
              "name": "index",
              "type": "uint256"
            }
          ],
          "internalType": "struct OracleContract.EnrollNode",
          "name": "",
          "type": "tuple"
        }
      ],
      "stateMutability": "view",
      "type": "function",
      "constant": true
    },
    {
      "inputs": [],
      "name": "countEnrollNodes",
      "outputs": [
        {
          "internalType": "uint256",
          "name": "",
          "type": "uint256"
        }
      ],
      "stateMutability": "view",
      "type": "function",
      "constant": true
    },
    {
      "inputs": [
        {
          "internalType": "bytes32",
          "name": "_hash",
          "type": "bytes32"
        }
      ],
      "name": "findBlockValidationResult",
      "outputs": [
        {
          "internalType": "bool",
          "name": "",
          "type": "bool"
        }
      ],
      "stateMutability": "view",
      "type": "function",
      "constant": true
    },
    {
      "inputs": [
        {
          "internalType": "bytes32",
          "name": "_hash",
          "type": "bytes32"
        }
      ],
      "name": "findTransactionValidationResult",
      "outputs": [
        {
          "internalType": "bool",
          "name": "",
          "type": "bool"
        }
      ],
      "stateMutability": "view",
      "type": "function",
      "constant": true
    }
  ],
  "bytecode": "0x60806040523480156200001157600080fd5b50604051620021dc380380620021dc8339818101604052810190620000379190620000e9565b80600660006101000a81548173ffffffffffffffffffffffffffffffffffffffff021916908373ffffffffffffffffffffffffffffffffffffffff160217905550506200011b565b600080fd5b600073ffffffffffffffffffffffffffffffffffffffff82169050919050565b6000620000b18262000084565b9050919050565b620000c381620000a4565b8114620000cf57600080fd5b50565b600081519050620000e381620000b8565b92915050565b6000602082840312156200010257620001016200007f565b5b60006200011284828501620000d2565b91505092915050565b6120b1806200012b6000396000f3fe6080604052600436106100fe5760003560e01c80637da83e2b11610095578063c6d6e3d511610064578063c6d6e3d5146102ea578063cf21c29314610313578063dd5e22df1461031d578063e92c04d114610339578063fc769ee914610376576100fe565b80637da83e2b1461022c5780637e985fd014610257578063a2ff2ad714610294578063ab3be840146102bf576100fe565b80633d27ef97116100d15780633d27ef971461017d57806343434590146101ba578063460e99f4146101f757806363db7eae14610201576100fe565b806312f1e8f4146101035780632b00aaef1461010d578063344829c8146101365780633d18651e14610152575b600080fd5b61010b6103a1565b005b34801561011957600080fd5b50610134600480360381019061012f91906113aa565b6107a8565b005b610150600480360381019061014b9190611437565b6107c0565b005b34801561015e57600080fd5b5061016761087d565b604051610174919061147d565b60405180910390f35b34801561018957600080fd5b506101a4600480360381019061019f9190611437565b610888565b6040516101b191906114a7565b60405180910390f35b3480156101c657600080fd5b506101e160048036038101906101dc9190611437565b6108b2565b6040516101ee91906114a7565b60405180910390f35b6101ff6108dc565b005b34801561020d57600080fd5b506102166109e4565b604051610223919061147d565b60405180910390f35b34801561023857600080fd5b50610241610a0c565b60405161024e919061147d565b60405180910390f35b34801561026357600080fd5b5061027e600480360381019061027991906114ee565b610a16565b60405161028b9190611568565b60405180910390f35b3480156102a057600080fd5b506102a9610b61565b6040516102b6919061147d565b60405180910390f35b3480156102cb57600080fd5b506102d4610b6b565b6040516102e1919061147d565b60405180910390f35b3480156102f657600080fd5b50610311600480360381019061030c91906113aa565b610b76565b005b61031b610b8e565b005b61033760048036038101906103329190611437565b610cf1565b005b34801561034557600080fd5b50610360600480360381019061035b9190611583565b610dae565b60405161036d91906114a7565b60405180910390f35b34801561038257600080fd5b5061038b610e7c565b604051610398919061147d565b60405180910390f35b6002600660009054906101000a900473ffffffffffffffffffffffffffffffffffffffff1673ffffffffffffffffffffffffffffffffffffffff1663836f187a6040518163ffffffff1660e01b8152600401602060405180830381865afa158015610410573d6000803e3d6000fd5b505050506040513d601f19601f8201168201806040525081019061043491906115c5565b61043e9190611650565b6005805490501115610485576040517f08c379a000000000000000000000000000000000000000000000000000000000815260040161047c906116de565b60405180910390fd5b600660009054906101000a900473ffffffffffffffffffffffffffffffffffffffff1673ffffffffffffffffffffffffffffffffffffffff1663140f3daa336040518263ffffffff1660e01b81526004016104e0919061170d565b602060405180830381865afa1580156104fd573d6000803e3d6000fd5b505050506040513d601f19601f82011682018060405250810190610521919061173d565b610560576040517f08c379a0000000000000000000000000000000000000000000000000000000008152600401610557906117b6565b60405180910390fd5b61056933610dae565b156105a9576040517f08c379a00000000000000000000000000000000000000000000000000000000081526004016105a090611822565b60405180910390fd5b6000600460003373ffffffffffffffffffffffffffffffffffffffff1673ffffffffffffffffffffffffffffffffffffffff1681526020019081526020016000209050338160000160006101000a81548173ffffffffffffffffffffffffffffffffffffffff021916908373ffffffffffffffffffffffffffffffffffffffff160217905550600580549050816001018190555060058160000160009054906101000a900473ffffffffffffffffffffffffffffffffffffffff169080600181540180825580915050600190039060005260206000200160009091909190916101000a81548173ffffffffffffffffffffffffffffffffffffffff021916908373ffffffffffffffffffffffffffffffffffffffff16021790555060016002600660009054906101000a900473ffffffffffffffffffffffffffffffffffffffff1673ffffffffffffffffffffffffffffffffffffffff1663836f187a6040518163ffffffff1660e01b8152600401602060405180830381865afa158015610735573d6000803e3d6000fd5b505050506040513d601f19601f8201168201806040525081019061075991906115c5565b6107639190611650565b61076d9190611842565b600580549050036107a5577f8e00f41384bb0046e201ec383e79140e9a0484a5db044984cbd072e4fbe6d7e260405160405180910390a15b50565b6107b86001878787878787610e89565b505050505050565b6064655af3107a40006107d39190611876565b66038d7ea4c680006107e59190611842565b80341015610828576040517f08c379a000000000000000000000000000000000000000000000000000000000815260040161081f90611904565b60405180910390fd5b3373ffffffffffffffffffffffffffffffffffffffff167f3706933cbfd265e74e347f4c40263753cecc292080a1bfd0e9fd6ce994c083966002846040516108719291906119aa565b60405180910390a25050565b66038d7ea4c6800081565b60006002600083815260200190815260200160002060009054906101000a900460ff169050919050565b60006003600083815260200190815260200160002060009054906101000a900460ff169050919050565b6000600660009054906101000a900473ffffffffffffffffffffffffffffffffffffffff1673ffffffffffffffffffffffffffffffffffffffff16633ad59dbc6040518163ffffffff1660e01b8152600401600060405180830381865afa15801561094b573d6000803e3d6000fd5b505050506040513d6000823e3d601f19601f820116820180604052508101906109749190611cb8565b9050655af3107a40008160600151116109c2576040517f08c379a00000000000000000000000000000000000000000000000000000000081526004016109b990611d4d565b60405180910390fd5b655af3107a400081606001516109d89190611d6d565b81606001818152505050565b6064655af3107a40006109f79190611876565b66038d7ea4c68000610a099190611842565b81565b655af3107a400081565b610a1e611223565b60008210158015610a33575060058054905082105b610a72576040517f08c379a0000000000000000000000000000000000000000000000000000000008152600401610a6990611ded565b60405180910390fd5b6004600060058481548110610a8a57610a89611e0d565b5b9060005260206000200160009054906101000a900473ffffffffffffffffffffffffffffffffffffffff1673ffffffffffffffffffffffffffffffffffffffff1673ffffffffffffffffffffffffffffffffffffffff1681526020019081526020016000206040518060400160405290816000820160009054906101000a900473ffffffffffffffffffffffffffffffffffffffff1673ffffffffffffffffffffffffffffffffffffffff1673ffffffffffffffffffffffffffffffffffffffff1681526020016001820154815250509050919050565b655af3107a400081565b66038d7ea4c6800081565b610b866002878787878787610e89565b505050505050565b6000600660009054906101000a900473ffffffffffffffffffffffffffffffffffffffff1673ffffffffffffffffffffffffffffffffffffffff1663655a102f336040518263ffffffff1660e01b8152600401610beb919061170d565b600060405180830381865afa158015610c08573d6000803e3d6000fd5b505050506040513d6000823e3d601f19601f82011682018060405250810190610c319190611cb8565b905066038d7ea4c68000816060015111610c80576040517f08c379a0000000000000000000000000000000000000000000000000000000008152600401610c7790611d4d565b60405180910390fd5b66038d7ea4c680008160600151610c979190611d6d565b8160600181815250503373ffffffffffffffffffffffffffffffffffffffff166108fc66038d7ea4c680009081150290604051600060405180830381858888f19350505050158015610ced573d6000803e3d6000fd5b5050565b6064655af3107a4000610d049190611876565b66038d7ea4c68000610d169190611842565b80341015610d59576040517f08c379a0000000000000000000000000000000000000000000000000000000008152600401610d5090611904565b60405180910390fd5b3373ffffffffffffffffffffffffffffffffffffffff167f3706933cbfd265e74e347f4c40263753cecc292080a1bfd0e9fd6ce994c08396600184604051610da29291906119aa565b60405180910390a25050565b60008060058054905003610dc55760009050610e77565b8173ffffffffffffffffffffffffffffffffffffffff166005600460008573ffffffffffffffffffffffffffffffffffffffff1673ffffffffffffffffffffffffffffffffffffffff1681526020019081526020016000206001015481548110610e3257610e31611e0d565b5b9060005260206000200160009054906101000a900473ffffffffffffffffffffffffffffffffffffffff1673ffffffffffffffffffffffffffffffffffffffff161490505b919050565b6000600580549050905090565b60006002811115610e9d57610e9c611924565b5b876002811115610eb057610eaf611924565b5b03610ef0576040517f08c379a0000000000000000000000000000000000000000000000000000000008152600401610ee790611e88565b60405180910390fd5b600060018286868660405160008152602001604052604051610f159493929190611eb7565b6020604051602081039080840390855afa158015610f37573d6000803e3d6000fd5b505050602060405103519050600073ffffffffffffffffffffffffffffffffffffffff168173ffffffffffffffffffffffffffffffffffffffff1603610fb2576040517f08c379a0000000000000000000000000000000000000000000000000000000008152600401610fa990611f48565b60405180910390fd5b8573ffffffffffffffffffffffffffffffffffffffff168173ffffffffffffffffffffffffffffffffffffffff1614611020576040517f08c379a000000000000000000000000000000000000000000000000000000000815260040161101790611fda565b60405180910390fd5b6005600061102e9190611253565b60005b6005805490508163ffffffff1610156110e85760058163ffffffff168154811061105e5761105d611e0d565b5b9060005260206000200160009054906101000a900473ffffffffffffffffffffffffffffffffffffffff1673ffffffffffffffffffffffffffffffffffffffff166108fc655af3107a40009081150290604051600060405180830381858888f193505050501580156110d4573d6000803e3d6000fd5b5080806110e09061200a565b915050611031565b50600160028111156110fd576110fc611924565b5b8860028111156111105761110f611924565b5b0361114557866002600084815260200190815260200160002060006101000a81548160ff02191690831515021790555061119d565b60028081111561115857611157611924565b5b88600281111561116b5761116a611924565b5b0361119c57866003600084815260200190815260200160002060006101000a81548160ff0219169083151502179055505b5b3373ffffffffffffffffffffffffffffffffffffffff167f9739d27192db56a131c86c297677afccac89aa4f39cbc5bcd62a8d10ce55967589848a600580549050655af3107a40006111ef9190611876565b66038d7ea4c680006112019190611842565b6040516112119493929190612036565b60405180910390a25050505050505050565b6040518060400160405280600073ffffffffffffffffffffffffffffffffffffffff168152602001600081525090565b50805460008255906000526020600020908101906112719190611274565b50565b5b8082111561128d576000816000905550600101611275565b5090565b6000604051905090565b600080fd5b600080fd5b60008115159050919050565b6112ba816112a5565b81146112c557600080fd5b50565b6000813590506112d7816112b1565b92915050565b600073ffffffffffffffffffffffffffffffffffffffff82169050919050565b6000611308826112dd565b9050919050565b611318816112fd565b811461132357600080fd5b50565b6000813590506113358161130f565b92915050565b600060ff82169050919050565b6113518161133b565b811461135c57600080fd5b50565b60008135905061136e81611348565b92915050565b6000819050919050565b61138781611374565b811461139257600080fd5b50565b6000813590506113a48161137e565b92915050565b60008060008060008060c087890312156113c7576113c661129b565b5b60006113d589828a016112c8565b96505060206113e689828a01611326565b95505060406113f789828a0161135f565b945050606061140889828a01611395565b935050608061141989828a01611395565b92505060a061142a89828a01611395565b9150509295509295509295565b60006020828403121561144d5761144c61129b565b5b600061145b84828501611395565b91505092915050565b6000819050919050565b61147781611464565b82525050565b6000602082019050611492600083018461146e565b92915050565b6114a1816112a5565b82525050565b60006020820190506114bc6000830184611498565b92915050565b6114cb81611464565b81146114d657600080fd5b50565b6000813590506114e8816114c2565b92915050565b6000602082840312156115045761150361129b565b5b6000611512848285016114d9565b91505092915050565b611524816112fd565b82525050565b61153381611464565b82525050565b60408201600082015161154f600085018261151b565b506020820151611562602085018261152a565b50505050565b600060408201905061157d6000830184611539565b92915050565b6000602082840312156115995761159861129b565b5b60006115a784828501611326565b91505092915050565b6000815190506115bf816114c2565b92915050565b6000602082840312156115db576115da61129b565b5b60006115e9848285016115b0565b91505092915050565b7f4e487b7100000000000000000000000000000000000000000000000000000000600052601260045260246000fd5b7f4e487b7100000000000000000000000000000000000000000000000000000000600052601160045260246000fd5b600061165b82611464565b915061166683611464565b925082611676576116756115f2565b5b828204905092915050565b600082825260208201905092915050565b7f456e726f6c6c6d656e7420636c6f736564210000000000000000000000000000600082015250565b60006116c8601283611681565b91506116d382611692565b602082019050919050565b600060208201905081810360008301526116f7816116bb565b9050919050565b611707816112fd565b82525050565b600060208201905061172260008301846116fe565b92915050565b600081519050611737816112b1565b92915050565b6000602082840312156117535761175261129b565b5b600061176184828501611728565b91505092915050565b7f546865204f7261636c6520646f65736e27742072656769737465726564000000600082015250565b60006117a0601d83611681565b91506117ab8261176a565b602082019050919050565b600060208201905081810360008301526117cf81611793565b9050919050565b7f616c726561647920656e726f6c6c656400000000000000000000000000000000600082015250565b600061180c601083611681565b9150611817826117d6565b602082019050919050565b6000602082019050818103600083015261183b816117ff565b9050919050565b600061184d82611464565b915061185883611464565b92508282019050808211156118705761186f611621565b5b92915050565b600061188182611464565b915061188c83611464565b925082820261189a81611464565b915082820484148315176118b1576118b0611621565b5b5092915050565b7f746f6f206665772066656520616d6f756e740000000000000000000000000000600082015250565b60006118ee601283611681565b91506118f9826118b8565b602082019050919050565b6000602082019050818103600083015261191d816118e1565b9050919050565b7f4e487b7100000000000000000000000000000000000000000000000000000000600052602160045260246000fd5b6003811061196457611963611924565b5b50565b600081905061197582611953565b919050565b600061198582611967565b9050919050565b6119958161197a565b82525050565b6119a481611374565b82525050565b60006040820190506119bf600083018561198c565b6119cc602083018461199b565b9392505050565b600080fd5b6000601f19601f8301169050919050565b7f4e487b7100000000000000000000000000000000000000000000000000000000600052604160045260246000fd5b611a21826119d8565b810181811067ffffffffffffffff82111715611a4057611a3f6119e9565b5b80604052505050565b6000611a53611291565b9050611a5f8282611a18565b919050565b600080fd5b600081519050611a788161130f565b92915050565b600080fd5b600080fd5b600067ffffffffffffffff821115611aa357611aa26119e9565b5b611aac826119d8565b9050602081019050919050565b60005b83811015611ad7578082015181840152602081019050611abc565b60008484015250505050565b6000611af6611af184611a88565b611a49565b905082815260208101848484011115611b1257611b11611a83565b5b611b1d848285611ab9565b509392505050565b600082601f830112611b3a57611b39611a7e565b5b8151611b4a848260208601611ae3565b91505092915050565b600067ffffffffffffffff821115611b6e57611b6d6119e9565b5b611b77826119d8565b9050602081019050919050565b6000611b97611b9284611b53565b611a49565b905082815260208101848484011115611bb357611bb2611a83565b5b611bbe848285611ab9565b509392505050565b600082601f830112611bdb57611bda611a7e565b5b8151611beb848260208601611b84565b91505092915050565b600060a08284031215611c0a57611c096119d3565b5b611c1460a0611a49565b90506000611c2484828501611a69565b600083015250602082015167ffffffffffffffff811115611c4857611c47611a64565b5b611c5484828501611b25565b602083015250604082015167ffffffffffffffff811115611c7857611c77611a64565b5b611c8484828501611bc6565b6040830152506060611c98848285016115b0565b6060830152506080611cac848285016115b0565b60808301525092915050565b600060208284031215611cce57611ccd61129b565b5b600082015167ffffffffffffffff811115611cec57611ceb6112a0565b5b611cf884828501611bf4565b91505092915050565b7f7374616b6520697320746f6f206c6f7721000000000000000000000000000000600082015250565b6000611d37601183611681565b9150611d4282611d01565b602082019050919050565b60006020820190508181036000830152611d6681611d2a565b9050919050565b6000611d7882611464565b9150611d8383611464565b9250828203905081811115611d9b57611d9a611621565b5b92915050565b7f6e6f7420666f756e640000000000000000000000000000000000000000000000600082015250565b6000611dd7600983611681565b9150611de282611da1565b602082019050919050565b60006020820190508181036000830152611e0681611dca565b9050919050565b7f4e487b7100000000000000000000000000000000000000000000000000000000600052603260045260246000fd5b7f756e6b6e6f776e2076616c69646174696f6e2074797065000000000000000000600082015250565b6000611e72601783611681565b9150611e7d82611e3c565b602082019050919050565b60006020820190508181036000830152611ea181611e65565b9050919050565b611eb18161133b565b82525050565b6000608082019050611ecc600083018761199b565b611ed96020830186611ea8565b611ee6604083018561199b565b611ef3606083018461199b565b95945050505050565b7f45434453413a20696e76616c6964207369676e61747572650000000000000000600082015250565b6000611f32601883611681565b9150611f3d82611efc565b602082019050919050565b60006020820190508181036000830152611f6181611f25565b9050919050565b7f7369676e61747572653a206164647265737320646f6573206e6f74206d61746360008201527f6800000000000000000000000000000000000000000000000000000000000000602082015250565b6000611fc4602183611681565b9150611fcf82611f68565b604082019050919050565b60006020820190508181036000830152611ff381611fb7565b9050919050565b600063ffffffff82169050919050565b600061201582611ffa565b915063ffffffff820361202b5761202a611621565b5b600182019050919050565b600060808201905061204b600083018761198c565b612058602083018661199b565b6120656040830185611498565b612072606083018461146e565b9594505050505056fea2646970667358221220a224eafeb00305835d0d034d8696847b2e16d5e7c63978977142e7bf562b707264736f6c63430008130033",
  "immutableReferences": {},
  "source": "// SPDX-License-Identifier: MIT\npragma solidity  ^0.8.0;\n\nimport \"./RegistryContract.sol\";\n\ncontract OracleContract {\n    struct EnrollNode {\n        address addr;\n\n        uint256 index;\n    }\n\n    uint256 public constant BASE_FEE = 0.001 ether;\n\n    // \n    uint256 public constant VALIDATOR_FEE = 0.0001 ether;\n\n    //\n    uint256 public constant CHANLLENGE_FEE = 0.0001 ether;\n\n    // \n    uint256 public constant COMPENSATION_FEE = 0.001 ether;\n\n    uint256 public constant TOTAL_FEE = BASE_FEE + VALIDATOR_FEE * 100;\n\n    uint256 private constant G2_NEG_X_RE =\n        0x198E9393920D483A7260BFB731FB5D25F1AA493335A9E71297E485B7AEF312C2;\n    uint256 private constant G2_NEG_X_IM =\n        0x1800DEEF121F1E76426A00665E5C4479674322D4F75EDADD46DEBD5CD992F6ED;\n    uint256 private constant G2_NEG_Y_RE =\n        0x275dc4a288d1afb3cbb1ac09187524c7db36395df7be3b99e673b13a075a65ec;\n    uint256 private constant G2_NEG_Y_IM =\n        0x1d9befcd05a5323e6da4d435f3b617cdb3af83285c2df711ef39c01571827f9d;\n\n    uint256 private requestCounter;\n    uint256 private requestsSinceLastPayout;\n\n    mapping(bytes32 => bool) private blockValidationResults;\n    mapping(bytes32 => bool) private txValidationResults;\n    mapping(address => EnrollNode) private enrollNodes;\n    address[] private enrollNodeIndices;\n\n\n    // \n    // event enrollOracleNode(address indexed sender);\n    enum ValidationType { UNKNOWN, BLOCK, TRANSACTION }\n\n    event ValidationRequest(ValidationType typ, address indexed from, bytes32 hash);\n    // indexed\n\n    event ValidationBegin();\n\n    event ValidationResponse(\n        ValidationType typ,\n        address indexed aggregator,   \n        bytes32 hash,\n        bool valid,\n        uint256 fee\n    );\n\n    RegistryContract private registryContract;\n\n    constructor(address _registryContract) {\n        registryContract = RegistryContract(_registryContract);\n    }\n\n    modifier minFee(uint _min) {\n        require(msg.value >= _min, \"too few fee amount\");\n        _;\n    }\n\n    function validateBlock(bytes32 _hash) external payable minFee(TOTAL_FEE) {\n        emit ValidationRequest(ValidationType.BLOCK, msg.sender, _hash);\n    }\n\n    function validateTransaction(bytes32 _hash) external payable minFee(TOTAL_FEE) {\n        emit ValidationRequest(ValidationType.TRANSACTION, msg.sender, _hash);\n    }\n\n    function submitBlockValidationResult(bool _result, address aggregateAddress, uint8 v, bytes32 r, bytes32 s, bytes32 _hash ) external {\n        submitValidationResult(ValidationType.BLOCK, _result, aggregateAddress, v, r, s, _hash );\n    }\n\n    function submitTransactionValidationResult(bool _result, address aggregateAddress, uint8 v, bytes32 r, bytes32 s, bytes32 _hash ) external {\n        submitValidationResult(ValidationType.TRANSACTION, _result, aggregateAddress, v, r, s, _hash );\n    }\n\n    function submitValidationResult(\n        ValidationType _typ,\n        bool _result,  // \n        address aggregateAddress,\n        uint8 v,\n        bytes32 r,\n        bytes32 s,\n        bytes32 _hash\n    ) private {\n\n        require(_typ != ValidationType.UNKNOWN, \"unknown validation type\");\n\n        // RegistryContract.OracleNode memory aggregator = registryContract.getAggregator();\n\n        // require(aggregator.addr == msg.sender, \"not the aggregator\");  // \n\n        /***************\n         *ECDSA*\n         ***************/\n\n        address signer = ecrecover(_hash, v, r, s);\n        require(signer != address(0), \"ECDSA: invalid signature\");\n        require(signer == aggregateAddress, \"signature: address does not match\");\n\n        delete enrollNodeIndices;\n        \n        //  \n        // payable(msg.sender).transfer(BASE_FEE);     //\n\n        // \n        for(uint32 i = 0 ; i < enrollNodeIndices.length ; i++){\n            payable(enrollNodeIndices[i]).transfer(VALIDATOR_FEE);\n        }\n        \n        if (_typ == ValidationType.BLOCK) {\n            blockValidationResults[_hash] = _result;\n        } else if (_typ == ValidationType.TRANSACTION) {\n            txValidationResults[_hash] = _result;\n        }\n\n        emit ValidationResponse(_typ, msg.sender, _hash, _result, BASE_FEE + VALIDATOR_FEE * enrollNodeIndices.length );  //  +  * \n    }\n\n    // ,()\n    function chanllenge() public payable {\n        RegistryContract.OracleNode memory aggregator =\n            registryContract.getAggregator();\n        require(aggregator.stake > CHANLLENGE_FEE , \"stake is too low!\");\n        aggregator.stake = aggregator.stake - CHANLLENGE_FEE;\n    }\n    // \n    function fine() public payable {\n        // ()\n        RegistryContract.OracleNode memory oracle =\n            registryContract.findOracleNodeByAddress(msg.sender);\n        require(oracle.stake > COMPENSATION_FEE , \"stake is too low!\");\n\n        oracle.stake = oracle.stake - COMPENSATION_FEE;\n        \n        // ,\n        payable(msg.sender).transfer(COMPENSATION_FEE);\n    }\n\n    // \n    function EnrollOracleNode() external payable{\n        require(enrollNodeIndices.length <= registryContract.countOracleNodes()/2, \"Enrollment closed!\");\n        require(registryContract.oracleNodeIsRegistered(msg.sender) , \"The Oracle doesn't registered\");\n        require(!oracleNodeIsEnroll(msg.sender), \"already enrolled\");\n        EnrollNode storage iopNode = enrollNodes[msg.sender];\n        iopNode.addr = msg.sender;\n        iopNode.index = enrollNodeIndices.length;\n        enrollNodeIndices.push(iopNode.addr);\n        if(enrollNodeIndices.length == registryContract.countOracleNodes()/2 + 1){\n            emit ValidationBegin();\n        }\n    }\n    // \n    function oracleNodeIsEnroll(address _addr) public view returns (bool){\n        if (enrollNodeIndices.length == 0) return false;\n        return (enrollNodeIndices[enrollNodes[_addr].index] == _addr);\n    }\n    // \n    function findEnrollNodeByIndex(uint256 _index)\n        public\n        view\n        returns (EnrollNode memory)\n    {\n        require(_index >= 0 && _index < enrollNodeIndices.length, \"not found\");\n        return enrollNodes[enrollNodeIndices[_index]];\n    }\n    // \n    function countEnrollNodes() external view returns (uint256){\n        return enrollNodeIndices.length;\n    }\n\n    function findBlockValidationResult(bytes32 _hash) public view returns (bool) {\n        return blockValidationResults[_hash];\n    }\n\n    function findTransactionValidationResult(bytes32 _hash) public view returns (bool) {\n        return txValidationResults[_hash];\n    }\n}\n",
  "sourcePath": "/home/indistinguishable/GameBasedOracle/ioporaclecontracts/contracts/OracleContract-test.sol",
  "compiler": {
    "name": "solc",
    "version": "0.8.19+commit.7dd6d404.Emscripten.clang"
  },
  "schemaVersion": "3.4.11",
  "updatedAt": "2023-03-18T11:45:13.898Z",
  "networkType": "ethereum",
  "devdoc": {
    "kind": "dev",
    "methods": {},
    "version": 1
  },
  "userdoc": {
    "kind": "user",
    "methods": {},
    "version": 1
  }
}