{
  "contractName": "OracleContract",
  "abi": [
    {
      "inputs": [
        {
          "internalType": "address",
          "name": "_registryContract",
          "type": "address"
        }
      ],
      "stateMutability": "nonpayable",
      "type": "constructor"
    },
    {
      "anonymous": false,
      "inputs": [
        {
          "indexed": false,
          "internalType": "enum OracleContract.ValidationType",
          "name": "typ",
          "type": "uint8"
        },
        {
          "indexed": true,
          "internalType": "address",
          "name": "from",
          "type": "address"
        },
        {
          "indexed": false,
          "internalType": "bytes32",
          "name": "hash",
          "type": "bytes32"
        }
      ],
      "name": "ValidationRequest",
      "type": "event"
    },
    {
      "anonymous": false,
      "inputs": [
        {
          "indexed": false,
          "internalType": "enum OracleContract.ValidationType",
          "name": "typ",
          "type": "uint8"
        },
        {
          "indexed": true,
          "internalType": "address",
          "name": "aggregator",
          "type": "address"
        },
        {
          "indexed": false,
          "internalType": "bytes32",
          "name": "hash",
          "type": "bytes32"
        },
        {
          "indexed": false,
          "internalType": "bool",
          "name": "valid",
          "type": "bool"
        },
        {
          "indexed": false,
          "internalType": "uint256",
          "name": "fee",
          "type": "uint256"
        }
      ],
      "name": "ValidationResponse",
      "type": "event"
    },
    {
      "inputs": [],
      "name": "BASE_FEE",
      "outputs": [
        {
          "internalType": "uint256",
          "name": "",
          "type": "uint256"
        }
      ],
      "stateMutability": "view",
      "type": "function",
      "constant": true
    },
    {
      "inputs": [],
      "name": "CHANLLENGE_FEE",
      "outputs": [
        {
          "internalType": "uint256",
          "name": "",
          "type": "uint256"
        }
      ],
      "stateMutability": "view",
      "type": "function",
      "constant": true
    },
    {
      "inputs": [],
      "name": "COMPENSATION_FEE",
      "outputs": [
        {
          "internalType": "uint256",
          "name": "",
          "type": "uint256"
        }
      ],
      "stateMutability": "view",
      "type": "function",
      "constant": true
    },
    {
      "inputs": [],
      "name": "TOTAL_FEE",
      "outputs": [
        {
          "internalType": "uint256",
          "name": "",
          "type": "uint256"
        }
      ],
      "stateMutability": "view",
      "type": "function",
      "constant": true
    },
    {
      "inputs": [],
      "name": "VALIDATOR_FEE",
      "outputs": [
        {
          "internalType": "uint256",
          "name": "",
          "type": "uint256"
        }
      ],
      "stateMutability": "view",
      "type": "function",
      "constant": true
    },
    {
      "inputs": [
        {
          "internalType": "bytes32",
          "name": "_hash",
          "type": "bytes32"
        }
      ],
      "name": "validateBlock",
      "outputs": [],
      "stateMutability": "payable",
      "type": "function",
      "payable": true
    },
    {
      "inputs": [
        {
          "internalType": "bytes32",
          "name": "_hash",
          "type": "bytes32"
        }
      ],
      "name": "validateTransaction",
      "outputs": [],
      "stateMutability": "payable",
      "type": "function",
      "payable": true
    },
    {
      "inputs": [
        {
          "internalType": "bool",
          "name": "_result",
          "type": "bool"
        },
        {
          "internalType": "address",
          "name": "aggregateAddress",
          "type": "address"
        },
        {
          "internalType": "uint8",
          "name": "v",
          "type": "uint8"
        },
        {
          "internalType": "bytes32",
          "name": "r",
          "type": "bytes32"
        },
        {
          "internalType": "bytes32",
          "name": "s",
          "type": "bytes32"
        },
        {
          "internalType": "bytes32",
          "name": "_hash",
          "type": "bytes32"
        }
      ],
      "name": "submitBlockValidationResult",
      "outputs": [],
      "stateMutability": "nonpayable",
      "type": "function"
    },
    {
      "inputs": [
        {
          "internalType": "bool",
          "name": "_result",
          "type": "bool"
        },
        {
          "internalType": "address",
          "name": "aggregateAddress",
          "type": "address"
        },
        {
          "internalType": "uint8",
          "name": "v",
          "type": "uint8"
        },
        {
          "internalType": "bytes32",
          "name": "r",
          "type": "bytes32"
        },
        {
          "internalType": "bytes32",
          "name": "s",
          "type": "bytes32"
        },
        {
          "internalType": "bytes32",
          "name": "_hash",
          "type": "bytes32"
        }
      ],
      "name": "submitTransactionValidationResult",
      "outputs": [],
      "stateMutability": "nonpayable",
      "type": "function"
    },
    {
      "inputs": [],
      "name": "chanllenge",
      "outputs": [],
      "stateMutability": "payable",
      "type": "function",
      "payable": true
    },
    {
      "inputs": [],
      "name": "fine",
      "outputs": [],
      "stateMutability": "payable",
      "type": "function",
      "payable": true
    },
    {
      "inputs": [],
      "name": "EnrollOracleNode",
      "outputs": [],
      "stateMutability": "payable",
      "type": "function",
      "payable": true
    },
    {
      "inputs": [
        {
          "internalType": "address",
          "name": "_addr",
          "type": "address"
        }
      ],
      "name": "oracleNodeIsEnroll",
      "outputs": [
        {
          "internalType": "bool",
          "name": "",
          "type": "bool"
        }
      ],
      "stateMutability": "view",
      "type": "function",
      "constant": true
    },
    {
      "inputs": [
        {
          "internalType": "uint256",
          "name": "_index",
          "type": "uint256"
        }
      ],
      "name": "findEnrollNodeByIndex",
      "outputs": [
        {
          "components": [
            {
              "internalType": "address",
              "name": "addr",
              "type": "address"
            },
            {
              "internalType": "uint256",
              "name": "index",
              "type": "uint256"
            }
          ],
          "internalType": "struct OracleContract.EnrollNode",
          "name": "",
          "type": "tuple"
        }
      ],
      "stateMutability": "view",
      "type": "function",
      "constant": true
    },
    {
      "inputs": [],
      "name": "countEnrollNodes",
      "outputs": [
        {
          "internalType": "uint256",
          "name": "",
          "type": "uint256"
        }
      ],
      "stateMutability": "view",
      "type": "function",
      "constant": true
    },
    {
      "inputs": [
        {
          "internalType": "bytes32",
          "name": "_hash",
          "type": "bytes32"
        }
      ],
      "name": "findBlockValidationResult",
      "outputs": [
        {
          "internalType": "bool",
          "name": "",
          "type": "bool"
        }
      ],
      "stateMutability": "view",
      "type": "function",
      "constant": true
    },
    {
      "inputs": [
        {
          "internalType": "bytes32",
          "name": "_hash",
          "type": "bytes32"
        }
      ],
      "name": "findTransactionValidationResult",
      "outputs": [
        {
          "internalType": "bool",
          "name": "",
          "type": "bool"
        }
      ],
      "stateMutability": "view",
      "type": "function",
      "constant": true
    }
  ],
  "bytecode": "0x60806040523480156200001157600080fd5b5060405162002256380380620022568339818101604052810190620000379190620000e9565b80600660006101000a81548173ffffffffffffffffffffffffffffffffffffffff021916908373ffffffffffffffffffffffffffffffffffffffff160217905550506200011b565b600080fd5b600073ffffffffffffffffffffffffffffffffffffffff82169050919050565b6000620000b18262000084565b9050919050565b620000c381620000a4565b8114620000cf57600080fd5b50565b600081519050620000e381620000b8565b92915050565b6000602082840312156200010257620001016200007f565b5b60006200011284828501620000d2565b91505092915050565b61212b806200012b6000396000f3fe6080604052600436106100fe5760003560e01c80637da83e2b11610095578063c6d6e3d511610064578063c6d6e3d5146102ea578063cf21c29314610313578063dd5e22df1461031d578063e92c04d114610339578063fc769ee914610376576100fe565b80637da83e2b1461022c5780637e985fd014610257578063a2ff2ad714610294578063ab3be840146102bf576100fe565b80633d27ef97116100d15780633d27ef971461017d57806343434590146101ba578063460e99f4146101f757806363db7eae14610201576100fe565b806312f1e8f4146101035780632b00aaef1461010d578063344829c8146101365780633d18651e14610152575b600080fd5b61010b6103a1565b005b34801561011957600080fd5b50610134600480360381019061012f9190611418565b6106bb565b005b610150600480360381019061014b91906114a5565b6106d3565b005b34801561015e57600080fd5b50610167610790565b60405161017491906114eb565b60405180910390f35b34801561018957600080fd5b506101a4600480360381019061019f91906114a5565b61079b565b6040516101b19190611515565b60405180910390f35b3480156101c657600080fd5b506101e160048036038101906101dc91906114a5565b6107c5565b6040516101ee9190611515565b60405180910390f35b6101ff6107ef565b005b34801561020d57600080fd5b506102166108f7565b60405161022391906114eb565b60405180910390f35b34801561023857600080fd5b5061024161091f565b60405161024e91906114eb565b60405180910390f35b34801561026357600080fd5b5061027e6004803603810190610279919061155c565b610929565b60405161028b91906115d6565b60405180910390f35b3480156102a057600080fd5b506102a9610a74565b6040516102b691906114eb565b60405180910390f35b3480156102cb57600080fd5b506102d4610a7e565b6040516102e191906114eb565b60405180910390f35b3480156102f657600080fd5b50610311600480360381019061030c9190611418565b610a89565b005b61031b610aa1565b005b610337600480360381019061033291906114a5565b610c04565b005b34801561034557600080fd5b50610360600480360381019061035b91906115f1565b610cc1565b60405161036d9190611515565b60405180910390f35b34801561038257600080fd5b5061038b610d8f565b60405161039891906114eb565b60405180910390f35b600660009054906101000a900473ffffffffffffffffffffffffffffffffffffffff1673ffffffffffffffffffffffffffffffffffffffff1663836f187a6040518163ffffffff1660e01b8152600401602060405180830381865afa15801561040e573d6000803e3d6000fd5b505050506040513d601f19601f820116820180604052508101906104329190611633565b6005805490501115610479576040517f08c379a0000000000000000000000000000000000000000000000000000000008152600401610470906116bd565b60405180910390fd5b600660009054906101000a900473ffffffffffffffffffffffffffffffffffffffff1673ffffffffffffffffffffffffffffffffffffffff1663140f3daa336040518263ffffffff1660e01b81526004016104d491906116ec565b602060405180830381865afa1580156104f1573d6000803e3d6000fd5b505050506040513d601f19601f82011682018060405250810190610515919061171c565b610554576040517f08c379a000000000000000000000000000000000000000000000000000000000815260040161054b90611795565b60405180910390fd5b61055d33610cc1565b1561059d576040517f08c379a000000000000000000000000000000000000000000000000000000000815260040161059490611801565b60405180910390fd5b6000600460003373ffffffffffffffffffffffffffffffffffffffff1673ffffffffffffffffffffffffffffffffffffffff1681526020019081526020016000209050338160000160006101000a81548173ffffffffffffffffffffffffffffffffffffffff021916908373ffffffffffffffffffffffffffffffffffffffff160217905550600580549050816001018190555060058160000160009054906101000a900473ffffffffffffffffffffffffffffffffffffffff169080600181540180825580915050600190039060005260206000200160009091909190916101000a81548173ffffffffffffffffffffffffffffffffffffffff021916908373ffffffffffffffffffffffffffffffffffffffff16021790555050565b6106cb6001878787878787610d9c565b505050505050565b6064655af3107a40006106e69190611850565b66038d7ea4c680006106f89190611892565b8034101561073b576040517f08c379a000000000000000000000000000000000000000000000000000000000815260040161073290611912565b60405180910390fd5b3373ffffffffffffffffffffffffffffffffffffffff167f3706933cbfd265e74e347f4c40263753cecc292080a1bfd0e9fd6ce994c083966002846040516107849291906119b8565b60405180910390a25050565b66038d7ea4c6800081565b60006002600083815260200190815260200160002060009054906101000a900460ff169050919050565b60006003600083815260200190815260200160002060009054906101000a900460ff169050919050565b6000600660009054906101000a900473ffffffffffffffffffffffffffffffffffffffff1673ffffffffffffffffffffffffffffffffffffffff16633ad59dbc6040518163ffffffff1660e01b8152600401600060405180830381865afa15801561085e573d6000803e3d6000fd5b505050506040513d6000823e3d601f19601f820116820180604052508101906108879190611cc6565b9050655af3107a40008160600151116108d5576040517f08c379a00000000000000000000000000000000000000000000000000000000081526004016108cc90611d5b565b60405180910390fd5b655af3107a400081606001516108eb9190611d7b565b81606001818152505050565b6064655af3107a400061090a9190611850565b66038d7ea4c6800061091c9190611892565b81565b655af3107a400081565b610931611291565b60008210158015610946575060058054905082105b610985576040517f08c379a000000000000000000000000000000000000000000000000000000000815260040161097c90611dfb565b60405180910390fd5b600460006005848154811061099d5761099c611e1b565b5b9060005260206000200160009054906101000a900473ffffffffffffffffffffffffffffffffffffffff1673ffffffffffffffffffffffffffffffffffffffff1673ffffffffffffffffffffffffffffffffffffffff1681526020019081526020016000206040518060400160405290816000820160009054906101000a900473ffffffffffffffffffffffffffffffffffffffff1673ffffffffffffffffffffffffffffffffffffffff1673ffffffffffffffffffffffffffffffffffffffff1681526020016001820154815250509050919050565b655af3107a400081565b66038d7ea4c6800081565b610a996002878787878787610d9c565b505050505050565b6000600660009054906101000a900473ffffffffffffffffffffffffffffffffffffffff1673ffffffffffffffffffffffffffffffffffffffff1663655a102f336040518263ffffffff1660e01b8152600401610afe91906116ec565b600060405180830381865afa158015610b1b573d6000803e3d6000fd5b505050506040513d6000823e3d601f19601f82011682018060405250810190610b449190611cc6565b905066038d7ea4c68000816060015111610b93576040517f08c379a0000000000000000000000000000000000000000000000000000000008152600401610b8a90611d5b565b60405180910390fd5b66038d7ea4c680008160600151610baa9190611d7b565b8160600181815250503373ffffffffffffffffffffffffffffffffffffffff166108fc66038d7ea4c680009081150290604051600060405180830381858888f19350505050158015610c00573d6000803e3d6000fd5b5050565b6064655af3107a4000610c179190611850565b66038d7ea4c68000610c299190611892565b80341015610c6c576040517f08c379a0000000000000000000000000000000000000000000000000000000008152600401610c6390611912565b60405180910390fd5b3373ffffffffffffffffffffffffffffffffffffffff167f3706933cbfd265e74e347f4c40263753cecc292080a1bfd0e9fd6ce994c08396600184604051610cb59291906119b8565b60405180910390a25050565b60008060058054905003610cd85760009050610d8a565b8173ffffffffffffffffffffffffffffffffffffffff166005600460008573ffffffffffffffffffffffffffffffffffffffff1673ffffffffffffffffffffffffffffffffffffffff1681526020019081526020016000206001015481548110610d4557610d44611e1b565b5b9060005260206000200160009054906101000a900473ffffffffffffffffffffffffffffffffffffffff1673ffffffffffffffffffffffffffffffffffffffff161490505b919050565b6000600580549050905090565b60006002811115610db057610daf611932565b5b876002811115610dc357610dc2611932565b5b03610e03576040517f08c379a0000000000000000000000000000000000000000000000000000000008152600401610dfa90611e96565b60405180910390fd5b6000600660009054906101000a900473ffffffffffffffffffffffffffffffffffffffff1673ffffffffffffffffffffffffffffffffffffffff16633ad59dbc6040518163ffffffff1660e01b8152600401600060405180830381865afa158015610e72573d6000803e3d6000fd5b505050506040513d6000823e3d601f19601f82011682018060405250810190610e9b9190611cc6565b90503373ffffffffffffffffffffffffffffffffffffffff16816000015173ffffffffffffffffffffffffffffffffffffffff1614610f0f576040517f08c379a0000000000000000000000000000000000000000000000000000000008152600401610f0690611f02565b60405180910390fd5b600060018387878760405160008152602001604052604051610f349493929190611f31565b6020604051602081039080840390855afa158015610f56573d6000803e3d6000fd5b505050602060405103519050600073ffffffffffffffffffffffffffffffffffffffff168173ffffffffffffffffffffffffffffffffffffffff1603610fd1576040517f08c379a0000000000000000000000000000000000000000000000000000000008152600401610fc890611fc2565b60405180910390fd5b8673ffffffffffffffffffffffffffffffffffffffff168173ffffffffffffffffffffffffffffffffffffffff161461103f576040517f08c379a000000000000000000000000000000000000000000000000000000000815260040161103690612054565b60405180910390fd5b6005600061104d91906112c1565b3373ffffffffffffffffffffffffffffffffffffffff166108fc66038d7ea4c680009081150290604051600060405180830381858888f1935050505015801561109a573d6000803e3d6000fd5b5060005b6005805490508163ffffffff1610156111555760058163ffffffff16815481106110cb576110ca611e1b565b5b9060005260206000200160009054906101000a900473ffffffffffffffffffffffffffffffffffffffff1673ffffffffffffffffffffffffffffffffffffffff166108fc655af3107a40009081150290604051600060405180830381858888f19350505050158015611141573d6000803e3d6000fd5b50808061114d90612084565b91505061109e565b506001600281111561116a57611169611932565b5b89600281111561117d5761117c611932565b5b036111b257876002600085815260200190815260200160002060006101000a81548160ff02191690831515021790555061120a565b6002808111156111c5576111c4611932565b5b8960028111156111d8576111d7611932565b5b0361120957876003600085815260200190815260200160002060006101000a81548160ff0219169083151502179055505b5b3373ffffffffffffffffffffffffffffffffffffffff167f9739d27192db56a131c86c297677afccac89aa4f39cbc5bcd62a8d10ce5596758a858b600580549050655af3107a400061125c9190611850565b66038d7ea4c6800061126e9190611892565b60405161127e94939291906120b0565b60405180910390a2505050505050505050565b6040518060400160405280600073ffffffffffffffffffffffffffffffffffffffff168152602001600081525090565b50805460008255906000526020600020908101906112df91906112e2565b50565b5b808211156112fb5760008160009055506001016112e3565b5090565b6000604051905090565b600080fd5b600080fd5b60008115159050919050565b61132881611313565b811461133357600080fd5b50565b6000813590506113458161131f565b92915050565b600073ffffffffffffffffffffffffffffffffffffffff82169050919050565b60006113768261134b565b9050919050565b6113868161136b565b811461139157600080fd5b50565b6000813590506113a38161137d565b92915050565b600060ff82169050919050565b6113bf816113a9565b81146113ca57600080fd5b50565b6000813590506113dc816113b6565b92915050565b6000819050919050565b6113f5816113e2565b811461140057600080fd5b50565b600081359050611412816113ec565b92915050565b60008060008060008060c0878903121561143557611434611309565b5b600061144389828a01611336565b965050602061145489828a01611394565b955050604061146589828a016113cd565b945050606061147689828a01611403565b935050608061148789828a01611403565b92505060a061149889828a01611403565b9150509295509295509295565b6000602082840312156114bb576114ba611309565b5b60006114c984828501611403565b91505092915050565b6000819050919050565b6114e5816114d2565b82525050565b600060208201905061150060008301846114dc565b92915050565b61150f81611313565b82525050565b600060208201905061152a6000830184611506565b92915050565b611539816114d2565b811461154457600080fd5b50565b60008135905061155681611530565b92915050565b60006020828403121561157257611571611309565b5b600061158084828501611547565b91505092915050565b6115928161136b565b82525050565b6115a1816114d2565b82525050565b6040820160008201516115bd6000850182611589565b5060208201516115d06020850182611598565b50505050565b60006040820190506115eb60008301846115a7565b92915050565b60006020828403121561160757611606611309565b5b600061161584828501611394565b91505092915050565b60008151905061162d81611530565b92915050565b60006020828403121561164957611648611309565b5b60006116578482850161161e565b91505092915050565b600082825260208201905092915050565b7f456e726f6c6c6d656e7420636c6f736564210000000000000000000000000000600082015250565b60006116a7601283611660565b91506116b282611671565b602082019050919050565b600060208201905081810360008301526116d68161169a565b9050919050565b6116e68161136b565b82525050565b600060208201905061170160008301846116dd565b92915050565b6000815190506117168161131f565b92915050565b60006020828403121561173257611731611309565b5b600061174084828501611707565b91505092915050565b7f546865204f7261636c6520646f65736e27742072656769737465726564000000600082015250565b600061177f601d83611660565b915061178a82611749565b602082019050919050565b600060208201905081810360008301526117ae81611772565b9050919050565b7f616c726561647920656e726f6c6c656400000000000000000000000000000000600082015250565b60006117eb601083611660565b91506117f6826117b5565b602082019050919050565b6000602082019050818103600083015261181a816117de565b9050919050565b7f4e487b7100000000000000000000000000000000000000000000000000000000600052601160045260246000fd5b600061185b826114d2565b9150611866836114d2565b9250828202611874816114d2565b9150828204841483151761188b5761188a611821565b5b5092915050565b600061189d826114d2565b91506118a8836114d2565b92508282019050808211156118c0576118bf611821565b5b92915050565b7f746f6f206665772066656520616d6f756e740000000000000000000000000000600082015250565b60006118fc601283611660565b9150611907826118c6565b602082019050919050565b6000602082019050818103600083015261192b816118ef565b9050919050565b7f4e487b7100000000000000000000000000000000000000000000000000000000600052602160045260246000fd5b6003811061197257611971611932565b5b50565b600081905061198382611961565b919050565b600061199382611975565b9050919050565b6119a381611988565b82525050565b6119b2816113e2565b82525050565b60006040820190506119cd600083018561199a565b6119da60208301846119a9565b9392505050565b600080fd5b6000601f19601f8301169050919050565b7f4e487b7100000000000000000000000000000000000000000000000000000000600052604160045260246000fd5b611a2f826119e6565b810181811067ffffffffffffffff82111715611a4e57611a4d6119f7565b5b80604052505050565b6000611a616112ff565b9050611a6d8282611a26565b919050565b600080fd5b600081519050611a868161137d565b92915050565b600080fd5b600080fd5b600067ffffffffffffffff821115611ab157611ab06119f7565b5b611aba826119e6565b9050602081019050919050565b60005b83811015611ae5578082015181840152602081019050611aca565b60008484015250505050565b6000611b04611aff84611a96565b611a57565b905082815260208101848484011115611b2057611b1f611a91565b5b611b2b848285611ac7565b509392505050565b600082601f830112611b4857611b47611a8c565b5b8151611b58848260208601611af1565b91505092915050565b600067ffffffffffffffff821115611b7c57611b7b6119f7565b5b611b85826119e6565b9050602081019050919050565b6000611ba5611ba084611b61565b611a57565b905082815260208101848484011115611bc157611bc0611a91565b5b611bcc848285611ac7565b509392505050565b600082601f830112611be957611be8611a8c565b5b8151611bf9848260208601611b92565b91505092915050565b600060a08284031215611c1857611c176119e1565b5b611c2260a0611a57565b90506000611c3284828501611a77565b600083015250602082015167ffffffffffffffff811115611c5657611c55611a72565b5b611c6284828501611b33565b602083015250604082015167ffffffffffffffff811115611c8657611c85611a72565b5b611c9284828501611bd4565b6040830152506060611ca68482850161161e565b6060830152506080611cba8482850161161e565b60808301525092915050565b600060208284031215611cdc57611cdb611309565b5b600082015167ffffffffffffffff811115611cfa57611cf961130e565b5b611d0684828501611c02565b91505092915050565b7f7374616b6520697320746f6f206c6f7721000000000000000000000000000000600082015250565b6000611d45601183611660565b9150611d5082611d0f565b602082019050919050565b60006020820190508181036000830152611d7481611d38565b9050919050565b6000611d86826114d2565b9150611d91836114d2565b9250828203905081811115611da957611da8611821565b5b92915050565b7f6e6f7420666f756e640000000000000000000000000000000000000000000000600082015250565b6000611de5600983611660565b9150611df082611daf565b602082019050919050565b60006020820190508181036000830152611e1481611dd8565b9050919050565b7f4e487b7100000000000000000000000000000000000000000000000000000000600052603260045260246000fd5b7f756e6b6e6f776e2076616c69646174696f6e2074797065000000000000000000600082015250565b6000611e80601783611660565b9150611e8b82611e4a565b602082019050919050565b60006020820190508181036000830152611eaf81611e73565b9050919050565b7f6e6f74207468652061676772656761746f720000000000000000000000000000600082015250565b6000611eec601283611660565b9150611ef782611eb6565b602082019050919050565b60006020820190508181036000830152611f1b81611edf565b9050919050565b611f2b816113a9565b82525050565b6000608082019050611f4660008301876119a9565b611f536020830186611f22565b611f6060408301856119a9565b611f6d60608301846119a9565b95945050505050565b7f45434453413a20696e76616c6964207369676e61747572650000000000000000600082015250565b6000611fac601883611660565b9150611fb782611f76565b602082019050919050565b60006020820190508181036000830152611fdb81611f9f565b9050919050565b7f7369676e61747572653a206164647265737320646f6573206e6f74206d61746360008201527f6800000000000000000000000000000000000000000000000000000000000000602082015250565b600061203e602183611660565b915061204982611fe2565b604082019050919050565b6000602082019050818103600083015261206d81612031565b9050919050565b600063ffffffff82169050919050565b600061208f82612074565b915063ffffffff82036120a5576120a4611821565b5b600182019050919050565b60006080820190506120c5600083018761199a565b6120d260208301866119a9565b6120df6040830185611506565b6120ec60608301846114dc565b9594505050505056fea26469706673582212204a3f285ff2378b8f6313a2ee8b31a3dce111213ffd357576450639683c7afd9664736f6c63430008130033",
  "immutableReferences": {},
  "source": "// SPDX-License-Identifier: MIT\npragma solidity  ^0.8.0;\n\nimport \"./RegistryContract.sol\";\n\ncontract OracleContract {\n    struct EnrollNode {\n        address addr;\n        uint256 index;\n    }\n\n    uint256 public constant BASE_FEE = 0.001 ether;\n\n    // \n    uint256 public constant VALIDATOR_FEE = 0.0001 ether;\n\n    //\n    uint256 public constant CHANLLENGE_FEE = 0.0001 ether;\n\n    // \n    uint256 public constant COMPENSATION_FEE = 0.001 ether;\n\n    uint256 public constant TOTAL_FEE = BASE_FEE + VALIDATOR_FEE * 100;\n    \n\n    uint256 private constant G2_NEG_X_RE =\n        0x198E9393920D483A7260BFB731FB5D25F1AA493335A9E71297E485B7AEF312C2;\n    uint256 private constant G2_NEG_X_IM =\n        0x1800DEEF121F1E76426A00665E5C4479674322D4F75EDADD46DEBD5CD992F6ED;\n    uint256 private constant G2_NEG_Y_RE =\n        0x275dc4a288d1afb3cbb1ac09187524c7db36395df7be3b99e673b13a075a65ec;\n    uint256 private constant G2_NEG_Y_IM =\n        0x1d9befcd05a5323e6da4d435f3b617cdb3af83285c2df711ef39c01571827f9d;\n\n    uint256 private requestCounter;\n    uint256 private requestsSinceLastPayout;\n\n    mapping(bytes32 => bool) private blockValidationResults;\n    mapping(bytes32 => bool) private txValidationResults;\n    mapping(address => EnrollNode) private enrollNodes;\n    address[] private enrollNodeIndices;\n\n\n    // \n    // event enrollOracleNode(address indexed sender);\n    enum ValidationType { UNKNOWN, BLOCK, TRANSACTION }\n\n    event ValidationRequest(ValidationType typ, address indexed from, bytes32 hash);\n    // indexed\n    event ValidationResponse(\n        ValidationType typ,\n        address indexed aggregator,   \n        bytes32 hash,\n        bool valid,\n        uint256 fee\n    );\n\n    RegistryContract private registryContract;\n\n    constructor(address _registryContract) {\n        registryContract = RegistryContract(_registryContract);\n    }\n\n    modifier minFee(uint _min) {\n        require(msg.value >= _min, \"too few fee amount\");\n        _;\n    }\n\n    function validateBlock(bytes32 _hash) external payable minFee(TOTAL_FEE) {\n        emit ValidationRequest(ValidationType.BLOCK, msg.sender, _hash);\n    }\n\n    function validateTransaction(bytes32 _hash) external payable minFee(TOTAL_FEE) {\n        emit ValidationRequest(ValidationType.TRANSACTION, msg.sender, _hash);\n    }\n\n    function submitBlockValidationResult(bool _result, address aggregateAddress, uint8 v, bytes32 r, bytes32 s, bytes32 _hash ) external {\n        submitValidationResult(ValidationType.BLOCK, _result, aggregateAddress, v, r, s, _hash );\n    }\n\n    function submitTransactionValidationResult(bool _result, address aggregateAddress, uint8 v, bytes32 r, bytes32 s, bytes32 _hash ) external {\n        submitValidationResult(ValidationType.TRANSACTION, _result, aggregateAddress, v, r, s, _hash );\n    }\n\n    function submitValidationResult(\n        ValidationType _typ,\n        bool _result,  // \n        address aggregateAddress,\n        uint8 v,\n        bytes32 r,\n        bytes32 s,\n        bytes32 _hash\n    ) private {\n\n        require(_typ != ValidationType.UNKNOWN, \"unknown validation type\");\n\n        RegistryContract.OracleNode memory aggregator =\n            registryContract.getAggregator();\n\n        require(aggregator.addr == msg.sender, \"not the aggregator\");  // \n\n        /***************\n         *ECDSA*\n         ***************/\n        address signer = ecrecover(_hash, v, r, s);\n        require(signer != address(0), \"ECDSA: invalid signature\");\n        require(signer == aggregateAddress, \"signature: address does not match\");\n\n        delete enrollNodeIndices;\n        //uint256 fee = calculateFee(aggregator.stake, _signature[0]);\n        \n        //  \n        payable(msg.sender).transfer(BASE_FEE);     //\n\n        // \n        for(uint32 i = 0 ; i < enrollNodeIndices.length ; i++){\n            payable(enrollNodeIndices[i]).transfer(VALIDATOR_FEE);\n        }\n        \n        if (_typ == ValidationType.BLOCK) {\n            blockValidationResults[_hash] = _result;\n        } else if (_typ == ValidationType.TRANSACTION) {\n            txValidationResults[_hash] = _result;\n        }\n\n        emit ValidationResponse(_typ, msg.sender, _hash, _result, BASE_FEE + VALIDATOR_FEE * enrollNodeIndices.length );  //  +  * \n    }\n\n    // ,()\n    function chanllenge() public payable {\n        RegistryContract.OracleNode memory aggregator =\n            registryContract.getAggregator();\n        require(aggregator.stake > CHANLLENGE_FEE , \"stake is too low!\");\n        aggregator.stake = aggregator.stake - CHANLLENGE_FEE;\n    }\n    // \n    function fine() public payable {\n        // ()\n        RegistryContract.OracleNode memory oracle =\n            registryContract.findOracleNodeByAddress(msg.sender);\n        require(oracle.stake > COMPENSATION_FEE , \"stake is too low!\");\n\n        oracle.stake = oracle.stake - COMPENSATION_FEE;\n        \n        // ,\n        payable(msg.sender).transfer(COMPENSATION_FEE);\n    }\n\n    // \n    function EnrollOracleNode() external payable{\n        require(enrollNodeIndices.length <= registryContract.countOracleNodes(), \"Enrollment closed!\");\n        require(registryContract.oracleNodeIsRegistered(msg.sender) , \"The Oracle doesn't registered\");\n        require(!oracleNodeIsEnroll(msg.sender), \"already enrolled\");\n\n        EnrollNode storage iopNode = enrollNodes[msg.sender];\n        iopNode.addr = msg.sender;\n        iopNode.index = enrollNodeIndices.length;\n        enrollNodeIndices.push(iopNode.addr);\n\n    }\n    // \n    function oracleNodeIsEnroll(address _addr) public view returns (bool){\n        if (enrollNodeIndices.length == 0) return false;\n        return (enrollNodeIndices[enrollNodes[_addr].index] == _addr);\n    }\n    // \n    function findEnrollNodeByIndex(uint256 _index)\n        public\n        view\n        returns (EnrollNode memory)\n    {\n        require(_index >= 0 && _index < enrollNodeIndices.length, \"not found\");\n        return enrollNodes[enrollNodeIndices[_index]];\n    }\n    // \n    function countEnrollNodes() external view returns (uint256){\n        return enrollNodeIndices.length;\n    }\n\n    function findBlockValidationResult(bytes32 _hash) public view returns (bool) {\n        return blockValidationResults[_hash];\n    }\n\n    function findTransactionValidationResult(bytes32 _hash) public view returns (bool) {\n        return txValidationResults[_hash];\n    }\n}\n",
  "sourcePath": "/home/indistinguishable/GameBasedOracle/ioporaclecontracts/contracts/OracleContract.sol",
  "compiler": {
    "name": "solc",
    "version": "0.8.19+commit.7dd6d404.Emscripten.clang"
  },
  "schemaVersion": "3.4.11",
  "updatedAt": "2023-03-12T12:14:53.401Z",
  "networkType": "ethereum",
  "devdoc": {
    "kind": "dev",
    "methods": {},
    "version": 1
  },
  "userdoc": {
    "kind": "user",
    "methods": {},
    "version": 1
  }
}