{
  "contractName": "OracleContract",
  "abi": [
    {
      "inputs": [
        {
          "internalType": "address",
          "name": "_registryContract",
          "type": "address"
        }
      ],
      "stateMutability": "nonpayable",
      "type": "constructor"
    },
    {
      "anonymous": false,
      "inputs": [],
      "name": "ValidationBegin",
      "type": "event"
    },
    {
      "anonymous": false,
      "inputs": [
        {
          "indexed": false,
          "internalType": "enum OracleContract.ValidationType",
          "name": "typ",
          "type": "uint8"
        },
        {
          "indexed": true,
          "internalType": "address",
          "name": "from",
          "type": "address"
        },
        {
          "indexed": false,
          "internalType": "bytes32",
          "name": "hash",
          "type": "bytes32"
        }
      ],
      "name": "ValidationRequest",
      "type": "event"
    },
    {
      "anonymous": false,
      "inputs": [
        {
          "indexed": false,
          "internalType": "enum OracleContract.ValidationType",
          "name": "typ",
          "type": "uint8"
        },
        {
          "indexed": true,
          "internalType": "address",
          "name": "aggregator",
          "type": "address"
        },
        {
          "indexed": false,
          "internalType": "bytes32",
          "name": "message",
          "type": "bytes32"
        },
        {
          "indexed": false,
          "internalType": "bool",
          "name": "valid",
          "type": "bool"
        },
        {
          "indexed": false,
          "internalType": "uint256",
          "name": "fee",
          "type": "uint256"
        }
      ],
      "name": "ValidationResponse",
      "type": "event"
    },
    {
      "anonymous": false,
      "inputs": [
        {
          "indexed": false,
          "internalType": "uint256",
          "name": "beginTime",
          "type": "uint256"
        },
        {
          "indexed": false,
          "internalType": "address[]",
          "name": "lazyValidators",
          "type": "address[]"
        }
      ],
      "name": "urgeEvent",
      "type": "event"
    },
    {
      "inputs": [],
      "name": "BASE_FEE",
      "outputs": [
        {
          "internalType": "uint256",
          "name": "",
          "type": "uint256"
        }
      ],
      "stateMutability": "view",
      "type": "function"
    },
    {
      "inputs": [],
      "name": "COMPENSATION_FEE",
      "outputs": [
        {
          "internalType": "uint256",
          "name": "",
          "type": "uint256"
        }
      ],
      "stateMutability": "view",
      "type": "function"
    },
    {
      "inputs": [],
      "name": "TOTAL_FEE",
      "outputs": [
        {
          "internalType": "uint256",
          "name": "",
          "type": "uint256"
        }
      ],
      "stateMutability": "view",
      "type": "function"
    },
    {
      "inputs": [],
      "name": "URGE_FEE",
      "outputs": [
        {
          "internalType": "uint256",
          "name": "",
          "type": "uint256"
        }
      ],
      "stateMutability": "view",
      "type": "function"
    },
    {
      "inputs": [],
      "name": "VALIDATOR_FEE",
      "outputs": [
        {
          "internalType": "uint256",
          "name": "",
          "type": "uint256"
        }
      ],
      "stateMutability": "view",
      "type": "function"
    },
    {
      "inputs": [],
      "name": "waitTime",
      "outputs": [
        {
          "internalType": "uint256",
          "name": "",
          "type": "uint256"
        }
      ],
      "stateMutability": "view",
      "type": "function"
    },
    {
      "inputs": [
        {
          "internalType": "bytes32",
          "name": "_hash",
          "type": "bytes32"
        }
      ],
      "name": "validateBlock",
      "outputs": [],
      "stateMutability": "payable",
      "type": "function"
    },
    {
      "inputs": [
        {
          "internalType": "bytes32",
          "name": "_hash",
          "type": "bytes32"
        }
      ],
      "name": "validateTransaction",
      "outputs": [],
      "stateMutability": "payable",
      "type": "function"
    },
    {
      "inputs": [
        {
          "internalType": "bool",
          "name": "_result",
          "type": "bool"
        },
        {
          "internalType": "bytes32",
          "name": "message",
          "type": "bytes32"
        },
        {
          "internalType": "uint256",
          "name": "signature",
          "type": "uint256"
        },
        {
          "internalType": "uint256",
          "name": "pubKeyX",
          "type": "uint256"
        },
        {
          "internalType": "uint256",
          "name": "pubKeyY",
          "type": "uint256"
        },
        {
          "internalType": "uint256",
          "name": "RX",
          "type": "uint256"
        },
        {
          "internalType": "uint256",
          "name": "RY",
          "type": "uint256"
        },
        {
          "internalType": "uint256",
          "name": "_hash",
          "type": "uint256"
        }
      ],
      "name": "submitBlockValidationResult",
      "outputs": [],
      "stateMutability": "nonpayable",
      "type": "function"
    },
    {
      "inputs": [
        {
          "internalType": "bool",
          "name": "_result",
          "type": "bool"
        },
        {
          "internalType": "bytes32",
          "name": "message",
          "type": "bytes32"
        },
        {
          "internalType": "uint256",
          "name": "signature",
          "type": "uint256"
        },
        {
          "internalType": "uint256",
          "name": "pubKeyX",
          "type": "uint256"
        },
        {
          "internalType": "uint256",
          "name": "pubKeyY",
          "type": "uint256"
        },
        {
          "internalType": "uint256",
          "name": "RX",
          "type": "uint256"
        },
        {
          "internalType": "uint256",
          "name": "RY",
          "type": "uint256"
        },
        {
          "internalType": "uint256",
          "name": "_hash",
          "type": "uint256"
        }
      ],
      "name": "submitTransactionValidationResult",
      "outputs": [],
      "stateMutability": "nonpayable",
      "type": "function"
    },
    {
      "inputs": [],
      "name": "EnrollOracleNode",
      "outputs": [],
      "stateMutability": "nonpayable",
      "type": "function"
    },
    {
      "inputs": [
        {
          "internalType": "address",
          "name": "_addr",
          "type": "address"
        }
      ],
      "name": "oracleNodeIsEnroll",
      "outputs": [
        {
          "internalType": "bool",
          "name": "",
          "type": "bool"
        }
      ],
      "stateMutability": "view",
      "type": "function"
    },
    {
      "inputs": [
        {
          "internalType": "address[]",
          "name": "lazyValidators",
          "type": "address[]"
        }
      ],
      "name": "urge",
      "outputs": [],
      "stateMutability": "payable",
      "type": "function"
    },
    {
      "inputs": [],
      "name": "judge",
      "outputs": [],
      "stateMutability": "nonpayable",
      "type": "function"
    },
    {
      "inputs": [
        {
          "internalType": "uint256",
          "name": "provement",
          "type": "uint256"
        }
      ],
      "name": "lazySubmit",
      "outputs": [],
      "stateMutability": "nonpayable",
      "type": "function"
    },
    {
      "inputs": [],
      "name": "getBlockTime",
      "outputs": [
        {
          "internalType": "uint256",
          "name": "",
          "type": "uint256"
        }
      ],
      "stateMutability": "view",
      "type": "function"
    },
    {
      "inputs": [
        {
          "internalType": "uint256",
          "name": "_index",
          "type": "uint256"
        }
      ],
      "name": "findEnrollNodeByIndex",
      "outputs": [
        {
          "internalType": "address",
          "name": "",
          "type": "address"
        }
      ],
      "stateMutability": "view",
      "type": "function"
    },
    {
      "inputs": [],
      "name": "countEnrollNodes",
      "outputs": [
        {
          "internalType": "uint256",
          "name": "",
          "type": "uint256"
        }
      ],
      "stateMutability": "view",
      "type": "function"
    },
    {
      "inputs": [
        {
          "internalType": "bytes32",
          "name": "_hash",
          "type": "bytes32"
        }
      ],
      "name": "findBlockValidationResult",
      "outputs": [
        {
          "internalType": "bool",
          "name": "",
          "type": "bool"
        }
      ],
      "stateMutability": "view",
      "type": "function"
    },
    {
      "inputs": [
        {
          "internalType": "bytes32",
          "name": "_hash",
          "type": "bytes32"
        }
      ],
      "name": "findTransactionValidationResult",
      "outputs": [
        {
          "internalType": "bool",
          "name": "",
          "type": "bool"
        }
      ],
      "stateMutability": "view",
      "type": "function"
    }
  ],
  "bytecode": "0x608060405260008060006101000a81548160ff02191690831515021790555060008060156101000a81548160ff0219169083151502179055503480156200004557600080fd5b5060405162002d1138038062002d1183398181016040528101906200006b91906200011d565b80600760006101000a81548173ffffffffffffffffffffffffffffffffffffffff021916908373ffffffffffffffffffffffffffffffffffffffff160217905550506200014f565b600080fd5b600073ffffffffffffffffffffffffffffffffffffffff82169050919050565b6000620000e582620000b8565b9050919050565b620000f781620000d8565b81146200010357600080fd5b50565b6000815190506200011781620000ec565b92915050565b600060208284031215620001365762000135620000b3565b5b6000620001468482850162000106565b91505092915050565b612bb2806200015f6000396000f3fe60806040526004361061011f5760003560e01c80637e985fd0116100a0578063ccca123b11610064578063ccca123b14610395578063cf88d42d146103c0578063dd5e22df146103e9578063e92c04d114610405578063fc769ee9146104425761011f565b80637e985fd0146102ae57806387ceff09146102eb578063ab35307914610316578063ab3be84014610341578063b60c18b41461036c5761011f565b806343434590116100e757806343434590146101db5780634cc1868814610218578063573255f41461024157806363db7eae146102585780637da83e2b146102835761011f565b806312f1e8f414610124578063344829c81461013b5780633d18651e146101575780633d27ef97146101825780633f6a97e7146101bf575b600080fd5b34801561013057600080fd5b5061013961046d565b005b610155600480360381019061015091906119b1565b6107bb565b005b34801561016357600080fd5b5061016c6109c2565b60405161017991906119f7565b60405180910390f35b34801561018e57600080fd5b506101a960048036038101906101a491906119b1565b6109ce565b6040516101b69190611a2d565b60405180910390f35b6101d960048036038101906101d49190611aad565b6109f8565b005b3480156101e757600080fd5b5061020260048036038101906101fd91906119b1565b610be2565b60405161020f9190611a2d565b60405180910390f35b34801561022457600080fd5b5061023f600480360381019061023a9190611b26565b610c0c565b005b34801561024d57600080fd5b50610256610db7565b005b34801561026457600080fd5b5061026d610efd565b60405161027a91906119f7565b60405180910390f35b34801561028f57600080fd5b50610298610f27565b6040516102a591906119f7565b60405180910390f35b3480156102ba57600080fd5b506102d560048036038101906102d09190611b26565b610f32565b6040516102e29190611b94565b60405180910390f35b3480156102f757600080fd5b50610300610fcd565b60405161030d91906119f7565b60405180910390f35b34801561032257600080fd5b5061032b610fd5565b60405161033891906119f7565b60405180910390f35b34801561034d57600080fd5b50610356610fdf565b60405161036391906119f7565b60405180910390f35b34801561037857600080fd5b50610393600480360381019061038e9190611bdb565b610fea565b005b3480156103a157600080fd5b506103aa61106d565b6040516103b791906119f7565b60405180910390f35b3480156103cc57600080fd5b506103e760048036038101906103e29190611bdb565b611072565b005b61040360048036038101906103fe91906119b1565b6110f5565b005b34801561041157600080fd5b5061042c60048036038101906104279190611cbd565b6112fc565b6040516104399190611a2d565b60405180910390f35b34801561044e57600080fd5b506104576113c8565b60405161046491906119f7565b60405180910390f35b6002600760009054906101000a900473ffffffffffffffffffffffffffffffffffffffff1673ffffffffffffffffffffffffffffffffffffffff1663836f187a6040518163ffffffff1660e01b8152600401602060405180830381865afa1580156104dc573d6000803e3d6000fd5b505050506040513d601f19601f820116820180604052508101906105009190611cff565b61050a9190611d8a565b6006805490501115610551576040517f08c379a000000000000000000000000000000000000000000000000000000000815260040161054890611e18565b60405180910390fd5b600760009054906101000a900473ffffffffffffffffffffffffffffffffffffffff1673ffffffffffffffffffffffffffffffffffffffff1663140f3daa336040518263ffffffff1660e01b81526004016105ac9190611b94565b602060405180830381865afa1580156105c9573d6000803e3d6000fd5b505050506040513d601f19601f820116820180604052508101906105ed9190611e4d565b61062c576040517f08c379a000000000000000000000000000000000000000000000000000000000815260040161062390611ec6565b60405180910390fd5b610635336112fc565b15610675576040517f08c379a000000000000000000000000000000000000000000000000000000000815260040161066c90611f32565b60405180910390fd5b6006339080600181540180825580915050600190039060005260206000200160009091909190916101000a81548173ffffffffffffffffffffffffffffffffffffffff021916908373ffffffffffffffffffffffffffffffffffffffff16021790555060016002600760009054906101000a900473ffffffffffffffffffffffffffffffffffffffff1673ffffffffffffffffffffffffffffffffffffffff1663836f187a6040518163ffffffff1660e01b8152600401602060405180830381865afa158015610749573d6000803e3d6000fd5b505050506040513d601f19601f8201168201806040525081019061076d9190611cff565b6107779190611d8a565b6107819190611f52565b600680549050036107b9577f8e00f41384bb0046e201ec383e79140e9a0484a5db044984cbd072e4fbe6d7e260405160405180910390a15b565b6064662386f26fc100006107cf9190611f86565b67016345785d8a00006107e29190611f52565b80341015610825576040517f08c379a000000000000000000000000000000000000000000000000000000000815260040161081c90612014565b60405180910390fd5b60008054906101000a900460ff1615610873576040517f08c379a000000000000000000000000000000000000000000000000000000000815260040161086a90612080565b60405180910390fd5b60016000806101000a81548160ff0219169083151502179055506000600760009054906101000a900473ffffffffffffffffffffffffffffffffffffffff1673ffffffffffffffffffffffffffffffffffffffff16633ad59dbc6040518163ffffffff1660e01b8152600401600060405180830381865afa1580156108fc573d6000803e3d6000fd5b505050506040513d6000823e3d601f19601f820116820180604052508101906109259190612380565b90508060000151600060016101000a81548173ffffffffffffffffffffffffffffffffffffffff021916908373ffffffffffffffffffffffffffffffffffffffff1602179055503373ffffffffffffffffffffffffffffffffffffffff167f3706933cbfd265e74e347f4c40263753cecc292080a1bfd0e9fd6ce994c083966002856040516109b592919061244f565b60405180910390a2505050565b67016345785d8a000081565b60006004600083815260200190815260200160002060009054906101000a900460ff169050919050565b600060159054906101000a900460ff1615610a48576040517f08c379a0000000000000000000000000000000000000000000000000000000008152600401610a3f906124c4565b60405180910390fd5b6001600060156101000a81548160ff021916908315150217905550610a6b610fcd565b60018190555060005b828290508160ff161015610ba15760006002600085858560ff16818110610a9e57610a9d6124e4565b5b9050602002016020810190610ab39190611cbd565b73ffffffffffffffffffffffffffffffffffffffff1673ffffffffffffffffffffffffffffffffffffffff16815260200190815260200160002060009054906101000a900460ff169050819050600384848460ff16818110610b1857610b176124e4565b5b9050602002016020810190610b2d9190611cbd565b9080600181540180825580915050600190039060005260206000200160009091909190916101000a81548173ffffffffffffffffffffffffffffffffffffffff021916908373ffffffffffffffffffffffffffffffffffffffff160217905550508080610b9990612520565b915050610a74565b507f36f6fc8369ccf7caf98fc124c7063bf2ce83ee0dafe362af30eab6000f2b950f6001546003604051610bd692919061266d565b60405180910390a15050565b60006005600083815260200190815260200160002060009054906101000a900460ff169050919050565b3373ffffffffffffffffffffffffffffffffffffffff166003600260003373ffffffffffffffffffffffffffffffffffffffff1673ffffffffffffffffffffffffffffffffffffffff16815260200190815260200160002060009054906101000a900460ff1660ff1681548110610c8657610c856124e4565b5b9060005260206000200160009054906101000a900473ffffffffffffffffffffffffffffffffffffffff1673ffffffffffffffffffffffffffffffffffffffff1614610d07576040517f08c379a0000000000000000000000000000000000000000000000000000000008152600401610cfe906126e9565b60405180910390fd5b60006003600260003373ffffffffffffffffffffffffffffffffffffffff1673ffffffffffffffffffffffffffffffffffffffff16815260200190815260200160002060009054906101000a900460ff1660ff1681548110610d6c57610d6b6124e4565b5b9060005260206000200160006101000a81548173ffffffffffffffffffffffffffffffffffffffff021916908373ffffffffffffffffffffffffffffffffffffffff16021790555050565b3373ffffffffffffffffffffffffffffffffffffffff16600060019054906101000a900473ffffffffffffffffffffffffffffffffffffffff1673ffffffffffffffffffffffffffffffffffffffff1614610e47576040517f08c379a0000000000000000000000000000000000000000000000000000000008152600401610e3e90612755565b60405180910390fd5b600060159054906101000a900460ff16610e96576040517f08c379a0000000000000000000000000000000000000000000000000000000008152600401610e8d906127c1565b60405180910390fd5b610e9e610fcd565b601e600154610ead9190611f52565b10610eed576040517f08c379a0000000000000000000000000000000000000000000000000000000008152600401610ee49061282d565b60405180910390fd5b60036000610efb91906118ed565b565b6064662386f26fc10000610f119190611f86565b67016345785d8a0000610f249190611f52565b81565b662386f26fc1000081565b6000808210158015610f48575060068054905082105b610f87576040517f08c379a0000000000000000000000000000000000000000000000000000000008152600401610f7e90612899565b60405180910390fd5b60068281548110610f9b57610f9a6124e4565b5b9060005260206000200160009054906101000a900473ffffffffffffffffffffffffffffffffffffffff169050919050565b600042905090565b655af3107a400081565b66038d7ea4c6800081565b60008054906101000a900460ff16611037576040517f08c379a000000000000000000000000000000000000000000000000000000000815260040161102e90612905565b60405180910390fd5b611049600289898989898989896113d5565b60008060006101000a81548160ff0219169083151502179055505050505050505050565b601e81565b60008054906101000a900460ff166110bf576040517f08c379a00000000000000000000000000000000000000000000000000000000081526004016110b690612905565b60405180910390fd5b6110d1600189898989898989896113d5565b60008060006101000a81548160ff0219169083151502179055505050505050505050565b6064662386f26fc100006111099190611f86565b67016345785d8a000061111c9190611f52565b8034101561115f576040517f08c379a000000000000000000000000000000000000000000000000000000000815260040161115690612014565b60405180910390fd5b60008054906101000a900460ff16156111ad576040517f08c379a00000000000000000000000000000000000000000000000000000000081526004016111a490612080565b60405180910390fd5b60016000806101000a81548160ff0219169083151502179055506000600760009054906101000a900473ffffffffffffffffffffffffffffffffffffffff1673ffffffffffffffffffffffffffffffffffffffff16633ad59dbc6040518163ffffffff1660e01b8152600401600060405180830381865afa158015611236573d6000803e3d6000fd5b505050506040513d6000823e3d601f19601f8201168201806040525081019061125f9190612380565b90508060000151600060016101000a81548173ffffffffffffffffffffffffffffffffffffffff021916908373ffffffffffffffffffffffffffffffffffffffff1602179055503373ffffffffffffffffffffffffffffffffffffffff167f3706933cbfd265e74e347f4c40263753cecc292080a1bfd0e9fd6ce994c083966001856040516112ef92919061244f565b60405180910390a2505050565b6000806006805490500361131357600090506113c3565b60005b6006805490508163ffffffff1610156113bd578273ffffffffffffffffffffffffffffffffffffffff1660068263ffffffff168154811061135a576113596124e4565b5b9060005260206000200160009054906101000a900473ffffffffffffffffffffffffffffffffffffffff1673ffffffffffffffffffffffffffffffffffffffff16036113aa5760019150506113c3565b80806113b590612935565b915050611316565b50600090505b919050565b6000600680549050905090565b600060028111156113e9576113e86123c9565b5b8960028111156113fc576113fb6123c9565b5b0361143c576040517f08c379a0000000000000000000000000000000000000000000000000000000008152600401611433906129ad565b60405180910390fd5b3373ffffffffffffffffffffffffffffffffffffffff16600060019054906101000a900473ffffffffffffffffffffffffffffffffffffffff1673ffffffffffffffffffffffffffffffffffffffff16146114cc576040517f08c379a00000000000000000000000000000000000000000000000000000000081526004016114c390612755565b60405180910390fd5b6114da8686868686866116bb565b611519576040517f08c379a000000000000000000000000000000000000000000000000000000000815260040161151090612a3f565b60405180910390fd5b3373ffffffffffffffffffffffffffffffffffffffff166108fc67016345785d8a00009081150290604051600060405180830381858888f19350505050158015611567573d6000803e3d6000fd5b5060005b6006805490508163ffffffff1610156116235760068163ffffffff1681548110611598576115976124e4565b5b9060005260206000200160009054906101000a900473ffffffffffffffffffffffffffffffffffffffff1673ffffffffffffffffffffffffffffffffffffffff166108fc662386f26fc100009081150290604051600060405180830381858888f1935050505015801561160f573d6000803e3d6000fd5b50808061161b90612935565b91505061156b565b506006600061163291906118ed565b3373ffffffffffffffffffffffffffffffffffffffff167f9739d27192db56a131c86c297677afccac89aa4f39cbc5bcd62a8d10ce5596758a898b600680549050662386f26fc100006116859190611f86565b67016345785d8a00006116989190611f52565b6040516116a89493929190612a5f565b60405180910390a2505050505050505050565b600080604051806060016040528060018152602001600281526020018981525090506116e561190e565b6116ee826117b9565b826000018360200182815250828152505050600060405180606001604052808a815260200189815260200186815250905061172761190e565b611730826117b9565b826000018360200182815250828152505050600060405180608001604052808a8152602001898152602001836000015181526020018360200151815250905061177881611853565b836000018460200182815250828152505050816000015184600001511480156117a8575081602001518460200151145b955050505050509695505050505050565b60008060006117c6611928565b60408160608760006007600019f1915081611816576040517f08c379a000000000000000000000000000000000000000000000000000000000815260040161180d90612af0565b60405180910390fd5b8060006002811061182a576118296124e4565b5b602002015181600160028110611843576118426124e4565b5b6020020151935093505050915091565b6000806000611860611928565b60408160808760006006600019f19150816118b0576040517f08c379a00000000000000000000000000000000000000000000000000000000081526004016118a790612b5c565b60405180910390fd5b806000600281106118c4576118c36124e4565b5b6020020151816001600281106118dd576118dc6124e4565b5b6020020151935093505050915091565b508054600082559060005260206000209081019061190b919061194a565b50565b604051806040016040528060008152602001600081525090565b6040518060400160405280600290602082028036833780820191505090505090565b5b8082111561196357600081600090555060010161194b565b5090565b6000604051905090565b600080fd5b600080fd5b6000819050919050565b61198e8161197b565b811461199957600080fd5b50565b6000813590506119ab81611985565b92915050565b6000602082840312156119c7576119c6611971565b5b60006119d58482850161199c565b91505092915050565b6000819050919050565b6119f1816119de565b82525050565b6000602082019050611a0c60008301846119e8565b92915050565b60008115159050919050565b611a2781611a12565b82525050565b6000602082019050611a426000830184611a1e565b92915050565b600080fd5b600080fd5b600080fd5b60008083601f840112611a6d57611a6c611a48565b5b8235905067ffffffffffffffff811115611a8a57611a89611a4d565b5b602083019150836020820283011115611aa657611aa5611a52565b5b9250929050565b60008060208385031215611ac457611ac3611971565b5b600083013567ffffffffffffffff811115611ae257611ae1611976565b5b611aee85828601611a57565b92509250509250929050565b611b03816119de565b8114611b0e57600080fd5b50565b600081359050611b2081611afa565b92915050565b600060208284031215611b3c57611b3b611971565b5b6000611b4a84828501611b11565b91505092915050565b600073ffffffffffffffffffffffffffffffffffffffff82169050919050565b6000611b7e82611b53565b9050919050565b611b8e81611b73565b82525050565b6000602082019050611ba96000830184611b85565b92915050565b611bb881611a12565b8114611bc357600080fd5b50565b600081359050611bd581611baf565b92915050565b600080600080600080600080610100898b031215611bfc57611bfb611971565b5b6000611c0a8b828c01611bc6565b9850506020611c1b8b828c0161199c565b9750506040611c2c8b828c01611b11565b9650506060611c3d8b828c01611b11565b9550506080611c4e8b828c01611b11565b94505060a0611c5f8b828c01611b11565b93505060c0611c708b828c01611b11565b92505060e0611c818b828c01611b11565b9150509295985092959890939650565b611c9a81611b73565b8114611ca557600080fd5b50565b600081359050611cb781611c91565b92915050565b600060208284031215611cd357611cd2611971565b5b6000611ce184828501611ca8565b91505092915050565b600081519050611cf981611afa565b92915050565b600060208284031215611d1557611d14611971565b5b6000611d2384828501611cea565b91505092915050565b7f4e487b7100000000000000000000000000000000000000000000000000000000600052601260045260246000fd5b7f4e487b7100000000000000000000000000000000000000000000000000000000600052601160045260246000fd5b6000611d95826119de565b9150611da0836119de565b925082611db057611daf611d2c565b5b828204905092915050565b600082825260208201905092915050565b7f456e726f6c6c6d656e7420636c6f736564210000000000000000000000000000600082015250565b6000611e02601283611dbb565b9150611e0d82611dcc565b602082019050919050565b60006020820190508181036000830152611e3181611df5565b9050919050565b600081519050611e4781611baf565b92915050565b600060208284031215611e6357611e62611971565b5b6000611e7184828501611e38565b91505092915050565b7f546865204f7261636c6520646f65736e27742072656769737465726564000000600082015250565b6000611eb0601d83611dbb565b9150611ebb82611e7a565b602082019050919050565b60006020820190508181036000830152611edf81611ea3565b9050919050565b7f616c726561647920656e726f6c6c656400000000000000000000000000000000600082015250565b6000611f1c601083611dbb565b9150611f2782611ee6565b602082019050919050565b60006020820190508181036000830152611f4b81611f0f565b9050919050565b6000611f5d826119de565b9150611f68836119de565b9250828201905080821115611f8057611f7f611d5b565b5b92915050565b6000611f91826119de565b9150611f9c836119de565b9250828202611faa816119de565b91508282048414831517611fc157611fc0611d5b565b5b5092915050565b7f746f6f206665772066656520616d6f756e740000000000000000000000000000600082015250565b6000611ffe601283611dbb565b915061200982611fc8565b602082019050919050565b6000602082019050818103600083015261202d81611ff1565b9050919050565b7f416e6f746865722076616c696461746520697320696e2070726f677265737321600082015250565b600061206a602083611dbb565b915061207582612034565b602082019050919050565b600060208201905081810360008301526120998161205d565b9050919050565b600080fd5b6000601f19601f8301169050919050565b7f4e487b7100000000000000000000000000000000000000000000000000000000600052604160045260246000fd5b6120ee826120a5565b810181811067ffffffffffffffff8211171561210d5761210c6120b6565b5b80604052505050565b6000612120611967565b905061212c82826120e5565b919050565b600080fd5b60008151905061214581611c91565b92915050565b600080fd5b600067ffffffffffffffff82111561216b5761216a6120b6565b5b612174826120a5565b9050602081019050919050565b60005b8381101561219f578082015181840152602081019050612184565b60008484015250505050565b60006121be6121b984612150565b612116565b9050828152602081018484840111156121da576121d961214b565b5b6121e5848285612181565b509392505050565b600082601f83011261220257612201611a48565b5b81516122128482602086016121ab565b91505092915050565b600067ffffffffffffffff821115612236576122356120b6565b5b61223f826120a5565b9050602081019050919050565b600061225f61225a8461221b565b612116565b90508281526020810184848401111561227b5761227a61214b565b5b612286848285612181565b509392505050565b600082601f8301126122a3576122a2611a48565b5b81516122b384826020860161224c565b91505092915050565b600060a082840312156122d2576122d16120a0565b5b6122dc60a0612116565b905060006122ec84828501612136565b600083015250602082015167ffffffffffffffff8111156123105761230f612131565b5b61231c848285016121ed565b602083015250604082015167ffffffffffffffff8111156123405761233f612131565b5b61234c8482850161228e565b604083015250606061236084828501611cea565b606083015250608061237484828501611cea565b60808301525092915050565b60006020828403121561239657612395611971565b5b600082015167ffffffffffffffff8111156123b4576123b3611976565b5b6123c0848285016122bc565b91505092915050565b7f4e487b7100000000000000000000000000000000000000000000000000000000600052602160045260246000fd5b60038110612409576124086123c9565b5b50565b600081905061241a826123f8565b919050565b600061242a8261240c565b9050919050565b61243a8161241f565b82525050565b6124498161197b565b82525050565b60006040820190506124646000830185612431565b6124716020830184612440565b9392505050565b7f416c72656164792075726765206c617a7956616c696461746f72730000000000600082015250565b60006124ae601b83611dbb565b91506124b982612478565b602082019050919050565b600060208201905081810360008301526124dd816124a1565b9050919050565b7f4e487b7100000000000000000000000000000000000000000000000000000000600052603260045260246000fd5b600060ff82169050919050565b600061252b82612513565b915060ff820361253e5761253d611d5b565b5b600182019050919050565b600081549050919050565b600082825260208201905092915050565b60008190508160005260206000209050919050565b61258381611b73565b82525050565b6000612595838361257a565b60208301905092915050565b60008160001c9050919050565b600073ffffffffffffffffffffffffffffffffffffffff82169050919050565b60006125e16125dc836125a1565b6125ae565b9050919050565b60006125f482546125ce565b9050919050565b6000600182019050919050565b600061261382612549565b61261d8185612554565b935061262883612565565b8060005b838110156126605761263d826125e8565b6126478882612589565b9750612652836125fb565b92505060018101905061262c565b5085935050505092915050565b600060408201905061268260008301856119e8565b81810360208301526126948184612608565b90509392505050565b7f4e6f742062652075726765642100000000000000000000000000000000000000600082015250565b60006126d3600d83611dbb565b91506126de8261269d565b602082019050919050565b60006020820190508181036000830152612702816126c6565b9050919050565b7f6e6f74207468652061676772656761746f720000000000000000000000000000600082015250565b600061273f601283611dbb565b915061274a82612709565b602082019050919050565b6000602082019050818103600083015261276e81612732565b9050919050565b7f486176656e27742075726765206c617a7956616c696461746f72000000000000600082015250565b60006127ab601a83611dbb565b91506127b682612775565b602082019050919050565b600060208201905081810360008301526127da8161279e565b9050919050565b7f42652070617469656e7400000000000000000000000000000000000000000000600082015250565b6000612817600a83611dbb565b9150612822826127e1565b602082019050919050565b600060208201905081810360008301526128468161280a565b9050919050565b7f6e6f7420666f756e640000000000000000000000000000000000000000000000600082015250565b6000612883600983611dbb565b915061288e8261284d565b602082019050919050565b600060208201905081810360008301526128b281612876565b9050919050565b7f4e6f742076616c69646174652074696d65210000000000000000000000000000600082015250565b60006128ef601283611dbb565b91506128fa826128b9565b602082019050919050565b6000602082019050818103600083015261291e816128e2565b9050919050565b600063ffffffff82169050919050565b600061294082612925565b915063ffffffff820361295657612955611d5b565b5b600182019050919050565b7f756e6b6e6f776e2076616c69646174696f6e2074797065000000000000000000600082015250565b6000612997601783611dbb565b91506129a282612961565b602082019050919050565b600060208201905081810360008301526129c68161298a565b9050919050565b7f7369676e61747572653a206164647265737320646f6573206e6f74206d61746360008201527f6800000000000000000000000000000000000000000000000000000000000000602082015250565b6000612a29602183611dbb565b9150612a34826129cd565b604082019050919050565b60006020820190508181036000830152612a5881612a1c565b9050919050565b6000608082019050612a746000830187612431565b612a816020830186612440565b612a8e6040830185611a1e565b612a9b60608301846119e8565b95945050505050565b7f6563206d756c206661696c656400000000000000000000000000000000000000600082015250565b6000612ada600d83611dbb565b9150612ae582612aa4565b602082019050919050565b60006020820190508181036000830152612b0981612acd565b9050919050565b7f626e323536206164646974696f6e206661696c65640000000000000000000000600082015250565b6000612b46601583611dbb565b9150612b5182612b10565b602082019050919050565b60006020820190508181036000830152612b7581612b39565b905091905056fea26469706673582212205d5ef5e6fdf60497281df1ab9e1e96f44cb8ad3704c33b1b6cf25fe47c17449664736f6c63430008110033",
  "immutableReferences": {},
  "source": "// SPDX-License-Identifier: MIT\npragma solidity  ^0.8.0;\n\nimport \"./RegistryContract.sol\";\nimport \"./crypto/Schnorr.sol\";\n\ncontract OracleContract {\n\n    // \n    bool private isValidateTime = false;\n\n    // \n    uint256 public constant BASE_FEE = 0.1 ether;\n\n    // \n    uint256 public constant VALIDATOR_FEE = 0.01 ether;\n    uint256 public constant TOTAL_FEE = BASE_FEE + VALIDATOR_FEE * 100;\n\n    address private aggregatorAddr;\n    bool private isUrgeTime = false; // ;\n    uint private urgeBeginTime;\n    uint public constant waitTime = 30;\n    mapping(address => uint8) private lazyValidatorIndex;\n    address[] private LazyValidators; // ;\n    uint256 public constant URGE_FEE = 0.0001 ether;  // ;\n    uint256 public constant COMPENSATION_FEE = 0.001 ether;  // ;\n\n\n    // \n    mapping(bytes32 => bool) private blockValidationResults;\n    mapping(bytes32 => bool) private txValidationResults;\n\n    // \n    address[] private enrollNodeIndices;\n\n\n    // ;\n    enum ValidationType { UNKNOWN, BLOCK, TRANSACTION }\n\n    // indexed\n    event ValidationRequest(ValidationType typ, address indexed from, bytes32 hash);\n\n    event urgeEvent(uint beginTime, address[] lazyValidators);\n\n    event ValidationBegin();\n\n    event ValidationResponse(\n        ValidationType typ,\n        address indexed aggregator,   \n        bytes32 message,\n        bool valid,\n        uint256 fee\n    );\n\n    RegistryContract private registryContract;\n    constructor(address _registryContract) {\n        registryContract = RegistryContract(_registryContract);\n    }\n\n    modifier minFee(uint _min) {\n        require(msg.value >= _min, \"too few fee amount\");\n        _;\n    }\n\n    function validateBlock(bytes32 _hash) external payable minFee(TOTAL_FEE) {\n        require(!isValidateTime, \"Another validate is in progress!\");\n        isValidateTime = true;\n        RegistryContract.OracleNode memory aggregator = registryContract.getAggregator();\n        aggregatorAddr = aggregator.addr;\n        emit ValidationRequest(ValidationType.BLOCK, msg.sender, _hash);\n    }\n\n    function validateTransaction(bytes32 _hash) external payable minFee(TOTAL_FEE) {\n        require(!isValidateTime, \"Another validate is in progress!\");\n        isValidateTime = true;\n        RegistryContract.OracleNode memory aggregator = registryContract.getAggregator();\n        aggregatorAddr = aggregator.addr;\n        emit ValidationRequest(ValidationType.TRANSACTION, msg.sender, _hash);\n    }\n\n    function submitBlockValidationResult(bool _result, bytes32 message, uint256 signature, uint256 pubKeyX, uint256 pubKeyY, uint256 RX , uint256 RY, uint256 _hash) external {\n        require(isValidateTime, \"Not validate time!\");\n        submitValidationResult(ValidationType.BLOCK, _result, message, signature, pubKeyX, pubKeyY, RX, RY, _hash);\n        isValidateTime = false;\n    }\n\n    function submitTransactionValidationResult(bool _result, bytes32 message, uint256 signature, uint256 pubKeyX, uint256 pubKeyY, uint256 RX , uint256 RY, uint256 _hash) external {\n        require(isValidateTime, \"Not validate time!\");\n        submitValidationResult(ValidationType.TRANSACTION, _result, message, signature, pubKeyX, pubKeyY, RX, RY, _hash);\n        isValidateTime = false;\n    }\n\n\n    function submitValidationResult(\n        ValidationType _typ,\n        bool _result,\n        bytes32 message,\n        uint256 signature, uint256 pubKeyX, uint256 pubKeyY, uint256 RX , uint256 RY, uint256 _hash\n    ) private {\n\n        require(_typ != ValidationType.UNKNOWN, \"unknown validation type\");\n        require(aggregatorAddr == msg.sender, \"not the aggregator\");  //\n        /*Schnorr*/\n        require(Schnorr.verify(signature, pubKeyX, pubKeyY, RX, RY, _hash), \"signature: address does not match\");\n\n        //  \n        payable(msg.sender).transfer(BASE_FEE);     //\n        // \n        for(uint32 i = 0 ; i < enrollNodeIndices.length ; i++){\n            payable(enrollNodeIndices[i]).transfer(VALIDATOR_FEE);\n        }\n\n        delete enrollNodeIndices;\n/*        if (_typ == ValidationType.BLOCK) {\n            blockValidationResults[message] = _result;\n        } else if (_typ == ValidationType.TRANSACTION) {\n            txValidationResults[message] = _result;\n        }*/\n        emit ValidationResponse(_typ, msg.sender, message, _result, BASE_FEE + VALIDATOR_FEE * enrollNodeIndices.length );  //  +  * \n    }\n\n    // \n    function EnrollOracleNode() external {\n        require(enrollNodeIndices.length <= registryContract.countOracleNodes()/2, \"Enrollment closed!\");\n        require(registryContract.oracleNodeIsRegistered(msg.sender) , \"The Oracle doesn't registered\");\n        require(!oracleNodeIsEnroll(msg.sender), \"already enrolled\");\n        enrollNodeIndices.push(msg.sender);\n        if(enrollNodeIndices.length == registryContract.countOracleNodes()/2 + 1){\n            emit ValidationBegin();\n        }\n    }\n    // \n    function oracleNodeIsEnroll(address _addr) public view returns (bool){\n        if (enrollNodeIndices.length == 0) return false;\n        for(uint32 i = 0 ; i < enrollNodeIndices.length ; i++){\n            if(enrollNodeIndices[i] == _addr){\n                return true;\n            }\n        }\n        return false;\n    }\n\n    // \n    function urge(address[] calldata lazyValidators) public payable {\n        // require(aggregatorAddr == msg.sender, \"not the aggregator\"); //\n        // require(isValidateTime, \"Not validate time!\"); // \n        require(!isUrgeTime, \"Already urge lazyValidators\"); // ;\n        isUrgeTime = true;\n        urgeBeginTime = getBlockTime();\n        for(uint8 i = 0 ; i < lazyValidators.length ; i++){\n            uint8 index = lazyValidatorIndex[lazyValidators[i]];\n            index = i;\n            LazyValidators.push(lazyValidators[i]);\n        }\n        emit urgeEvent(urgeBeginTime, LazyValidators);\n    }\n\n    // ;\n    function judge() public {\n        require(aggregatorAddr == msg.sender, \"not the aggregator\");  //\n        require(isUrgeTime, \"Haven't urge lazyValidator\");\n        require(urgeBeginTime + waitTime < getBlockTime(), \"Be patient\");\n        // TODO: LazyValidators\n        delete(LazyValidators);\n    }\n\n    // \n    function lazySubmit(uint256 provement) public {\n        require(LazyValidators[lazyValidatorIndex[msg.sender]] == msg.sender, \"Not be urged!\");\n        // TODO: LazyValidators\n        LazyValidators[lazyValidatorIndex[msg.sender]] = 0x0000000000000000000000000000000000000000; // ;\n    }\n\n    function getBlockTime() public view returns (uint) {\n        return block.timestamp;\n    }\n\n    // \n    function findEnrollNodeByIndex(uint256 _index)\n        public\n        view\n        returns (address)\n    {\n        require(_index >= 0 && _index < enrollNodeIndices.length, \"not found\");\n        return enrollNodeIndices[_index];\n    }\n    // \n    function countEnrollNodes() external view returns (uint256){\n        return enrollNodeIndices.length;\n    }\n\n    function findBlockValidationResult(bytes32 _hash) public view returns (bool) {\n        return blockValidationResults[_hash];\n    }\n\n    function findTransactionValidationResult(bytes32 _hash) public view returns (bool) {\n        return txValidationResults[_hash];\n    }\n}\n",
  "sourcePath": "/home/indistinguishable/GameBasedOracle/ioporaclecontracts/contracts/OracleContract.sol",
  "compiler": {
    "name": "solc",
    "version": "0.8.17+commit.8df45f5f.Emscripten.clang"
  },
  "schemaVersion": "3.4.11",
  "updatedAt": "2023-04-10T08:12:28.582Z",
  "devdoc": {
    "kind": "dev",
    "methods": {},
    "version": 1
  },
  "userdoc": {
    "kind": "user",
    "methods": {},
    "version": 1
  }
}