{
  "contractName": "OracleContract",
  "abi": [
    {
      "inputs": [
        {
          "internalType": "address",
          "name": "_registryContract",
          "type": "address"
        }
      ],
      "stateMutability": "nonpayable",
      "type": "constructor"
    },
    {
      "anonymous": false,
      "inputs": [],
      "name": "ValidationBegin",
      "type": "event"
    },
    {
      "anonymous": false,
      "inputs": [
        {
          "indexed": false,
          "internalType": "enum OracleContract.ValidationType",
          "name": "typ",
          "type": "uint8"
        },
        {
          "indexed": true,
          "internalType": "address",
          "name": "from",
          "type": "address"
        },
        {
          "indexed": false,
          "internalType": "bytes32",
          "name": "hash",
          "type": "bytes32"
        }
      ],
      "name": "ValidationRequest",
      "type": "event"
    },
    {
      "anonymous": false,
      "inputs": [
        {
          "indexed": false,
          "internalType": "enum OracleContract.ValidationType",
          "name": "typ",
          "type": "uint8"
        },
        {
          "indexed": true,
          "internalType": "address",
          "name": "aggregator",
          "type": "address"
        },
        {
          "indexed": false,
          "internalType": "bytes32",
          "name": "hash",
          "type": "bytes32"
        },
        {
          "indexed": false,
          "internalType": "bool",
          "name": "valid",
          "type": "bool"
        },
        {
          "indexed": false,
          "internalType": "uint256",
          "name": "fee",
          "type": "uint256"
        }
      ],
      "name": "ValidationResponse",
      "type": "event"
    },
    {
      "inputs": [],
      "name": "BASE_FEE",
      "outputs": [
        {
          "internalType": "uint256",
          "name": "",
          "type": "uint256"
        }
      ],
      "stateMutability": "view",
      "type": "function",
      "constant": true
    },
    {
      "inputs": [],
      "name": "CHANLLENGE_FEE",
      "outputs": [
        {
          "internalType": "uint256",
          "name": "",
          "type": "uint256"
        }
      ],
      "stateMutability": "view",
      "type": "function",
      "constant": true
    },
    {
      "inputs": [],
      "name": "COMPENSATION_FEE",
      "outputs": [
        {
          "internalType": "uint256",
          "name": "",
          "type": "uint256"
        }
      ],
      "stateMutability": "view",
      "type": "function",
      "constant": true
    },
    {
      "inputs": [],
      "name": "TOTAL_FEE",
      "outputs": [
        {
          "internalType": "uint256",
          "name": "",
          "type": "uint256"
        }
      ],
      "stateMutability": "view",
      "type": "function",
      "constant": true
    },
    {
      "inputs": [],
      "name": "VALIDATOR_FEE",
      "outputs": [
        {
          "internalType": "uint256",
          "name": "",
          "type": "uint256"
        }
      ],
      "stateMutability": "view",
      "type": "function",
      "constant": true
    },
    {
      "inputs": [
        {
          "internalType": "bytes32",
          "name": "_hash",
          "type": "bytes32"
        }
      ],
      "name": "validateBlock",
      "outputs": [],
      "stateMutability": "payable",
      "type": "function",
      "payable": true
    },
    {
      "inputs": [
        {
          "internalType": "bytes32",
          "name": "_hash",
          "type": "bytes32"
        }
      ],
      "name": "validateTransaction",
      "outputs": [],
      "stateMutability": "payable",
      "type": "function",
      "payable": true
    },
    {
      "inputs": [
        {
          "internalType": "bool",
          "name": "_result",
          "type": "bool"
        },
        {
          "internalType": "bytes32",
          "name": "message",
          "type": "bytes32"
        },
        {
          "internalType": "uint256",
          "name": "signature",
          "type": "uint256"
        },
        {
          "internalType": "uint256",
          "name": "pubKeyX",
          "type": "uint256"
        },
        {
          "internalType": "uint256",
          "name": "pubKeyY",
          "type": "uint256"
        },
        {
          "internalType": "uint256",
          "name": "RX",
          "type": "uint256"
        },
        {
          "internalType": "uint256",
          "name": "RY",
          "type": "uint256"
        },
        {
          "internalType": "uint256",
          "name": "_hash",
          "type": "uint256"
        }
      ],
      "name": "submitBlockValidationResult",
      "outputs": [],
      "stateMutability": "nonpayable",
      "type": "function"
    },
    {
      "inputs": [
        {
          "internalType": "bool",
          "name": "_result",
          "type": "bool"
        },
        {
          "internalType": "bytes32",
          "name": "message",
          "type": "bytes32"
        },
        {
          "internalType": "uint256",
          "name": "signature",
          "type": "uint256"
        },
        {
          "internalType": "uint256",
          "name": "pubKeyX",
          "type": "uint256"
        },
        {
          "internalType": "uint256",
          "name": "pubKeyY",
          "type": "uint256"
        },
        {
          "internalType": "uint256",
          "name": "RX",
          "type": "uint256"
        },
        {
          "internalType": "uint256",
          "name": "RY",
          "type": "uint256"
        },
        {
          "internalType": "uint256",
          "name": "_hash",
          "type": "uint256"
        }
      ],
      "name": "submitTransactionValidationResult",
      "outputs": [],
      "stateMutability": "nonpayable",
      "type": "function"
    },
    {
      "inputs": [],
      "name": "chanllenge",
      "outputs": [],
      "stateMutability": "payable",
      "type": "function",
      "payable": true
    },
    {
      "inputs": [],
      "name": "fine",
      "outputs": [],
      "stateMutability": "payable",
      "type": "function",
      "payable": true
    },
    {
      "inputs": [],
      "name": "EnrollOracleNode",
      "outputs": [],
      "stateMutability": "payable",
      "type": "function",
      "payable": true
    },
    {
      "inputs": [
        {
          "internalType": "address",
          "name": "_addr",
          "type": "address"
        }
      ],
      "name": "oracleNodeIsEnroll",
      "outputs": [
        {
          "internalType": "bool",
          "name": "",
          "type": "bool"
        }
      ],
      "stateMutability": "view",
      "type": "function",
      "constant": true
    },
    {
      "inputs": [
        {
          "internalType": "uint256",
          "name": "_index",
          "type": "uint256"
        }
      ],
      "name": "findEnrollNodeByIndex",
      "outputs": [
        {
          "components": [
            {
              "internalType": "address",
              "name": "addr",
              "type": "address"
            },
            {
              "internalType": "uint256",
              "name": "index",
              "type": "uint256"
            }
          ],
          "internalType": "struct OracleContract.EnrollNode",
          "name": "",
          "type": "tuple"
        }
      ],
      "stateMutability": "view",
      "type": "function",
      "constant": true
    },
    {
      "inputs": [],
      "name": "countEnrollNodes",
      "outputs": [
        {
          "internalType": "uint256",
          "name": "",
          "type": "uint256"
        }
      ],
      "stateMutability": "view",
      "type": "function",
      "constant": true
    },
    {
      "inputs": [
        {
          "internalType": "bytes32",
          "name": "_hash",
          "type": "bytes32"
        }
      ],
      "name": "findBlockValidationResult",
      "outputs": [
        {
          "internalType": "bool",
          "name": "",
          "type": "bool"
        }
      ],
      "stateMutability": "view",
      "type": "function",
      "constant": true
    },
    {
      "inputs": [
        {
          "internalType": "bytes32",
          "name": "_hash",
          "type": "bytes32"
        }
      ],
      "name": "findTransactionValidationResult",
      "outputs": [
        {
          "internalType": "bool",
          "name": "",
          "type": "bool"
        }
      ],
      "stateMutability": "view",
      "type": "function",
      "constant": true
    }
  ],
  "bytecode": "0x60806040523480156200001157600080fd5b5060405162002378380380620023788339818101604052810190620000379190620000e9565b80600660006101000a81548173ffffffffffffffffffffffffffffffffffffffff021916908373ffffffffffffffffffffffffffffffffffffffff160217905550506200011b565b600080fd5b600073ffffffffffffffffffffffffffffffffffffffff82169050919050565b6000620000b18262000084565b9050919050565b620000c381620000a4565b8114620000cf57600080fd5b50565b600081519050620000e381620000b8565b92915050565b6000602082840312156200010257620001016200007f565b5b60006200011284828501620000d2565b91505092915050565b61224d806200012b6000396000f3fe6080604052600436106100fe5760003560e01c80637e985fd011610095578063cf21c29311610064578063cf21c293146102ea578063cf88d42d146102f4578063dd5e22df1461031d578063e92c04d114610339578063fc769ee914610376576100fe565b80637e985fd01461022e578063a2ff2ad71461026b578063ab3be84014610296578063b60c18b4146102c1576100fe565b806343434590116100d15780634343459014610191578063460e99f4146101ce57806363db7eae146101d85780637da83e2b14610203576100fe565b806312f1e8f414610103578063344829c81461010d5780633d18651e146101295780633d27ef9714610154575b600080fd5b61010b6103a1565b005b6101276004803603810190610122919061146f565b6107a8565b005b34801561013557600080fd5b5061013e610865565b60405161014b91906114b5565b60405180910390f35b34801561016057600080fd5b5061017b6004803603810190610176919061146f565b610870565b60405161018891906114eb565b60405180910390f35b34801561019d57600080fd5b506101b860048036038101906101b3919061146f565b61089a565b6040516101c591906114eb565b60405180910390f35b6101d66108c4565b005b3480156101e457600080fd5b506101ed6109cc565b6040516101fa91906114b5565b60405180910390f35b34801561020f57600080fd5b506102186109f4565b60405161022591906114b5565b60405180910390f35b34801561023a57600080fd5b5061025560048036038101906102509190611532565b6109fe565b60405161026291906115de565b60405180910390f35b34801561027757600080fd5b50610280610b49565b60405161028d91906114b5565b60405180910390f35b3480156102a257600080fd5b506102ab610b53565b6040516102b891906114b5565b60405180910390f35b3480156102cd57600080fd5b506102e860048036038101906102e39190611625565b610b5e565b005b6102f2610b7a565b005b34801561030057600080fd5b5061031b60048036038101906103169190611625565b610cdd565b005b6103376004803603810190610332919061146f565b610cf9565b005b34801561034557600080fd5b50610360600480360381019061035b9190611707565b610db6565b60405161036d91906114eb565b60405180910390f35b34801561038257600080fd5b5061038b610e84565b60405161039891906114b5565b60405180910390f35b6002600660009054906101000a900473ffffffffffffffffffffffffffffffffffffffff1673ffffffffffffffffffffffffffffffffffffffff1663836f187a6040518163ffffffff1660e01b8152600401602060405180830381865afa158015610410573d6000803e3d6000fd5b505050506040513d601f19601f820116820180604052508101906104349190611749565b61043e91906117d4565b6005805490501115610485576040517f08c379a000000000000000000000000000000000000000000000000000000000815260040161047c90611862565b60405180910390fd5b600660009054906101000a900473ffffffffffffffffffffffffffffffffffffffff1673ffffffffffffffffffffffffffffffffffffffff1663140f3daa336040518263ffffffff1660e01b81526004016104e09190611891565b602060405180830381865afa1580156104fd573d6000803e3d6000fd5b505050506040513d601f19601f8201168201806040525081019061052191906118c1565b610560576040517f08c379a00000000000000000000000000000000000000000000000000000000081526004016105579061193a565b60405180910390fd5b61056933610db6565b156105a9576040517f08c379a00000000000000000000000000000000000000000000000000000000081526004016105a0906119a6565b60405180910390fd5b6000600460003373ffffffffffffffffffffffffffffffffffffffff1673ffffffffffffffffffffffffffffffffffffffff1681526020019081526020016000209050338160000160006101000a81548173ffffffffffffffffffffffffffffffffffffffff021916908373ffffffffffffffffffffffffffffffffffffffff160217905550600580549050816001018190555060058160000160009054906101000a900473ffffffffffffffffffffffffffffffffffffffff169080600181540180825580915050600190039060005260206000200160009091909190916101000a81548173ffffffffffffffffffffffffffffffffffffffff021916908373ffffffffffffffffffffffffffffffffffffffff16021790555060016002600660009054906101000a900473ffffffffffffffffffffffffffffffffffffffff1673ffffffffffffffffffffffffffffffffffffffff1663836f187a6040518163ffffffff1660e01b8152600401602060405180830381865afa158015610735573d6000803e3d6000fd5b505050506040513d601f19601f820116820180604052508101906107599190611749565b61076391906117d4565b61076d91906119c6565b600580549050036107a5577f8e00f41384bb0046e201ec383e79140e9a0484a5db044984cbd072e4fbe6d7e260405160405180910390a15b50565b6064655af3107a40006107bb91906119fa565b66038d7ea4c680006107cd91906119c6565b80341015610810576040517f08c379a000000000000000000000000000000000000000000000000000000000815260040161080790611a88565b60405180910390fd5b3373ffffffffffffffffffffffffffffffffffffffff167f3706933cbfd265e74e347f4c40263753cecc292080a1bfd0e9fd6ce994c08396600284604051610859929190611b2e565b60405180910390a25050565b66038d7ea4c6800081565b60006002600083815260200190815260200160002060009054906101000a900460ff169050919050565b60006003600083815260200190815260200160002060009054906101000a900460ff169050919050565b6000600660009054906101000a900473ffffffffffffffffffffffffffffffffffffffff1673ffffffffffffffffffffffffffffffffffffffff16633ad59dbc6040518163ffffffff1660e01b8152600401600060405180830381865afa158015610933573d6000803e3d6000fd5b505050506040513d6000823e3d601f19601f8201168201806040525081019061095c9190611e3c565b9050655af3107a40008160600151116109aa576040517f08c379a00000000000000000000000000000000000000000000000000000000081526004016109a190611ed1565b60405180910390fd5b655af3107a400081606001516109c09190611ef1565b81606001818152505050565b6064655af3107a40006109df91906119fa565b66038d7ea4c680006109f191906119c6565b81565b655af3107a400081565b610a0661137b565b60008210158015610a1b575060058054905082105b610a5a576040517f08c379a0000000000000000000000000000000000000000000000000000000008152600401610a5190611f71565b60405180910390fd5b6004600060058481548110610a7257610a71611f91565b5b9060005260206000200160009054906101000a900473ffffffffffffffffffffffffffffffffffffffff1673ffffffffffffffffffffffffffffffffffffffff1673ffffffffffffffffffffffffffffffffffffffff1681526020019081526020016000206040518060400160405290816000820160009054906101000a900473ffffffffffffffffffffffffffffffffffffffff1673ffffffffffffffffffffffffffffffffffffffff1673ffffffffffffffffffffffffffffffffffffffff1681526020016001820154815250509050919050565b655af3107a400081565b66038d7ea4c6800081565b610b7060028989898989898989610e91565b5050505050505050565b6000600660009054906101000a900473ffffffffffffffffffffffffffffffffffffffff1673ffffffffffffffffffffffffffffffffffffffff1663655a102f336040518263ffffffff1660e01b8152600401610bd79190611891565b600060405180830381865afa158015610bf4573d6000803e3d6000fd5b505050506040513d6000823e3d601f19601f82011682018060405250810190610c1d9190611e3c565b905066038d7ea4c68000816060015111610c6c576040517f08c379a0000000000000000000000000000000000000000000000000000000008152600401610c6390611ed1565b60405180910390fd5b66038d7ea4c680008160600151610c839190611ef1565b8160600181815250503373ffffffffffffffffffffffffffffffffffffffff166108fc66038d7ea4c680009081150290604051600060405180830381858888f19350505050158015610cd9573d6000803e3d6000fd5b5050565b610cef60018989898989898989610e91565b5050505050505050565b6064655af3107a4000610d0c91906119fa565b66038d7ea4c68000610d1e91906119c6565b80341015610d61576040517f08c379a0000000000000000000000000000000000000000000000000000000008152600401610d5890611a88565b60405180910390fd5b3373ffffffffffffffffffffffffffffffffffffffff167f3706933cbfd265e74e347f4c40263753cecc292080a1bfd0e9fd6ce994c08396600184604051610daa929190611b2e565b60405180910390a25050565b60008060058054905003610dcd5760009050610e7f565b8173ffffffffffffffffffffffffffffffffffffffff166005600460008573ffffffffffffffffffffffffffffffffffffffff1673ffffffffffffffffffffffffffffffffffffffff1681526020019081526020016000206001015481548110610e3a57610e39611f91565b5b9060005260206000200160009054906101000a900473ffffffffffffffffffffffffffffffffffffffff1673ffffffffffffffffffffffffffffffffffffffff161490505b919050565b6000600580549050905090565b60006002811115610ea557610ea4611aa8565b5b896002811115610eb857610eb7611aa8565b5b03610ef8576040517f08c379a0000000000000000000000000000000000000000000000000000000008152600401610eef9061200c565b60405180910390fd5b610f06868686868686611149565b610f45576040517f08c379a0000000000000000000000000000000000000000000000000000000008152600401610f3c9061209e565b60405180910390fd5b60056000610f5391906113ab565b60005b6005805490508163ffffffff16101561100d5760058163ffffffff1681548110610f8357610f82611f91565b5b9060005260206000200160009054906101000a900473ffffffffffffffffffffffffffffffffffffffff1673ffffffffffffffffffffffffffffffffffffffff166108fc655af3107a40009081150290604051600060405180830381858888f19350505050158015610ff9573d6000803e3d6000fd5b508080611005906120ce565b915050610f56565b506001600281111561102257611021611aa8565b5b89600281111561103557611034611aa8565b5b0361106a57876002600089815260200190815260200160002060006101000a81548160ff0219169083151502179055506110c2565b60028081111561107d5761107c611aa8565b5b8960028111156110905761108f611aa8565b5b036110c157876003600089815260200190815260200160002060006101000a81548160ff0219169083151502179055505b5b3373ffffffffffffffffffffffffffffffffffffffff167f9739d27192db56a131c86c297677afccac89aa4f39cbc5bcd62a8d10ce5596758a898b600580549050655af3107a400061111491906119fa565b66038d7ea4c6800061112691906119c6565b60405161113694939291906120fa565b60405180910390a2505050505050505050565b600080604051806060016040528060018152602001600281526020018981525090506111736113cc565b61117c82611247565b826000018360200182815250828152505050600060405180606001604052808a81526020018981526020018681525090506111b56113cc565b6111be82611247565b826000018360200182815250828152505050600060405180608001604052808a81526020018981526020018360000151815260200183602001518152509050611206816112e1565b83600001846020018281525082815250505081600001518460000151148015611236575081602001518460200151145b955050505050509695505050505050565b60008060006112546113e6565b60408160608760006007600019f19150816112a4576040517f08c379a000000000000000000000000000000000000000000000000000000000815260040161129b9061218b565b60405180910390fd5b806000600281106112b8576112b7611f91565b5b6020020151816001600281106112d1576112d0611f91565b5b6020020151935093505050915091565b60008060006112ee6113e6565b60408160808760006006600019f191508161133e576040517f08c379a0000000000000000000000000000000000000000000000000000000008152600401611335906121f7565b60405180910390fd5b8060006002811061135257611351611f91565b5b60200201518160016002811061136b5761136a611f91565b5b6020020151935093505050915091565b6040518060400160405280600073ffffffffffffffffffffffffffffffffffffffff168152602001600081525090565b50805460008255906000526020600020908101906113c99190611408565b50565b604051806040016040528060008152602001600081525090565b6040518060400160405280600290602082028036833780820191505090505090565b5b80821115611421576000816000905550600101611409565b5090565b6000604051905090565b600080fd5b600080fd5b6000819050919050565b61144c81611439565b811461145757600080fd5b50565b60008135905061146981611443565b92915050565b6000602082840312156114855761148461142f565b5b60006114938482850161145a565b91505092915050565b6000819050919050565b6114af8161149c565b82525050565b60006020820190506114ca60008301846114a6565b92915050565b60008115159050919050565b6114e5816114d0565b82525050565b600060208201905061150060008301846114dc565b92915050565b61150f8161149c565b811461151a57600080fd5b50565b60008135905061152c81611506565b92915050565b6000602082840312156115485761154761142f565b5b60006115568482850161151d565b91505092915050565b600073ffffffffffffffffffffffffffffffffffffffff82169050919050565b600061158a8261155f565b9050919050565b61159a8161157f565b82525050565b6115a98161149c565b82525050565b6040820160008201516115c56000850182611591565b5060208201516115d860208501826115a0565b50505050565b60006040820190506115f360008301846115af565b92915050565b611602816114d0565b811461160d57600080fd5b50565b60008135905061161f816115f9565b92915050565b600080600080600080600080610100898b0312156116465761164561142f565b5b60006116548b828c01611610565b98505060206116658b828c0161145a565b97505060406116768b828c0161151d565b96505060606116878b828c0161151d565b95505060806116988b828c0161151d565b94505060a06116a98b828c0161151d565b93505060c06116ba8b828c0161151d565b92505060e06116cb8b828c0161151d565b9150509295985092959890939650565b6116e48161157f565b81146116ef57600080fd5b50565b600081359050611701816116db565b92915050565b60006020828403121561171d5761171c61142f565b5b600061172b848285016116f2565b91505092915050565b60008151905061174381611506565b92915050565b60006020828403121561175f5761175e61142f565b5b600061176d84828501611734565b91505092915050565b7f4e487b7100000000000000000000000000000000000000000000000000000000600052601260045260246000fd5b7f4e487b7100000000000000000000000000000000000000000000000000000000600052601160045260246000fd5b60006117df8261149c565b91506117ea8361149c565b9250826117fa576117f9611776565b5b828204905092915050565b600082825260208201905092915050565b7f456e726f6c6c6d656e7420636c6f736564210000000000000000000000000000600082015250565b600061184c601283611805565b915061185782611816565b602082019050919050565b6000602082019050818103600083015261187b8161183f565b9050919050565b61188b8161157f565b82525050565b60006020820190506118a66000830184611882565b92915050565b6000815190506118bb816115f9565b92915050565b6000602082840312156118d7576118d661142f565b5b60006118e5848285016118ac565b91505092915050565b7f546865204f7261636c6520646f65736e27742072656769737465726564000000600082015250565b6000611924601d83611805565b915061192f826118ee565b602082019050919050565b6000602082019050818103600083015261195381611917565b9050919050565b7f616c726561647920656e726f6c6c656400000000000000000000000000000000600082015250565b6000611990601083611805565b915061199b8261195a565b602082019050919050565b600060208201905081810360008301526119bf81611983565b9050919050565b60006119d18261149c565b91506119dc8361149c565b92508282019050808211156119f4576119f36117a5565b5b92915050565b6000611a058261149c565b9150611a108361149c565b9250828202611a1e8161149c565b91508282048414831517611a3557611a346117a5565b5b5092915050565b7f746f6f206665772066656520616d6f756e740000000000000000000000000000600082015250565b6000611a72601283611805565b9150611a7d82611a3c565b602082019050919050565b60006020820190508181036000830152611aa181611a65565b9050919050565b7f4e487b7100000000000000000000000000000000000000000000000000000000600052602160045260246000fd5b60038110611ae857611ae7611aa8565b5b50565b6000819050611af982611ad7565b919050565b6000611b0982611aeb565b9050919050565b611b1981611afe565b82525050565b611b2881611439565b82525050565b6000604082019050611b436000830185611b10565b611b506020830184611b1f565b9392505050565b600080fd5b6000601f19601f8301169050919050565b7f4e487b7100000000000000000000000000000000000000000000000000000000600052604160045260246000fd5b611ba582611b5c565b810181811067ffffffffffffffff82111715611bc457611bc3611b6d565b5b80604052505050565b6000611bd7611425565b9050611be38282611b9c565b919050565b600080fd5b600081519050611bfc816116db565b92915050565b600080fd5b600080fd5b600067ffffffffffffffff821115611c2757611c26611b6d565b5b611c3082611b5c565b9050602081019050919050565b60005b83811015611c5b578082015181840152602081019050611c40565b60008484015250505050565b6000611c7a611c7584611c0c565b611bcd565b905082815260208101848484011115611c9657611c95611c07565b5b611ca1848285611c3d565b509392505050565b600082601f830112611cbe57611cbd611c02565b5b8151611cce848260208601611c67565b91505092915050565b600067ffffffffffffffff821115611cf257611cf1611b6d565b5b611cfb82611b5c565b9050602081019050919050565b6000611d1b611d1684611cd7565b611bcd565b905082815260208101848484011115611d3757611d36611c07565b5b611d42848285611c3d565b509392505050565b600082601f830112611d5f57611d5e611c02565b5b8151611d6f848260208601611d08565b91505092915050565b600060a08284031215611d8e57611d8d611b57565b5b611d9860a0611bcd565b90506000611da884828501611bed565b600083015250602082015167ffffffffffffffff811115611dcc57611dcb611be8565b5b611dd884828501611ca9565b602083015250604082015167ffffffffffffffff811115611dfc57611dfb611be8565b5b611e0884828501611d4a565b6040830152506060611e1c84828501611734565b6060830152506080611e3084828501611734565b60808301525092915050565b600060208284031215611e5257611e5161142f565b5b600082015167ffffffffffffffff811115611e7057611e6f611434565b5b611e7c84828501611d78565b91505092915050565b7f7374616b6520697320746f6f206c6f7721000000000000000000000000000000600082015250565b6000611ebb601183611805565b9150611ec682611e85565b602082019050919050565b60006020820190508181036000830152611eea81611eae565b9050919050565b6000611efc8261149c565b9150611f078361149c565b9250828203905081811115611f1f57611f1e6117a5565b5b92915050565b7f6e6f7420666f756e640000000000000000000000000000000000000000000000600082015250565b6000611f5b600983611805565b9150611f6682611f25565b602082019050919050565b60006020820190508181036000830152611f8a81611f4e565b9050919050565b7f4e487b7100000000000000000000000000000000000000000000000000000000600052603260045260246000fd5b7f756e6b6e6f776e2076616c69646174696f6e2074797065000000000000000000600082015250565b6000611ff6601783611805565b915061200182611fc0565b602082019050919050565b6000602082019050818103600083015261202581611fe9565b9050919050565b7f7369676e61747572653a206164647265737320646f6573206e6f74206d61746360008201527f6800000000000000000000000000000000000000000000000000000000000000602082015250565b6000612088602183611805565b91506120938261202c565b604082019050919050565b600060208201905081810360008301526120b78161207b565b9050919050565b600063ffffffff82169050919050565b60006120d9826120be565b915063ffffffff82036120ef576120ee6117a5565b5b600182019050919050565b600060808201905061210f6000830187611b10565b61211c6020830186611b1f565b61212960408301856114dc565b61213660608301846114a6565b95945050505050565b7f6563206d756c206661696c656400000000000000000000000000000000000000600082015250565b6000612175600d83611805565b91506121808261213f565b602082019050919050565b600060208201905081810360008301526121a481612168565b9050919050565b7f626e323536206164646974696f6e206661696c65640000000000000000000000600082015250565b60006121e1601583611805565b91506121ec826121ab565b602082019050919050565b60006020820190508181036000830152612210816121d4565b905091905056fea26469706673582212205c0d4b6bbfc18bba8bbbd75fe99c8e00ba4debed24f06df5f38febce7f24387b64736f6c63430008110033",
  "immutableReferences": {},
  "source": "// SPDX-License-Identifier: MIT\npragma solidity  ^0.8.0;\n\nimport \"./RegistryContract.sol\";\nimport \"./crypto/Schnorr.sol\";\n\ncontract OracleContract {\n    struct EnrollNode {\n        address addr;\n        uint256 index;\n    }\n\n    uint256 public constant BASE_FEE = 0.001 ether;\n\n    // \n    uint256 public constant VALIDATOR_FEE = 0.0001 ether;\n\n    //\n    uint256 public constant CHANLLENGE_FEE = 0.0001 ether;\n\n    // \n    uint256 public constant COMPENSATION_FEE = 0.001 ether;\n\n    uint256 public constant TOTAL_FEE = BASE_FEE + VALIDATOR_FEE * 100;\n\n    uint256 private requestCounter;\n    uint256 private requestsSinceLastPayout;\n\n    mapping(bytes32 => bool) private blockValidationResults;\n    mapping(bytes32 => bool) private txValidationResults;\n    mapping(address => EnrollNode) private enrollNodes;\n    address[] private enrollNodeIndices;\n\n\n    // \n    // event enrollOracleNode(address indexed sender);\n    enum ValidationType { UNKNOWN, BLOCK, TRANSACTION }\n\n    event ValidationRequest(ValidationType typ, address indexed from, bytes32 hash);\n    // indexed\n\n    event ValidationBegin();\n\n    event ValidationResponse(\n        ValidationType typ,\n        address indexed aggregator,   \n        bytes32 hash,\n        bool valid,\n        uint256 fee\n    );\n\n    RegistryContract private registryContract;\n    // Schnorr private schnorr;\n    constructor(address _registryContract) {\n        registryContract = RegistryContract(_registryContract);\n        // schnorr = Schnorr(_schnorr);\n    }\n\n    modifier minFee(uint _min) {\n        require(msg.value >= _min, \"too few fee amount\");\n        _;\n    }\n\n    function validateBlock(bytes32 _hash) external payable minFee(TOTAL_FEE) {\n        emit ValidationRequest(ValidationType.BLOCK, msg.sender, _hash);\n    }\n\n    function validateTransaction(bytes32 _hash) external payable minFee(TOTAL_FEE) {\n        emit ValidationRequest(ValidationType.TRANSACTION, msg.sender, _hash);\n    }\n\n    function submitBlockValidationResult(bool _result, bytes32 message, uint256 signature, uint256 pubKeyX, uint256 pubKeyY, uint256 RX , uint256 RY, uint256 _hash) external {\n        submitValidationResult(ValidationType.BLOCK, _result, message, signature, pubKeyX, pubKeyY, RX, RY, _hash);\n    }\n\n    function submitTransactionValidationResult(bool _result, bytes32 message, uint256 signature, uint256 pubKeyX, uint256 pubKeyY, uint256 RX , uint256 RY, uint256 _hash) external {\n        submitValidationResult(ValidationType.TRANSACTION, _result, message, signature, pubKeyX, pubKeyY, RX, RY, _hash);\n    }\n\n\n    function submitValidationResult(\n        ValidationType _typ,\n        bool _result,  // \n        bytes32 message,\n        uint256 signature, uint256 pubKeyX, uint256 pubKeyY, uint256 RX , uint256 RY, uint256 _hash\n    ) private {\n\n        require(_typ != ValidationType.UNKNOWN, \"unknown validation type\");\n\n        // RegistryContract.OracleNode memory aggregator = registryContract.getAggregator();\n\n        // require(aggregator.addr == msg.sender, \"not the aggregator\");  // \n\n        /******************\n         *Schnorr*\n         ******************/\n\n        require(Schnorr.verify(signature, pubKeyX, pubKeyY, RX, RY, _hash), \"signature: address does not match\");\n        delete enrollNodeIndices;\n\n        //  \n        // payable(msg.sender).transfer(BASE_FEE);     //\n\n        // \n        for(uint32 i = 0 ; i < enrollNodeIndices.length ; i++){\n            payable(enrollNodeIndices[i]).transfer(VALIDATOR_FEE);\n        }\n        \n        if (_typ == ValidationType.BLOCK) {\n            blockValidationResults[message] = _result;\n        } else if (_typ == ValidationType.TRANSACTION) {\n            txValidationResults[message] = _result;\n        }\n\n        emit ValidationResponse(_typ, msg.sender, message, _result, BASE_FEE + VALIDATOR_FEE * enrollNodeIndices.length );  //  +  * \n    }\n\n    // ,()\n    function chanllenge() public payable {\n        RegistryContract.OracleNode memory aggregator =\n            registryContract.getAggregator();\n        require(aggregator.stake > CHANLLENGE_FEE , \"stake is too low!\");\n        aggregator.stake = aggregator.stake - CHANLLENGE_FEE;\n    }\n    // \n    function fine() public payable {\n        // ()\n        RegistryContract.OracleNode memory oracle =\n            registryContract.findOracleNodeByAddress(msg.sender);\n        require(oracle.stake > COMPENSATION_FEE , \"stake is too low!\");\n\n        oracle.stake = oracle.stake - COMPENSATION_FEE;\n        \n        // ,\n        payable(msg.sender).transfer(COMPENSATION_FEE);\n    }\n\n    // \n    function EnrollOracleNode() external payable{\n        require(enrollNodeIndices.length <= registryContract.countOracleNodes()/2, \"Enrollment closed!\");\n        require(registryContract.oracleNodeIsRegistered(msg.sender) , \"The Oracle doesn't registered\");\n        require(!oracleNodeIsEnroll(msg.sender), \"already enrolled\");\n        EnrollNode storage iopNode = enrollNodes[msg.sender];\n        iopNode.addr = msg.sender;\n        iopNode.index = enrollNodeIndices.length;\n        enrollNodeIndices.push(iopNode.addr);\n        if(enrollNodeIndices.length == registryContract.countOracleNodes()/2 + 1){\n            emit ValidationBegin();\n        }\n    }\n    // \n    function oracleNodeIsEnroll(address _addr) public view returns (bool){\n        if (enrollNodeIndices.length == 0) return false;\n        return (enrollNodeIndices[enrollNodes[_addr].index] == _addr);\n    }\n    // \n    function findEnrollNodeByIndex(uint256 _index)\n        public\n        view\n        returns (EnrollNode memory)\n    {\n        require(_index >= 0 && _index < enrollNodeIndices.length, \"not found\");\n        return enrollNodes[enrollNodeIndices[_index]];\n    }\n    // \n    function countEnrollNodes() external view returns (uint256){\n        return enrollNodeIndices.length;\n    }\n\n    function findBlockValidationResult(bytes32 _hash) public view returns (bool) {\n        return blockValidationResults[_hash];\n    }\n\n    function findTransactionValidationResult(bytes32 _hash) public view returns (bool) {\n        return txValidationResults[_hash];\n    }\n}\n",
  "sourcePath": "/home/indistinguishable/GameBasedOracle/ioporaclecontracts/contracts/OracleContract.sol",
  "compiler": {
    "name": "solc",
    "version": "0.8.17+commit.8df45f5f.Emscripten.clang"
  },
  "schemaVersion": "3.4.11",
  "updatedAt": "2023-04-01T12:30:31.773Z",
  "networkType": "ethereum",
  "devdoc": {
    "kind": "dev",
    "methods": {},
    "version": 1
  },
  "userdoc": {
    "kind": "user",
    "methods": {},
    "version": 1
  }
}