{
  "contractName": "OracleContract",
  "abi": [
    {
      "inputs": [
        {
          "internalType": "address",
          "name": "_registryContract",
          "type": "address"
        }
      ],
      "stateMutability": "nonpayable",
      "type": "constructor"
    },
    {
      "anonymous": false,
      "inputs": [],
      "name": "ValidationBegin",
      "type": "event"
    },
    {
      "anonymous": false,
      "inputs": [
        {
          "indexed": false,
          "internalType": "enum OracleContract.ValidationType",
          "name": "typ",
          "type": "uint8"
        },
        {
          "indexed": true,
          "internalType": "address",
          "name": "from",
          "type": "address"
        },
        {
          "indexed": false,
          "internalType": "bytes32",
          "name": "hash",
          "type": "bytes32"
        }
      ],
      "name": "ValidationRequest",
      "type": "event"
    },
    {
      "anonymous": false,
      "inputs": [
        {
          "indexed": false,
          "internalType": "enum OracleContract.ValidationType",
          "name": "typ",
          "type": "uint8"
        },
        {
          "indexed": true,
          "internalType": "address",
          "name": "aggregator",
          "type": "address"
        },
        {
          "indexed": false,
          "internalType": "bytes32",
          "name": "hash",
          "type": "bytes32"
        },
        {
          "indexed": false,
          "internalType": "bool",
          "name": "valid",
          "type": "bool"
        },
        {
          "indexed": false,
          "internalType": "uint256",
          "name": "fee",
          "type": "uint256"
        }
      ],
      "name": "ValidationResponse",
      "type": "event"
    },
    {
      "inputs": [],
      "name": "BASE_FEE",
      "outputs": [
        {
          "internalType": "uint256",
          "name": "",
          "type": "uint256"
        }
      ],
      "stateMutability": "view",
      "type": "function",
      "constant": true
    },
    {
      "inputs": [],
      "name": "CHANLLENGE_FEE",
      "outputs": [
        {
          "internalType": "uint256",
          "name": "",
          "type": "uint256"
        }
      ],
      "stateMutability": "view",
      "type": "function",
      "constant": true
    },
    {
      "inputs": [],
      "name": "COMPENSATION_FEE",
      "outputs": [
        {
          "internalType": "uint256",
          "name": "",
          "type": "uint256"
        }
      ],
      "stateMutability": "view",
      "type": "function",
      "constant": true
    },
    {
      "inputs": [],
      "name": "TOTAL_FEE",
      "outputs": [
        {
          "internalType": "uint256",
          "name": "",
          "type": "uint256"
        }
      ],
      "stateMutability": "view",
      "type": "function",
      "constant": true
    },
    {
      "inputs": [],
      "name": "VALIDATOR_FEE",
      "outputs": [
        {
          "internalType": "uint256",
          "name": "",
          "type": "uint256"
        }
      ],
      "stateMutability": "view",
      "type": "function",
      "constant": true
    },
    {
      "inputs": [
        {
          "internalType": "bytes32",
          "name": "_hash",
          "type": "bytes32"
        }
      ],
      "name": "validateBlock",
      "outputs": [],
      "stateMutability": "payable",
      "type": "function",
      "payable": true
    },
    {
      "inputs": [
        {
          "internalType": "bytes32",
          "name": "_hash",
          "type": "bytes32"
        }
      ],
      "name": "validateTransaction",
      "outputs": [],
      "stateMutability": "payable",
      "type": "function",
      "payable": true
    },
    {
      "inputs": [
        {
          "internalType": "bool",
          "name": "_result",
          "type": "bool"
        },
        {
          "internalType": "bytes32",
          "name": "message",
          "type": "bytes32"
        },
        {
          "internalType": "uint256",
          "name": "signature",
          "type": "uint256"
        },
        {
          "internalType": "uint256",
          "name": "pubKeyX",
          "type": "uint256"
        },
        {
          "internalType": "uint256",
          "name": "pubKeyY",
          "type": "uint256"
        },
        {
          "internalType": "uint256",
          "name": "RX",
          "type": "uint256"
        },
        {
          "internalType": "uint256",
          "name": "RY",
          "type": "uint256"
        },
        {
          "internalType": "uint256",
          "name": "_hash",
          "type": "uint256"
        }
      ],
      "name": "submitBlockValidationResult",
      "outputs": [],
      "stateMutability": "nonpayable",
      "type": "function"
    },
    {
      "inputs": [
        {
          "internalType": "bool",
          "name": "_result",
          "type": "bool"
        },
        {
          "internalType": "bytes32",
          "name": "message",
          "type": "bytes32"
        },
        {
          "internalType": "uint256",
          "name": "signature",
          "type": "uint256"
        },
        {
          "internalType": "uint256",
          "name": "pubKeyX",
          "type": "uint256"
        },
        {
          "internalType": "uint256",
          "name": "pubKeyY",
          "type": "uint256"
        },
        {
          "internalType": "uint256",
          "name": "RX",
          "type": "uint256"
        },
        {
          "internalType": "uint256",
          "name": "RY",
          "type": "uint256"
        },
        {
          "internalType": "uint256",
          "name": "_hash",
          "type": "uint256"
        }
      ],
      "name": "submitTransactionValidationResult",
      "outputs": [],
      "stateMutability": "nonpayable",
      "type": "function"
    },
    {
      "inputs": [],
      "name": "chanllenge",
      "outputs": [],
      "stateMutability": "payable",
      "type": "function",
      "payable": true
    },
    {
      "inputs": [],
      "name": "fine",
      "outputs": [],
      "stateMutability": "payable",
      "type": "function",
      "payable": true
    },
    {
      "inputs": [],
      "name": "EnrollOracleNode",
      "outputs": [],
      "stateMutability": "payable",
      "type": "function",
      "payable": true
    },
    {
      "inputs": [
        {
          "internalType": "address",
          "name": "_addr",
          "type": "address"
        }
      ],
      "name": "oracleNodeIsEnroll",
      "outputs": [
        {
          "internalType": "bool",
          "name": "",
          "type": "bool"
        }
      ],
      "stateMutability": "view",
      "type": "function",
      "constant": true
    },
    {
      "inputs": [
        {
          "internalType": "uint256",
          "name": "_index",
          "type": "uint256"
        }
      ],
      "name": "findEnrollNodeByIndex",
      "outputs": [
        {
          "components": [
            {
              "internalType": "address",
              "name": "addr",
              "type": "address"
            },
            {
              "internalType": "uint256",
              "name": "index",
              "type": "uint256"
            }
          ],
          "internalType": "struct OracleContract.EnrollNode",
          "name": "",
          "type": "tuple"
        }
      ],
      "stateMutability": "view",
      "type": "function",
      "constant": true
    },
    {
      "inputs": [],
      "name": "countEnrollNodes",
      "outputs": [
        {
          "internalType": "uint256",
          "name": "",
          "type": "uint256"
        }
      ],
      "stateMutability": "view",
      "type": "function",
      "constant": true
    },
    {
      "inputs": [
        {
          "internalType": "bytes32",
          "name": "_hash",
          "type": "bytes32"
        }
      ],
      "name": "findBlockValidationResult",
      "outputs": [
        {
          "internalType": "bool",
          "name": "",
          "type": "bool"
        }
      ],
      "stateMutability": "view",
      "type": "function",
      "constant": true
    },
    {
      "inputs": [
        {
          "internalType": "bytes32",
          "name": "_hash",
          "type": "bytes32"
        }
      ],
      "name": "findTransactionValidationResult",
      "outputs": [
        {
          "internalType": "bool",
          "name": "",
          "type": "bool"
        }
      ],
      "stateMutability": "view",
      "type": "function",
      "constant": true
    }
  ],
  "bytecode": "0x60806040523480156200001157600080fd5b5060405162001f5338038062001f538339818101604052810190620000379190620000e9565b80600660006101000a81548173ffffffffffffffffffffffffffffffffffffffff021916908373ffffffffffffffffffffffffffffffffffffffff160217905550506200011b565b600080fd5b600073ffffffffffffffffffffffffffffffffffffffff82169050919050565b6000620000b18262000084565b9050919050565b620000c381620000a4565b8114620000cf57600080fd5b50565b600081519050620000e381620000b8565b92915050565b6000602082840312156200010257620001016200007f565b5b60006200011284828501620000d2565b91505092915050565b611e28806200012b6000396000f3fe6080604052600436106100fe5760003560e01c80637e985fd011610095578063cf21c29311610064578063cf21c293146102ea578063cf88d42d146102f4578063dd5e22df1461031d578063e92c04d114610339578063fc769ee914610376576100fe565b80637e985fd01461022e578063a2ff2ad71461026b578063ab3be84014610296578063b60c18b4146102c1576100fe565b806343434590116100d15780634343459014610191578063460e99f4146101ce57806363db7eae146101d85780637da83e2b14610203576100fe565b806312f1e8f414610103578063344829c81461010d5780633d18651e146101295780633d27ef9714610154575b600080fd5b61010b6103a1565b005b610127600480360381019061012291906111b4565b6107a8565b005b34801561013557600080fd5b5061013e610865565b60405161014b91906111fa565b60405180910390f35b34801561016057600080fd5b5061017b600480360381019061017691906111b4565b610870565b6040516101889190611230565b60405180910390f35b34801561019d57600080fd5b506101b860048036038101906101b391906111b4565b61089a565b6040516101c59190611230565b60405180910390f35b6101d66108c4565b005b3480156101e457600080fd5b506101ed6109cc565b6040516101fa91906111fa565b60405180910390f35b34801561020f57600080fd5b506102186109f4565b60405161022591906111fa565b60405180910390f35b34801561023a57600080fd5b5061025560048036038101906102509190611277565b6109fe565b6040516102629190611323565b60405180910390f35b34801561027757600080fd5b50610280610b49565b60405161028d91906111fa565b60405180910390f35b3480156102a257600080fd5b506102ab610b53565b6040516102b891906111fa565b60405180910390f35b3480156102cd57600080fd5b506102e860048036038101906102e3919061136a565b610b5e565b005b6102f2610b7a565b005b34801561030057600080fd5b5061031b6004803603810190610316919061136a565b610cdd565b005b610337600480360381019061033291906111b4565b610cf9565b005b34801561034557600080fd5b50610360600480360381019061035b919061144c565b610db6565b60405161036d9190611230565b60405180910390f35b34801561038257600080fd5b5061038b610e84565b60405161039891906111fa565b60405180910390f35b6002600660009054906101000a900473ffffffffffffffffffffffffffffffffffffffff1673ffffffffffffffffffffffffffffffffffffffff1663836f187a6040518163ffffffff1660e01b8152600401602060405180830381865afa158015610410573d6000803e3d6000fd5b505050506040513d601f19601f82011682018060405250810190610434919061148e565b61043e9190611519565b6005805490501115610485576040517f08c379a000000000000000000000000000000000000000000000000000000000815260040161047c906115a7565b60405180910390fd5b600660009054906101000a900473ffffffffffffffffffffffffffffffffffffffff1673ffffffffffffffffffffffffffffffffffffffff1663140f3daa336040518263ffffffff1660e01b81526004016104e091906115d6565b602060405180830381865afa1580156104fd573d6000803e3d6000fd5b505050506040513d601f19601f820116820180604052508101906105219190611606565b610560576040517f08c379a00000000000000000000000000000000000000000000000000000000081526004016105579061167f565b60405180910390fd5b61056933610db6565b156105a9576040517f08c379a00000000000000000000000000000000000000000000000000000000081526004016105a0906116eb565b60405180910390fd5b6000600460003373ffffffffffffffffffffffffffffffffffffffff1673ffffffffffffffffffffffffffffffffffffffff1681526020019081526020016000209050338160000160006101000a81548173ffffffffffffffffffffffffffffffffffffffff021916908373ffffffffffffffffffffffffffffffffffffffff160217905550600580549050816001018190555060058160000160009054906101000a900473ffffffffffffffffffffffffffffffffffffffff169080600181540180825580915050600190039060005260206000200160009091909190916101000a81548173ffffffffffffffffffffffffffffffffffffffff021916908373ffffffffffffffffffffffffffffffffffffffff16021790555060016002600660009054906101000a900473ffffffffffffffffffffffffffffffffffffffff1673ffffffffffffffffffffffffffffffffffffffff1663836f187a6040518163ffffffff1660e01b8152600401602060405180830381865afa158015610735573d6000803e3d6000fd5b505050506040513d601f19601f82011682018060405250810190610759919061148e565b6107639190611519565b61076d919061170b565b600580549050036107a5577f8e00f41384bb0046e201ec383e79140e9a0484a5db044984cbd072e4fbe6d7e260405160405180910390a15b50565b6064655af3107a40006107bb919061173f565b66038d7ea4c680006107cd919061170b565b80341015610810576040517f08c379a0000000000000000000000000000000000000000000000000000000008152600401610807906117cd565b60405180910390fd5b3373ffffffffffffffffffffffffffffffffffffffff167f3706933cbfd265e74e347f4c40263753cecc292080a1bfd0e9fd6ce994c08396600284604051610859929190611873565b60405180910390a25050565b66038d7ea4c6800081565b60006002600083815260200190815260200160002060009054906101000a900460ff169050919050565b60006003600083815260200190815260200160002060009054906101000a900460ff169050919050565b6000600660009054906101000a900473ffffffffffffffffffffffffffffffffffffffff1673ffffffffffffffffffffffffffffffffffffffff16633ad59dbc6040518163ffffffff1660e01b8152600401600060405180830381865afa158015610933573d6000803e3d6000fd5b505050506040513d6000823e3d601f19601f8201168201806040525081019061095c9190611b81565b9050655af3107a40008160600151116109aa576040517f08c379a00000000000000000000000000000000000000000000000000000000081526004016109a190611c16565b60405180910390fd5b655af3107a400081606001516109c09190611c36565b81606001818152505050565b6064655af3107a40006109df919061173f565b66038d7ea4c680006109f1919061170b565b81565b655af3107a400081565b610a066110fc565b60008210158015610a1b575060058054905082105b610a5a576040517f08c379a0000000000000000000000000000000000000000000000000000000008152600401610a5190611cb6565b60405180910390fd5b6004600060058481548110610a7257610a71611cd6565b5b9060005260206000200160009054906101000a900473ffffffffffffffffffffffffffffffffffffffff1673ffffffffffffffffffffffffffffffffffffffff1673ffffffffffffffffffffffffffffffffffffffff1681526020019081526020016000206040518060400160405290816000820160009054906101000a900473ffffffffffffffffffffffffffffffffffffffff1673ffffffffffffffffffffffffffffffffffffffff1673ffffffffffffffffffffffffffffffffffffffff1681526020016001820154815250509050919050565b655af3107a400081565b66038d7ea4c6800081565b610b7060028989898989898989610e91565b5050505050505050565b6000600660009054906101000a900473ffffffffffffffffffffffffffffffffffffffff1673ffffffffffffffffffffffffffffffffffffffff1663655a102f336040518263ffffffff1660e01b8152600401610bd791906115d6565b600060405180830381865afa158015610bf4573d6000803e3d6000fd5b505050506040513d6000823e3d601f19601f82011682018060405250810190610c1d9190611b81565b905066038d7ea4c68000816060015111610c6c576040517f08c379a0000000000000000000000000000000000000000000000000000000008152600401610c6390611c16565b60405180910390fd5b66038d7ea4c680008160600151610c839190611c36565b8160600181815250503373ffffffffffffffffffffffffffffffffffffffff166108fc66038d7ea4c680009081150290604051600060405180830381858888f19350505050158015610cd9573d6000803e3d6000fd5b5050565b610cef60018989898989898989610e91565b5050505050505050565b6064655af3107a4000610d0c919061173f565b66038d7ea4c68000610d1e919061170b565b80341015610d61576040517f08c379a0000000000000000000000000000000000000000000000000000000008152600401610d58906117cd565b60405180910390fd5b3373ffffffffffffffffffffffffffffffffffffffff167f3706933cbfd265e74e347f4c40263753cecc292080a1bfd0e9fd6ce994c08396600184604051610daa929190611873565b60405180910390a25050565b60008060058054905003610dcd5760009050610e7f565b8173ffffffffffffffffffffffffffffffffffffffff166005600460008573ffffffffffffffffffffffffffffffffffffffff1673ffffffffffffffffffffffffffffffffffffffff1681526020019081526020016000206001015481548110610e3a57610e39611cd6565b5b9060005260206000200160009054906101000a900473ffffffffffffffffffffffffffffffffffffffff1673ffffffffffffffffffffffffffffffffffffffff161490505b919050565b6000600580549050905090565b60006002811115610ea557610ea46117ed565b5b896002811115610eb857610eb76117ed565b5b03610ef8576040517f08c379a0000000000000000000000000000000000000000000000000000000008152600401610eef90611d51565b60405180910390fd5b60056000610f06919061112c565b60005b6005805490508163ffffffff161015610fc05760058163ffffffff1681548110610f3657610f35611cd6565b5b9060005260206000200160009054906101000a900473ffffffffffffffffffffffffffffffffffffffff1673ffffffffffffffffffffffffffffffffffffffff166108fc655af3107a40009081150290604051600060405180830381858888f19350505050158015610fac573d6000803e3d6000fd5b508080610fb890611d81565b915050610f09565b5060016002811115610fd557610fd46117ed565b5b896002811115610fe857610fe76117ed565b5b0361101d57876002600089815260200190815260200160002060006101000a81548160ff021916908315150217905550611075565b6002808111156110305761102f6117ed565b5b896002811115611043576110426117ed565b5b0361107457876003600089815260200190815260200160002060006101000a81548160ff0219169083151502179055505b5b3373ffffffffffffffffffffffffffffffffffffffff167f9739d27192db56a131c86c297677afccac89aa4f39cbc5bcd62a8d10ce5596758a898b600580549050655af3107a40006110c7919061173f565b66038d7ea4c680006110d9919061170b565b6040516110e99493929190611dad565b60405180910390a2505050505050505050565b6040518060400160405280600073ffffffffffffffffffffffffffffffffffffffff168152602001600081525090565b508054600082559060005260206000209081019061114a919061114d565b50565b5b8082111561116657600081600090555060010161114e565b5090565b6000604051905090565b600080fd5b600080fd5b6000819050919050565b6111918161117e565b811461119c57600080fd5b50565b6000813590506111ae81611188565b92915050565b6000602082840312156111ca576111c9611174565b5b60006111d88482850161119f565b91505092915050565b6000819050919050565b6111f4816111e1565b82525050565b600060208201905061120f60008301846111eb565b92915050565b60008115159050919050565b61122a81611215565b82525050565b60006020820190506112456000830184611221565b92915050565b611254816111e1565b811461125f57600080fd5b50565b6000813590506112718161124b565b92915050565b60006020828403121561128d5761128c611174565b5b600061129b84828501611262565b91505092915050565b600073ffffffffffffffffffffffffffffffffffffffff82169050919050565b60006112cf826112a4565b9050919050565b6112df816112c4565b82525050565b6112ee816111e1565b82525050565b60408201600082015161130a60008501826112d6565b50602082015161131d60208501826112e5565b50505050565b600060408201905061133860008301846112f4565b92915050565b61134781611215565b811461135257600080fd5b50565b6000813590506113648161133e565b92915050565b600080600080600080600080610100898b03121561138b5761138a611174565b5b60006113998b828c01611355565b98505060206113aa8b828c0161119f565b97505060406113bb8b828c01611262565b96505060606113cc8b828c01611262565b95505060806113dd8b828c01611262565b94505060a06113ee8b828c01611262565b93505060c06113ff8b828c01611262565b92505060e06114108b828c01611262565b9150509295985092959890939650565b611429816112c4565b811461143457600080fd5b50565b60008135905061144681611420565b92915050565b60006020828403121561146257611461611174565b5b600061147084828501611437565b91505092915050565b6000815190506114888161124b565b92915050565b6000602082840312156114a4576114a3611174565b5b60006114b284828501611479565b91505092915050565b7f4e487b7100000000000000000000000000000000000000000000000000000000600052601260045260246000fd5b7f4e487b7100000000000000000000000000000000000000000000000000000000600052601160045260246000fd5b6000611524826111e1565b915061152f836111e1565b92508261153f5761153e6114bb565b5b828204905092915050565b600082825260208201905092915050565b7f456e726f6c6c6d656e7420636c6f736564210000000000000000000000000000600082015250565b600061159160128361154a565b915061159c8261155b565b602082019050919050565b600060208201905081810360008301526115c081611584565b9050919050565b6115d0816112c4565b82525050565b60006020820190506115eb60008301846115c7565b92915050565b6000815190506116008161133e565b92915050565b60006020828403121561161c5761161b611174565b5b600061162a848285016115f1565b91505092915050565b7f546865204f7261636c6520646f65736e27742072656769737465726564000000600082015250565b6000611669601d8361154a565b915061167482611633565b602082019050919050565b600060208201905081810360008301526116988161165c565b9050919050565b7f616c726561647920656e726f6c6c656400000000000000000000000000000000600082015250565b60006116d560108361154a565b91506116e08261169f565b602082019050919050565b60006020820190508181036000830152611704816116c8565b9050919050565b6000611716826111e1565b9150611721836111e1565b9250828201905080821115611739576117386114ea565b5b92915050565b600061174a826111e1565b9150611755836111e1565b9250828202611763816111e1565b9150828204841483151761177a576117796114ea565b5b5092915050565b7f746f6f206665772066656520616d6f756e740000000000000000000000000000600082015250565b60006117b760128361154a565b91506117c282611781565b602082019050919050565b600060208201905081810360008301526117e6816117aa565b9050919050565b7f4e487b7100000000000000000000000000000000000000000000000000000000600052602160045260246000fd5b6003811061182d5761182c6117ed565b5b50565b600081905061183e8261181c565b919050565b600061184e82611830565b9050919050565b61185e81611843565b82525050565b61186d8161117e565b82525050565b60006040820190506118886000830185611855565b6118956020830184611864565b9392505050565b600080fd5b6000601f19601f8301169050919050565b7f4e487b7100000000000000000000000000000000000000000000000000000000600052604160045260246000fd5b6118ea826118a1565b810181811067ffffffffffffffff82111715611909576119086118b2565b5b80604052505050565b600061191c61116a565b905061192882826118e1565b919050565b600080fd5b60008151905061194181611420565b92915050565b600080fd5b600080fd5b600067ffffffffffffffff82111561196c5761196b6118b2565b5b611975826118a1565b9050602081019050919050565b60005b838110156119a0578082015181840152602081019050611985565b60008484015250505050565b60006119bf6119ba84611951565b611912565b9050828152602081018484840111156119db576119da61194c565b5b6119e6848285611982565b509392505050565b600082601f830112611a0357611a02611947565b5b8151611a138482602086016119ac565b91505092915050565b600067ffffffffffffffff821115611a3757611a366118b2565b5b611a40826118a1565b9050602081019050919050565b6000611a60611a5b84611a1c565b611912565b905082815260208101848484011115611a7c57611a7b61194c565b5b611a87848285611982565b509392505050565b600082601f830112611aa457611aa3611947565b5b8151611ab4848260208601611a4d565b91505092915050565b600060a08284031215611ad357611ad261189c565b5b611add60a0611912565b90506000611aed84828501611932565b600083015250602082015167ffffffffffffffff811115611b1157611b1061192d565b5b611b1d848285016119ee565b602083015250604082015167ffffffffffffffff811115611b4157611b4061192d565b5b611b4d84828501611a8f565b6040830152506060611b6184828501611479565b6060830152506080611b7584828501611479565b60808301525092915050565b600060208284031215611b9757611b96611174565b5b600082015167ffffffffffffffff811115611bb557611bb4611179565b5b611bc184828501611abd565b91505092915050565b7f7374616b6520697320746f6f206c6f7721000000000000000000000000000000600082015250565b6000611c0060118361154a565b9150611c0b82611bca565b602082019050919050565b60006020820190508181036000830152611c2f81611bf3565b9050919050565b6000611c41826111e1565b9150611c4c836111e1565b9250828203905081811115611c6457611c636114ea565b5b92915050565b7f6e6f7420666f756e640000000000000000000000000000000000000000000000600082015250565b6000611ca060098361154a565b9150611cab82611c6a565b602082019050919050565b60006020820190508181036000830152611ccf81611c93565b9050919050565b7f4e487b7100000000000000000000000000000000000000000000000000000000600052603260045260246000fd5b7f756e6b6e6f776e2076616c69646174696f6e2074797065000000000000000000600082015250565b6000611d3b60178361154a565b9150611d4682611d05565b602082019050919050565b60006020820190508181036000830152611d6a81611d2e565b9050919050565b600063ffffffff82169050919050565b6000611d8c82611d71565b915063ffffffff8203611da257611da16114ea565b5b600182019050919050565b6000608082019050611dc26000830187611855565b611dcf6020830186611864565b611ddc6040830185611221565b611de960608301846111eb565b9594505050505056fea2646970667358221220b21aaabf3820e73659a0b00ef209d15537c5327ed286d285393a9e1b400422d064736f6c63430008110033",
  "immutableReferences": {},
  "source": "// SPDX-License-Identifier: MIT\npragma solidity  ^0.8.0;\n\nimport \"./RegistryContract.sol\";\nimport \"./crypto/Schnorr.sol\";\n\ncontract OracleContract {\n    struct EnrollNode {\n        address addr;\n        uint256 index;\n    }\n\n    uint256 public constant BASE_FEE = 0.001 ether;\n\n    // \n    uint256 public constant VALIDATOR_FEE = 0.0001 ether;\n\n    //\n    uint256 public constant CHANLLENGE_FEE = 0.0001 ether;\n\n    // \n    uint256 public constant COMPENSATION_FEE = 0.001 ether;\n\n    uint256 public constant TOTAL_FEE = BASE_FEE + VALIDATOR_FEE * 100;\n\n    uint256 private requestCounter;\n    uint256 private requestsSinceLastPayout;\n\n    mapping(bytes32 => bool) private blockValidationResults;\n    mapping(bytes32 => bool) private txValidationResults;\n    mapping(address => EnrollNode) private enrollNodes;\n    address[] private enrollNodeIndices;\n\n\n    // \n    // event enrollOracleNode(address indexed sender);\n    enum ValidationType { UNKNOWN, BLOCK, TRANSACTION }\n\n    event ValidationRequest(ValidationType typ, address indexed from, bytes32 hash);\n    // indexed\n\n    event ValidationBegin();\n\n    event ValidationResponse(\n        ValidationType typ,\n        address indexed aggregator,   \n        bytes32 hash,\n        bool valid,\n        uint256 fee\n    );\n\n    RegistryContract private registryContract;\n    // Schnorr private schnorr;\n    constructor(address _registryContract) {\n        registryContract = RegistryContract(_registryContract);\n        // schnorr = Schnorr(_schnorr);\n    }\n\n    modifier minFee(uint _min) {\n        require(msg.value >= _min, \"too few fee amount\");\n        _;\n    }\n\n    function validateBlock(bytes32 _hash) external payable minFee(TOTAL_FEE) {\n        emit ValidationRequest(ValidationType.BLOCK, msg.sender, _hash);\n    }\n\n    function validateTransaction(bytes32 _hash) external payable minFee(TOTAL_FEE) {\n        emit ValidationRequest(ValidationType.TRANSACTION, msg.sender, _hash);\n    }\n\n    function submitBlockValidationResult(bool _result, bytes32 message, uint256 signature, uint256 pubKeyX, uint256 pubKeyY, uint256 RX , uint256 RY, uint256 _hash) external {\n        submitValidationResult(ValidationType.BLOCK, _result, message, signature, pubKeyX, pubKeyY, RX, RY, _hash);\n    }\n\n    function submitTransactionValidationResult(bool _result, bytes32 message, uint256 signature, uint256 pubKeyX, uint256 pubKeyY, uint256 RX , uint256 RY, uint256 _hash) external {\n        submitValidationResult(ValidationType.TRANSACTION, _result, message, signature, pubKeyX, pubKeyY, RX, RY, _hash);\n    }\n\n\n    function submitValidationResult(\n        ValidationType _typ,\n        bool _result,  // \n        bytes32 message,\n        uint256 signature, uint256 pubKeyX, uint256 pubKeyY, uint256 RX , uint256 RY, uint256 _hash\n    ) private {\n\n        require(_typ != ValidationType.UNKNOWN, \"unknown validation type\");\n\n        // RegistryContract.OracleNode memory aggregator = registryContract.getAggregator();\n\n        // require(aggregator.addr == msg.sender, \"not the aggregator\");  // \n\n        /******************\n         *Schnorr*\n         ******************/\n\n        // require(Schnorr.verify(signature, pubKeyX, pubKeyY, RX, RY, _hash), \"signature: address does not match\");\n        delete enrollNodeIndices;\n\n        //  \n        // payable(msg.sender).transfer(BASE_FEE);     //\n\n        // \n        for(uint32 i = 0 ; i < enrollNodeIndices.length ; i++){\n            payable(enrollNodeIndices[i]).transfer(VALIDATOR_FEE);\n        }\n        \n        if (_typ == ValidationType.BLOCK) {\n            blockValidationResults[message] = _result;\n        } else if (_typ == ValidationType.TRANSACTION) {\n            txValidationResults[message] = _result;\n        }\n\n        emit ValidationResponse(_typ, msg.sender, message, _result, BASE_FEE + VALIDATOR_FEE * enrollNodeIndices.length );  //  +  * \n    }\n\n    // ,()\n    function chanllenge() public payable {\n        RegistryContract.OracleNode memory aggregator =\n            registryContract.getAggregator();\n        require(aggregator.stake > CHANLLENGE_FEE , \"stake is too low!\");\n        aggregator.stake = aggregator.stake - CHANLLENGE_FEE;\n    }\n    // \n    function fine() public payable {\n        // ()\n        RegistryContract.OracleNode memory oracle =\n            registryContract.findOracleNodeByAddress(msg.sender);\n        require(oracle.stake > COMPENSATION_FEE , \"stake is too low!\");\n\n        oracle.stake = oracle.stake - COMPENSATION_FEE;\n        \n        // ,\n        payable(msg.sender).transfer(COMPENSATION_FEE);\n    }\n\n    // \n    function EnrollOracleNode() external payable{\n        require(enrollNodeIndices.length <= registryContract.countOracleNodes()/2, \"Enrollment closed!\");\n        require(registryContract.oracleNodeIsRegistered(msg.sender) , \"The Oracle doesn't registered\");\n        require(!oracleNodeIsEnroll(msg.sender), \"already enrolled\");\n        EnrollNode storage iopNode = enrollNodes[msg.sender];\n        iopNode.addr = msg.sender;\n        iopNode.index = enrollNodeIndices.length;\n        enrollNodeIndices.push(iopNode.addr);\n        if(enrollNodeIndices.length == registryContract.countOracleNodes()/2 + 1){\n            emit ValidationBegin();\n        }\n    }\n    // \n    function oracleNodeIsEnroll(address _addr) public view returns (bool){\n        if (enrollNodeIndices.length == 0) return false;\n        return (enrollNodeIndices[enrollNodes[_addr].index] == _addr);\n    }\n    // \n    function findEnrollNodeByIndex(uint256 _index)\n        public\n        view\n        returns (EnrollNode memory)\n    {\n        require(_index >= 0 && _index < enrollNodeIndices.length, \"not found\");\n        return enrollNodes[enrollNodeIndices[_index]];\n    }\n    // \n    function countEnrollNodes() external view returns (uint256){\n        return enrollNodeIndices.length;\n    }\n\n    function findBlockValidationResult(bytes32 _hash) public view returns (bool) {\n        return blockValidationResults[_hash];\n    }\n\n    function findTransactionValidationResult(bytes32 _hash) public view returns (bool) {\n        return txValidationResults[_hash];\n    }\n}\n",
  "sourcePath": "/home/indistinguishable/GameBasedOracle/ioporaclecontracts/contracts/OracleContract.sol",
  "compiler": {
    "name": "solc",
    "version": "0.8.17+commit.8df45f5f.Emscripten.clang"
  },
  "schemaVersion": "3.4.11",
  "updatedAt": "2023-03-28T05:30:55.471Z",
  "networkType": "ethereum",
  "devdoc": {
    "kind": "dev",
    "methods": {},
    "version": 1
  },
  "userdoc": {
    "kind": "user",
    "methods": {},
    "version": 1
  }
}