{
  "contractName": "OracleContract",
  "abi": [
    {
      "inputs": [
        {
          "internalType": "address",
          "name": "_registryContract",
          "type": "address"
        }
      ],
      "stateMutability": "nonpayable",
      "type": "constructor"
    },
    {
      "anonymous": false,
      "inputs": [],
      "name": "ValidationBegin",
      "type": "event"
    },
    {
      "anonymous": false,
      "inputs": [
        {
          "indexed": false,
          "internalType": "enum OracleContract.ValidationType",
          "name": "typ",
          "type": "uint8"
        },
        {
          "indexed": true,
          "internalType": "address",
          "name": "from",
          "type": "address"
        },
        {
          "indexed": false,
          "internalType": "bytes32",
          "name": "hash",
          "type": "bytes32"
        }
      ],
      "name": "ValidationRequest",
      "type": "event"
    },
    {
      "anonymous": false,
      "inputs": [
        {
          "indexed": false,
          "internalType": "enum OracleContract.ValidationType",
          "name": "typ",
          "type": "uint8"
        },
        {
          "indexed": true,
          "internalType": "address",
          "name": "aggregator",
          "type": "address"
        },
        {
          "indexed": false,
          "internalType": "bytes32",
          "name": "message",
          "type": "bytes32"
        },
        {
          "indexed": false,
          "internalType": "bool",
          "name": "valid",
          "type": "bool"
        },
        {
          "indexed": false,
          "internalType": "uint256",
          "name": "fee",
          "type": "uint256"
        }
      ],
      "name": "ValidationResponse",
      "type": "event"
    },
    {
      "anonymous": false,
      "inputs": [
        {
          "indexed": false,
          "internalType": "uint256",
          "name": "beginTime",
          "type": "uint256"
        },
        {
          "indexed": false,
          "internalType": "address[]",
          "name": "lazyValidators",
          "type": "address[]"
        }
      ],
      "name": "urgeEvent",
      "type": "event"
    },
    {
      "inputs": [],
      "name": "BASE_FEE",
      "outputs": [
        {
          "internalType": "uint256",
          "name": "",
          "type": "uint256"
        }
      ],
      "stateMutability": "view",
      "type": "function",
      "constant": true
    },
    {
      "inputs": [],
      "name": "COMPENSATION_FEE",
      "outputs": [
        {
          "internalType": "uint256",
          "name": "",
          "type": "uint256"
        }
      ],
      "stateMutability": "view",
      "type": "function",
      "constant": true
    },
    {
      "inputs": [],
      "name": "TOTAL_FEE",
      "outputs": [
        {
          "internalType": "uint256",
          "name": "",
          "type": "uint256"
        }
      ],
      "stateMutability": "view",
      "type": "function",
      "constant": true
    },
    {
      "inputs": [],
      "name": "URGE_FEE",
      "outputs": [
        {
          "internalType": "uint256",
          "name": "",
          "type": "uint256"
        }
      ],
      "stateMutability": "view",
      "type": "function",
      "constant": true
    },
    {
      "inputs": [],
      "name": "VALIDATOR_FEE",
      "outputs": [
        {
          "internalType": "uint256",
          "name": "",
          "type": "uint256"
        }
      ],
      "stateMutability": "view",
      "type": "function",
      "constant": true
    },
    {
      "inputs": [],
      "name": "waitTime",
      "outputs": [
        {
          "internalType": "uint256",
          "name": "",
          "type": "uint256"
        }
      ],
      "stateMutability": "view",
      "type": "function",
      "constant": true
    },
    {
      "inputs": [
        {
          "internalType": "bytes32",
          "name": "_hash",
          "type": "bytes32"
        }
      ],
      "name": "validateBlock",
      "outputs": [],
      "stateMutability": "payable",
      "type": "function",
      "payable": true
    },
    {
      "inputs": [
        {
          "internalType": "bytes32",
          "name": "_hash",
          "type": "bytes32"
        }
      ],
      "name": "validateTransaction",
      "outputs": [],
      "stateMutability": "payable",
      "type": "function",
      "payable": true
    },
    {
      "inputs": [
        {
          "internalType": "bool",
          "name": "_result",
          "type": "bool"
        },
        {
          "internalType": "bytes32",
          "name": "message",
          "type": "bytes32"
        },
        {
          "internalType": "uint256",
          "name": "signature",
          "type": "uint256"
        },
        {
          "internalType": "uint256",
          "name": "pubKeyX",
          "type": "uint256"
        },
        {
          "internalType": "uint256",
          "name": "pubKeyY",
          "type": "uint256"
        },
        {
          "internalType": "uint256",
          "name": "RX",
          "type": "uint256"
        },
        {
          "internalType": "uint256",
          "name": "RY",
          "type": "uint256"
        },
        {
          "internalType": "uint256",
          "name": "_hash",
          "type": "uint256"
        }
      ],
      "name": "submitBlockValidationResult",
      "outputs": [],
      "stateMutability": "nonpayable",
      "type": "function"
    },
    {
      "inputs": [
        {
          "internalType": "bool",
          "name": "_result",
          "type": "bool"
        },
        {
          "internalType": "bytes32",
          "name": "message",
          "type": "bytes32"
        },
        {
          "internalType": "uint256",
          "name": "signature",
          "type": "uint256"
        },
        {
          "internalType": "uint256",
          "name": "pubKeyX",
          "type": "uint256"
        },
        {
          "internalType": "uint256",
          "name": "pubKeyY",
          "type": "uint256"
        },
        {
          "internalType": "uint256",
          "name": "RX",
          "type": "uint256"
        },
        {
          "internalType": "uint256",
          "name": "RY",
          "type": "uint256"
        },
        {
          "internalType": "uint256",
          "name": "_hash",
          "type": "uint256"
        }
      ],
      "name": "submitTransactionValidationResult",
      "outputs": [],
      "stateMutability": "nonpayable",
      "type": "function"
    },
    {
      "inputs": [],
      "name": "EnrollOracleNode",
      "outputs": [],
      "stateMutability": "payable",
      "type": "function",
      "payable": true
    },
    {
      "inputs": [
        {
          "internalType": "address",
          "name": "_addr",
          "type": "address"
        }
      ],
      "name": "oracleNodeIsEnroll",
      "outputs": [
        {
          "internalType": "bool",
          "name": "",
          "type": "bool"
        }
      ],
      "stateMutability": "view",
      "type": "function",
      "constant": true
    },
    {
      "inputs": [
        {
          "internalType": "address[]",
          "name": "lazyValidators",
          "type": "address[]"
        }
      ],
      "name": "urge",
      "outputs": [],
      "stateMutability": "payable",
      "type": "function",
      "payable": true
    },
    {
      "inputs": [],
      "name": "judge",
      "outputs": [],
      "stateMutability": "nonpayable",
      "type": "function"
    },
    {
      "inputs": [
        {
          "internalType": "uint256",
          "name": "provement",
          "type": "uint256"
        }
      ],
      "name": "lazySubmit",
      "outputs": [],
      "stateMutability": "nonpayable",
      "type": "function"
    },
    {
      "inputs": [],
      "name": "getBlockTime",
      "outputs": [
        {
          "internalType": "uint256",
          "name": "",
          "type": "uint256"
        }
      ],
      "stateMutability": "view",
      "type": "function",
      "constant": true
    },
    {
      "inputs": [
        {
          "internalType": "uint256",
          "name": "_index",
          "type": "uint256"
        }
      ],
      "name": "findEnrollNodeByIndex",
      "outputs": [
        {
          "components": [
            {
              "internalType": "address",
              "name": "addr",
              "type": "address"
            },
            {
              "internalType": "uint256",
              "name": "index",
              "type": "uint256"
            }
          ],
          "internalType": "struct OracleContract.EnrollNode",
          "name": "",
          "type": "tuple"
        }
      ],
      "stateMutability": "view",
      "type": "function",
      "constant": true
    },
    {
      "inputs": [],
      "name": "countEnrollNodes",
      "outputs": [
        {
          "internalType": "uint256",
          "name": "",
          "type": "uint256"
        }
      ],
      "stateMutability": "view",
      "type": "function",
      "constant": true
    },
    {
      "inputs": [
        {
          "internalType": "bytes32",
          "name": "_hash",
          "type": "bytes32"
        }
      ],
      "name": "findBlockValidationResult",
      "outputs": [
        {
          "internalType": "bool",
          "name": "",
          "type": "bool"
        }
      ],
      "stateMutability": "view",
      "type": "function",
      "constant": true
    },
    {
      "inputs": [
        {
          "internalType": "bytes32",
          "name": "_hash",
          "type": "bytes32"
        }
      ],
      "name": "findTransactionValidationResult",
      "outputs": [
        {
          "internalType": "bool",
          "name": "",
          "type": "bool"
        }
      ],
      "stateMutability": "view",
      "type": "function",
      "constant": true
    }
  ],
  "bytecode": "0x608060405260008060006101000a81548160ff02191690831515021790555060008060016101000a81548160ff0219169083151502179055503480156200004557600080fd5b5060405162002e3f38038062002e3f83398181016040528101906200006b91906200011d565b80600860006101000a81548173ffffffffffffffffffffffffffffffffffffffff021916908373ffffffffffffffffffffffffffffffffffffffff160217905550506200014f565b600080fd5b600073ffffffffffffffffffffffffffffffffffffffff82169050919050565b6000620000e582620000b8565b9050919050565b620000f781620000d8565b81146200010357600080fd5b50565b6000815190506200011781620000ec565b92915050565b600060208284031215620001365762000135620000b3565b5b6000620001468482850162000106565b91505092915050565b612ce0806200015f6000396000f3fe60806040526004361061011f5760003560e01c80637e985fd0116100a0578063ccca123b11610064578063ccca123b14610388578063cf88d42d146103b3578063dd5e22df146103dc578063e92c04d1146103f8578063fc769ee9146104355761011f565b80637e985fd0146102a157806387ceff09146102de578063ab35307914610309578063ab3be84014610334578063b60c18b41461035f5761011f565b806343434590116100e757806343434590146101ce5780634cc186881461020b578063573255f41461023457806363db7eae1461024b5780637da83e2b146102765761011f565b806312f1e8f414610124578063344829c81461012e5780633d18651e1461014a5780633d27ef97146101755780633f6a97e7146101b2575b600080fd5b61012c610460565b005b61014860048036038101906101439190611a86565b610867565b005b34801561015657600080fd5b5061015f61098c565b60405161016c9190611acc565b60405180910390f35b34801561018157600080fd5b5061019c60048036038101906101979190611a86565b610997565b6040516101a99190611b02565b60405180910390f35b6101cc60048036038101906101c79190611b82565b6109c1565b005b3480156101da57600080fd5b506101f560048036038101906101f09190611a86565b610d05565b6040516102029190611b02565b60405180910390f35b34801561021757600080fd5b50610232600480360381019061022d9190611bfb565b610d2f565b005b34801561024057600080fd5b50610249610eda565b005b34801561025757600080fd5b5061026061109d565b60405161026d9190611acc565b60405180910390f35b34801561028257600080fd5b5061028b6110c5565b6040516102989190611acc565b60405180910390f35b3480156102ad57600080fd5b506102c860048036038101906102c39190611bfb565b6110cf565b6040516102d59190611ca7565b60405180910390f35b3480156102ea57600080fd5b506102f361121a565b6040516103009190611acc565b60405180910390f35b34801561031557600080fd5b5061031e611222565b60405161032b9190611acc565b60405180910390f35b34801561034057600080fd5b5061034961122c565b6040516103569190611acc565b60405180910390f35b34801561036b57600080fd5b5061038660048036038101906103819190611cee565b611237565b005b34801561039457600080fd5b5061039d61126d565b6040516103aa9190611acc565b60405180910390f35b3480156103bf57600080fd5b506103da60048036038101906103d59190611cee565b611272565b005b6103f660048036038101906103f19190611a86565b6112a8565b005b34801561040457600080fd5b5061041f600480360381019061041a9190611dd0565b6113cd565b60405161042c9190611b02565b60405180910390f35b34801561044157600080fd5b5061044a61149b565b6040516104579190611acc565b60405180910390f35b6002600860009054906101000a900473ffffffffffffffffffffffffffffffffffffffff1673ffffffffffffffffffffffffffffffffffffffff1663836f187a6040518163ffffffff1660e01b8152600401602060405180830381865afa1580156104cf573d6000803e3d6000fd5b505050506040513d601f19601f820116820180604052508101906104f39190611e12565b6104fd9190611e9d565b6007805490501115610544576040517f08c379a000000000000000000000000000000000000000000000000000000000815260040161053b90611f2b565b60405180910390fd5b600860009054906101000a900473ffffffffffffffffffffffffffffffffffffffff1673ffffffffffffffffffffffffffffffffffffffff1663140f3daa336040518263ffffffff1660e01b815260040161059f9190611f5a565b602060405180830381865afa1580156105bc573d6000803e3d6000fd5b505050506040513d601f19601f820116820180604052508101906105e09190611f8a565b61061f576040517f08c379a000000000000000000000000000000000000000000000000000000000815260040161061690612003565b60405180910390fd5b610628336113cd565b15610668576040517f08c379a000000000000000000000000000000000000000000000000000000000815260040161065f9061206f565b60405180910390fd5b6000600660003373ffffffffffffffffffffffffffffffffffffffff1673ffffffffffffffffffffffffffffffffffffffff1681526020019081526020016000209050338160000160006101000a81548173ffffffffffffffffffffffffffffffffffffffff021916908373ffffffffffffffffffffffffffffffffffffffff160217905550600780549050816001018190555060078160000160009054906101000a900473ffffffffffffffffffffffffffffffffffffffff169080600181540180825580915050600190039060005260206000200160009091909190916101000a81548173ffffffffffffffffffffffffffffffffffffffff021916908373ffffffffffffffffffffffffffffffffffffffff16021790555060016002600860009054906101000a900473ffffffffffffffffffffffffffffffffffffffff1673ffffffffffffffffffffffffffffffffffffffff1663836f187a6040518163ffffffff1660e01b8152600401602060405180830381865afa1580156107f4573d6000803e3d6000fd5b505050506040513d601f19601f820116820180604052508101906108189190611e12565b6108229190611e9d565b61082c919061208f565b60078054905003610864577f8e00f41384bb0046e201ec383e79140e9a0484a5db044984cbd072e4fbe6d7e260405160405180910390a15b50565b6064655af3107a400061087a91906120c3565b66038d7ea4c6800061088c919061208f565b803410156108cf576040517f08c379a00000000000000000000000000000000000000000000000000000000081526004016108c690612151565b60405180910390fd5b60008054906101000a900460ff161561091d576040517f08c379a0000000000000000000000000000000000000000000000000000000008152600401610914906121bd565b60405180910390fd5b60016000806101000a81548160ff0219169083151502179055503373ffffffffffffffffffffffffffffffffffffffff167f3706933cbfd265e74e347f4c40263753cecc292080a1bfd0e9fd6ce994c08396600284604051610980929190612263565b60405180910390a25050565b66038d7ea4c6800081565b60006004600083815260200190815260200160002060009054906101000a900460ff169050919050565b6000600860009054906101000a900473ffffffffffffffffffffffffffffffffffffffff1673ffffffffffffffffffffffffffffffffffffffff16633ad59dbc6040518163ffffffff1660e01b8152600401600060405180830381865afa158015610a30573d6000803e3d6000fd5b505050506040513d6000823e3d601f19601f82011682018060405250810190610a59919061256c565b90503373ffffffffffffffffffffffffffffffffffffffff16816000015173ffffffffffffffffffffffffffffffffffffffff1614610acd576040517f08c379a0000000000000000000000000000000000000000000000000000000008152600401610ac490612601565b60405180910390fd5b60008054906101000a900460ff16610b1a576040517f08c379a0000000000000000000000000000000000000000000000000000000008152600401610b119061266d565b60405180910390fd5b600060019054906101000a900460ff1615610b6a576040517f08c379a0000000000000000000000000000000000000000000000000000000008152600401610b61906126d9565b60405180910390fd5b6001600060016101000a81548160ff021916908315150217905550610b8d61121a565b60018190555060005b838390508160ff161015610cc35760006002600086868560ff16818110610bc057610bbf6126f9565b5b9050602002016020810190610bd59190611dd0565b73ffffffffffffffffffffffffffffffffffffffff1673ffffffffffffffffffffffffffffffffffffffff16815260200190815260200160002060009054906101000a900460ff169050819050600385858460ff16818110610c3a57610c396126f9565b5b9050602002016020810190610c4f9190611dd0565b9080600181540180825580915050600190039060005260206000200160009091909190916101000a81548173ffffffffffffffffffffffffffffffffffffffff021916908373ffffffffffffffffffffffffffffffffffffffff160217905550508080610cbb90612735565b915050610b96565b507f36f6fc8369ccf7caf98fc124c7063bf2ce83ee0dafe362af30eab6000f2b950f6001546003604051610cf8929190612873565b60405180910390a1505050565b60006005600083815260200190815260200160002060009054906101000a900460ff169050919050565b3373ffffffffffffffffffffffffffffffffffffffff166003600260003373ffffffffffffffffffffffffffffffffffffffff1673ffffffffffffffffffffffffffffffffffffffff16815260200190815260200160002060009054906101000a900460ff1660ff1681548110610da957610da86126f9565b5b9060005260206000200160009054906101000a900473ffffffffffffffffffffffffffffffffffffffff1673ffffffffffffffffffffffffffffffffffffffff1614610e2a576040517f08c379a0000000000000000000000000000000000000000000000000000000008152600401610e21906128ef565b60405180910390fd5b60006003600260003373ffffffffffffffffffffffffffffffffffffffff1673ffffffffffffffffffffffffffffffffffffffff16815260200190815260200160002060009054906101000a900460ff1660ff1681548110610e8f57610e8e6126f9565b5b9060005260206000200160006101000a81548173ffffffffffffffffffffffffffffffffffffffff021916908373ffffffffffffffffffffffffffffffffffffffff16021790555050565b6000600860009054906101000a900473ffffffffffffffffffffffffffffffffffffffff1673ffffffffffffffffffffffffffffffffffffffff16633ad59dbc6040518163ffffffff1660e01b8152600401600060405180830381865afa158015610f49573d6000803e3d6000fd5b505050506040513d6000823e3d601f19601f82011682018060405250810190610f72919061256c565b90503373ffffffffffffffffffffffffffffffffffffffff16816000015173ffffffffffffffffffffffffffffffffffffffff1614610fe6576040517f08c379a0000000000000000000000000000000000000000000000000000000008152600401610fdd90612601565b60405180910390fd5b600060019054906101000a900460ff16611035576040517f08c379a000000000000000000000000000000000000000000000000000000000815260040161102c9061295b565b60405180910390fd5b61103d61121a565b601e60015461104c919061208f565b1061108c576040517f08c379a0000000000000000000000000000000000000000000000000000000008152600401611083906129c7565b60405180910390fd5b6003600061109a9190611992565b50565b6064655af3107a40006110b091906120c3565b66038d7ea4c680006110c2919061208f565b81565b655af3107a400081565b6110d76119b3565b600082101580156110ec575060078054905082105b61112b576040517f08c379a000000000000000000000000000000000000000000000000000000000815260040161112290612a33565b60405180910390fd5b6006600060078481548110611143576111426126f9565b5b9060005260206000200160009054906101000a900473ffffffffffffffffffffffffffffffffffffffff1673ffffffffffffffffffffffffffffffffffffffff1673ffffffffffffffffffffffffffffffffffffffff1681526020019081526020016000206040518060400160405290816000820160009054906101000a900473ffffffffffffffffffffffffffffffffffffffff1673ffffffffffffffffffffffffffffffffffffffff1673ffffffffffffffffffffffffffffffffffffffff1681526020016001820154815250509050919050565b600042905090565b655af3107a400081565b66038d7ea4c6800081565b611249600289898989898989896114a8565b60008060006101000a81548160ff0219169083151502179055505050505050505050565b601e81565b611284600189898989898989896114a8565b60008060006101000a81548160ff0219169083151502179055505050505050505050565b6064655af3107a40006112bb91906120c3565b66038d7ea4c680006112cd919061208f565b80341015611310576040517f08c379a000000000000000000000000000000000000000000000000000000000815260040161130790612151565b60405180910390fd5b60008054906101000a900460ff161561135e576040517f08c379a0000000000000000000000000000000000000000000000000000000008152600401611355906121bd565b60405180910390fd5b60016000806101000a81548160ff0219169083151502179055503373ffffffffffffffffffffffffffffffffffffffff167f3706933cbfd265e74e347f4c40263753cecc292080a1bfd0e9fd6ce994c083966001846040516113c1929190612263565b60405180910390a25050565b600080600780549050036113e45760009050611496565b8173ffffffffffffffffffffffffffffffffffffffff166007600660008573ffffffffffffffffffffffffffffffffffffffff1673ffffffffffffffffffffffffffffffffffffffff1681526020019081526020016000206001015481548110611451576114506126f9565b5b9060005260206000200160009054906101000a900473ffffffffffffffffffffffffffffffffffffffff1673ffffffffffffffffffffffffffffffffffffffff161490505b919050565b6000600780549050905090565b600060028111156114bc576114bb6121dd565b5b8960028111156114cf576114ce6121dd565b5b0361150f576040517f08c379a000000000000000000000000000000000000000000000000000000000815260040161150690612a9f565b60405180910390fd5b61151d868686868686611760565b61155c576040517f08c379a000000000000000000000000000000000000000000000000000000000815260040161155390612b31565b60405180910390fd5b6007600061156a9190611992565b60005b6007805490508163ffffffff1610156116245760078163ffffffff168154811061159a576115996126f9565b5b9060005260206000200160009054906101000a900473ffffffffffffffffffffffffffffffffffffffff1673ffffffffffffffffffffffffffffffffffffffff166108fc655af3107a40009081150290604051600060405180830381858888f19350505050158015611610573d6000803e3d6000fd5b50808061161c90612b61565b91505061156d565b5060016002811115611639576116386121dd565b5b89600281111561164c5761164b6121dd565b5b0361168157876004600089815260200190815260200160002060006101000a81548160ff0219169083151502179055506116d9565b600280811115611694576116936121dd565b5b8960028111156116a7576116a66121dd565b5b036116d857876005600089815260200190815260200160002060006101000a81548160ff0219169083151502179055505b5b3373ffffffffffffffffffffffffffffffffffffffff167f9739d27192db56a131c86c297677afccac89aa4f39cbc5bcd62a8d10ce5596758a898b600780549050655af3107a400061172b91906120c3565b66038d7ea4c6800061173d919061208f565b60405161174d9493929190612b8d565b60405180910390a2505050505050505050565b6000806040518060600160405280600181526020016002815260200189815250905061178a6119e3565b6117938261185e565b826000018360200182815250828152505050600060405180606001604052808a81526020018981526020018681525090506117cc6119e3565b6117d58261185e565b826000018360200182815250828152505050600060405180608001604052808a8152602001898152602001836000015181526020018360200151815250905061181d816118f8565b8360000184602001828152508281525050508160000151846000015114801561184d575081602001518460200151145b955050505050509695505050505050565b600080600061186b6119fd565b60408160608760006007600019f19150816118bb576040517f08c379a00000000000000000000000000000000000000000000000000000000081526004016118b290612c1e565b60405180910390fd5b806000600281106118cf576118ce6126f9565b5b6020020151816001600281106118e8576118e76126f9565b5b6020020151935093505050915091565b60008060006119056119fd565b60408160808760006006600019f1915081611955576040517f08c379a000000000000000000000000000000000000000000000000000000000815260040161194c90612c8a565b60405180910390fd5b80600060028110611969576119686126f9565b5b602002015181600160028110611982576119816126f9565b5b6020020151935093505050915091565b50805460008255906000526020600020908101906119b09190611a1f565b50565b6040518060400160405280600073ffffffffffffffffffffffffffffffffffffffff168152602001600081525090565b604051806040016040528060008152602001600081525090565b6040518060400160405280600290602082028036833780820191505090505090565b5b80821115611a38576000816000905550600101611a20565b5090565b6000604051905090565b600080fd5b600080fd5b6000819050919050565b611a6381611a50565b8114611a6e57600080fd5b50565b600081359050611a8081611a5a565b92915050565b600060208284031215611a9c57611a9b611a46565b5b6000611aaa84828501611a71565b91505092915050565b6000819050919050565b611ac681611ab3565b82525050565b6000602082019050611ae16000830184611abd565b92915050565b60008115159050919050565b611afc81611ae7565b82525050565b6000602082019050611b176000830184611af3565b92915050565b600080fd5b600080fd5b600080fd5b60008083601f840112611b4257611b41611b1d565b5b8235905067ffffffffffffffff811115611b5f57611b5e611b22565b5b602083019150836020820283011115611b7b57611b7a611b27565b5b9250929050565b60008060208385031215611b9957611b98611a46565b5b600083013567ffffffffffffffff811115611bb757611bb6611a4b565b5b611bc385828601611b2c565b92509250509250929050565b611bd881611ab3565b8114611be357600080fd5b50565b600081359050611bf581611bcf565b92915050565b600060208284031215611c1157611c10611a46565b5b6000611c1f84828501611be6565b91505092915050565b600073ffffffffffffffffffffffffffffffffffffffff82169050919050565b6000611c5382611c28565b9050919050565b611c6381611c48565b82525050565b611c7281611ab3565b82525050565b604082016000820151611c8e6000850182611c5a565b506020820151611ca16020850182611c69565b50505050565b6000604082019050611cbc6000830184611c78565b92915050565b611ccb81611ae7565b8114611cd657600080fd5b50565b600081359050611ce881611cc2565b92915050565b600080600080600080600080610100898b031215611d0f57611d0e611a46565b5b6000611d1d8b828c01611cd9565b9850506020611d2e8b828c01611a71565b9750506040611d3f8b828c01611be6565b9650506060611d508b828c01611be6565b9550506080611d618b828c01611be6565b94505060a0611d728b828c01611be6565b93505060c0611d838b828c01611be6565b92505060e0611d948b828c01611be6565b9150509295985092959890939650565b611dad81611c48565b8114611db857600080fd5b50565b600081359050611dca81611da4565b92915050565b600060208284031215611de657611de5611a46565b5b6000611df484828501611dbb565b91505092915050565b600081519050611e0c81611bcf565b92915050565b600060208284031215611e2857611e27611a46565b5b6000611e3684828501611dfd565b91505092915050565b7f4e487b7100000000000000000000000000000000000000000000000000000000600052601260045260246000fd5b7f4e487b7100000000000000000000000000000000000000000000000000000000600052601160045260246000fd5b6000611ea882611ab3565b9150611eb383611ab3565b925082611ec357611ec2611e3f565b5b828204905092915050565b600082825260208201905092915050565b7f456e726f6c6c6d656e7420636c6f736564210000000000000000000000000000600082015250565b6000611f15601283611ece565b9150611f2082611edf565b602082019050919050565b60006020820190508181036000830152611f4481611f08565b9050919050565b611f5481611c48565b82525050565b6000602082019050611f6f6000830184611f4b565b92915050565b600081519050611f8481611cc2565b92915050565b600060208284031215611fa057611f9f611a46565b5b6000611fae84828501611f75565b91505092915050565b7f546865204f7261636c6520646f65736e27742072656769737465726564000000600082015250565b6000611fed601d83611ece565b9150611ff882611fb7565b602082019050919050565b6000602082019050818103600083015261201c81611fe0565b9050919050565b7f616c726561647920656e726f6c6c656400000000000000000000000000000000600082015250565b6000612059601083611ece565b915061206482612023565b602082019050919050565b600060208201905081810360008301526120888161204c565b9050919050565b600061209a82611ab3565b91506120a583611ab3565b92508282019050808211156120bd576120bc611e6e565b5b92915050565b60006120ce82611ab3565b91506120d983611ab3565b92508282026120e781611ab3565b915082820484148315176120fe576120fd611e6e565b5b5092915050565b7f746f6f206665772066656520616d6f756e740000000000000000000000000000600082015250565b600061213b601283611ece565b915061214682612105565b602082019050919050565b6000602082019050818103600083015261216a8161212e565b9050919050565b7f416e6f746865722076616c696461746520697320696e2070726f677265737321600082015250565b60006121a7602083611ece565b91506121b282612171565b602082019050919050565b600060208201905081810360008301526121d68161219a565b9050919050565b7f4e487b7100000000000000000000000000000000000000000000000000000000600052602160045260246000fd5b6003811061221d5761221c6121dd565b5b50565b600081905061222e8261220c565b919050565b600061223e82612220565b9050919050565b61224e81612233565b82525050565b61225d81611a50565b82525050565b60006040820190506122786000830185612245565b6122856020830184612254565b9392505050565b600080fd5b6000601f19601f8301169050919050565b7f4e487b7100000000000000000000000000000000000000000000000000000000600052604160045260246000fd5b6122da82612291565b810181811067ffffffffffffffff821117156122f9576122f86122a2565b5b80604052505050565b600061230c611a3c565b905061231882826122d1565b919050565b600080fd5b60008151905061233181611da4565b92915050565b600080fd5b600067ffffffffffffffff821115612357576123566122a2565b5b61236082612291565b9050602081019050919050565b60005b8381101561238b578082015181840152602081019050612370565b60008484015250505050565b60006123aa6123a58461233c565b612302565b9050828152602081018484840111156123c6576123c5612337565b5b6123d184828561236d565b509392505050565b600082601f8301126123ee576123ed611b1d565b5b81516123fe848260208601612397565b91505092915050565b600067ffffffffffffffff821115612422576124216122a2565b5b61242b82612291565b9050602081019050919050565b600061244b61244684612407565b612302565b90508281526020810184848401111561246757612466612337565b5b61247284828561236d565b509392505050565b600082601f83011261248f5761248e611b1d565b5b815161249f848260208601612438565b91505092915050565b600060a082840312156124be576124bd61228c565b5b6124c860a0612302565b905060006124d884828501612322565b600083015250602082015167ffffffffffffffff8111156124fc576124fb61231d565b5b612508848285016123d9565b602083015250604082015167ffffffffffffffff81111561252c5761252b61231d565b5b6125388482850161247a565b604083015250606061254c84828501611dfd565b606083015250608061256084828501611dfd565b60808301525092915050565b60006020828403121561258257612581611a46565b5b600082015167ffffffffffffffff8111156125a05761259f611a4b565b5b6125ac848285016124a8565b91505092915050565b7f43616c6c6572206973206e6f74207468652061676772656761746f7200000000600082015250565b60006125eb601c83611ece565b91506125f6826125b5565b602082019050919050565b6000602082019050818103600083015261261a816125de565b9050919050565b7f4e6f742076616c69646174652074696d65210000000000000000000000000000600082015250565b6000612657601283611ece565b915061266282612621565b602082019050919050565b600060208201905081810360008301526126868161264a565b9050919050565b7f416c72656164792075726765206c617a7956616c696461746f72730000000000600082015250565b60006126c3601b83611ece565b91506126ce8261268d565b602082019050919050565b600060208201905081810360008301526126f2816126b6565b9050919050565b7f4e487b7100000000000000000000000000000000000000000000000000000000600052603260045260246000fd5b600060ff82169050919050565b600061274082612728565b915060ff820361275357612752611e6e565b5b600182019050919050565b600081549050919050565b600082825260208201905092915050565b60008190508160005260206000209050919050565b600061279b8383611c5a565b60208301905092915050565b60008160001c9050919050565b600073ffffffffffffffffffffffffffffffffffffffff82169050919050565b60006127e76127e2836127a7565b6127b4565b9050919050565b60006127fa82546127d4565b9050919050565b6000600182019050919050565b60006128198261275e565b6128238185612769565b935061282e8361277a565b8060005b8381101561286657612843826127ee565b61284d888261278f565b975061285883612801565b925050600181019050612832565b5085935050505092915050565b60006040820190506128886000830185611abd565b818103602083015261289a818461280e565b90509392505050565b7f4e6f742062652075726765642100000000000000000000000000000000000000600082015250565b60006128d9600d83611ece565b91506128e4826128a3565b602082019050919050565b60006020820190508181036000830152612908816128cc565b9050919050565b7f486176656e27742075726765206c617a7956616c696461746f72000000000000600082015250565b6000612945601a83611ece565b91506129508261290f565b602082019050919050565b6000602082019050818103600083015261297481612938565b9050919050565b7f42652070617469656e7400000000000000000000000000000000000000000000600082015250565b60006129b1600a83611ece565b91506129bc8261297b565b602082019050919050565b600060208201905081810360008301526129e0816129a4565b9050919050565b7f6e6f7420666f756e640000000000000000000000000000000000000000000000600082015250565b6000612a1d600983611ece565b9150612a28826129e7565b602082019050919050565b60006020820190508181036000830152612a4c81612a10565b9050919050565b7f756e6b6e6f776e2076616c69646174696f6e2074797065000000000000000000600082015250565b6000612a89601783611ece565b9150612a9482612a53565b602082019050919050565b60006020820190508181036000830152612ab881612a7c565b9050919050565b7f7369676e61747572653a206164647265737320646f6573206e6f74206d61746360008201527f6800000000000000000000000000000000000000000000000000000000000000602082015250565b6000612b1b602183611ece565b9150612b2682612abf565b604082019050919050565b60006020820190508181036000830152612b4a81612b0e565b9050919050565b600063ffffffff82169050919050565b6000612b6c82612b51565b915063ffffffff8203612b8257612b81611e6e565b5b600182019050919050565b6000608082019050612ba26000830187612245565b612baf6020830186612254565b612bbc6040830185611af3565b612bc96060830184611abd565b95945050505050565b7f6563206d756c206661696c656400000000000000000000000000000000000000600082015250565b6000612c08600d83611ece565b9150612c1382612bd2565b602082019050919050565b60006020820190508181036000830152612c3781612bfb565b9050919050565b7f626e323536206164646974696f6e206661696c65640000000000000000000000600082015250565b6000612c74601583611ece565b9150612c7f82612c3e565b602082019050919050565b60006020820190508181036000830152612ca381612c67565b905091905056fea2646970667358221220a36d95f58e7e9b1dfb1fb6a354feedb70aebf7ae406e549a4c17ed3afd31c15364736f6c63430008110033",
  "immutableReferences": {},
  "source": "// SPDX-License-Identifier: MIT\npragma solidity  ^0.8.0;\n\nimport \"./RegistryContract.sol\";\nimport \"./crypto/Schnorr.sol\";\n\ncontract OracleContract {\n    struct EnrollNode {\n        address addr;\n        uint256 index;\n    }\n\n    // \n    bool private isValidateTime = false;\n\n    // \n    uint256 public constant BASE_FEE = 0.001 ether;\n\n    // \n    uint256 public constant VALIDATOR_FEE = 0.0001 ether;\n    uint256 public constant TOTAL_FEE = BASE_FEE + VALIDATOR_FEE * 100;\n\n\n\n    bool private isUrgeTime = false; // ;\n    uint private urgeBeginTime;\n    uint public constant waitTime = 30;\n    mapping(address => uint8) private lazyValidatorIndex;\n    address[] private LazyValidators; // ;\n    uint256 public constant URGE_FEE = 0.0001 ether;  // ;\n    uint256 public constant COMPENSATION_FEE = 0.001 ether;  // ;\n\n\n    // \n    mapping(bytes32 => bool) private blockValidationResults;\n    mapping(bytes32 => bool) private txValidationResults;\n\n    // \n    mapping(address => EnrollNode) private enrollNodes;\n    address[] private enrollNodeIndices;\n\n\n    // ;\n    enum ValidationType { UNKNOWN, BLOCK, TRANSACTION }\n\n    // indexed\n    event ValidationRequest(ValidationType typ, address indexed from, bytes32 hash);\n\n    event urgeEvent(uint beginTime, address[] lazyValidators);\n\n    event ValidationBegin();\n\n    event ValidationResponse(\n        ValidationType typ,\n        address indexed aggregator,   \n        bytes32 message,\n        bool valid,\n        uint256 fee\n    );\n\n    RegistryContract private registryContract;\n    constructor(address _registryContract) {\n        registryContract = RegistryContract(_registryContract);\n    }\n\n    modifier minFee(uint _min) {\n        require(msg.value >= _min, \"too few fee amount\");\n        _;\n    }\n\n    function validateBlock(bytes32 _hash) external payable minFee(TOTAL_FEE) {\n        require(!isValidateTime, \"Another validate is in progress!\");\n        isValidateTime = true;\n        emit ValidationRequest(ValidationType.BLOCK, msg.sender, _hash);\n    }\n\n    function validateTransaction(bytes32 _hash) external payable minFee(TOTAL_FEE) {\n        require(!isValidateTime, \"Another validate is in progress!\");\n        isValidateTime = true;\n        emit ValidationRequest(ValidationType.TRANSACTION, msg.sender, _hash);\n    }\n\n    function submitBlockValidationResult(bool _result, bytes32 message, uint256 signature, uint256 pubKeyX, uint256 pubKeyY, uint256 RX , uint256 RY, uint256 _hash) external {\n        // require(isValidateTime, \"Not validate time!\");\n        submitValidationResult(ValidationType.BLOCK, _result, message, signature, pubKeyX, pubKeyY, RX, RY, _hash);\n        isValidateTime = false;\n    }\n\n    function submitTransactionValidationResult(bool _result, bytes32 message, uint256 signature, uint256 pubKeyX, uint256 pubKeyY, uint256 RX , uint256 RY, uint256 _hash) external {\n        // require(isValidateTime, \"Not validate time!\");\n        submitValidationResult(ValidationType.TRANSACTION, _result, message, signature, pubKeyX, pubKeyY, RX, RY, _hash);\n        isValidateTime = false;\n    }\n\n\n    function submitValidationResult(\n        ValidationType _typ,\n        bool _result,\n        bytes32 message,\n        uint256 signature, uint256 pubKeyX, uint256 pubKeyY, uint256 RX , uint256 RY, uint256 _hash\n    ) private {\n\n        require(_typ != ValidationType.UNKNOWN, \"unknown validation type\");\n\n        // RegistryContract.OracleNode memory aggregator = registryContract.getAggregator();\n        // require(aggregator.addr == msg.sender, \"not the aggregator\");  //\n\n        /******************\n         *Schnorr*\n         ******************/\n\n        require(Schnorr.verify(signature, pubKeyX, pubKeyY, RX, RY, _hash), \"signature: address does not match\");\n        delete enrollNodeIndices;\n\n        //  \n        // payable(msg.sender).transfer(BASE_FEE);     //\n\n        // \n        for(uint32 i = 0 ; i < enrollNodeIndices.length ; i++){\n            payable(enrollNodeIndices[i]).transfer(VALIDATOR_FEE);\n        }\n        \n        if (_typ == ValidationType.BLOCK) {\n            blockValidationResults[message] = _result;\n        } else if (_typ == ValidationType.TRANSACTION) {\n            txValidationResults[message] = _result;\n        }\n\n        emit ValidationResponse(_typ, msg.sender, message, _result, BASE_FEE + VALIDATOR_FEE * enrollNodeIndices.length );  //  +  * \n    }\n\n    // \n    function EnrollOracleNode() external payable{\n        require(enrollNodeIndices.length <= registryContract.countOracleNodes()/2, \"Enrollment closed!\");\n        require(registryContract.oracleNodeIsRegistered(msg.sender) , \"The Oracle doesn't registered\");\n        require(!oracleNodeIsEnroll(msg.sender), \"already enrolled\");\n        EnrollNode storage iopNode = enrollNodes[msg.sender];\n        iopNode.addr = msg.sender;\n        iopNode.index = enrollNodeIndices.length;\n        enrollNodeIndices.push(iopNode.addr);\n        if(enrollNodeIndices.length == registryContract.countOracleNodes()/2 + 1){\n            emit ValidationBegin();\n        }\n    }\n    // \n    function oracleNodeIsEnroll(address _addr) public view returns (bool){\n        if (enrollNodeIndices.length == 0) return false;\n        return (enrollNodeIndices[enrollNodes[_addr].index] == _addr);\n    }\n\n\n    // \n    function urge(address[] calldata lazyValidators) public payable {\n        RegistryContract.OracleNode memory aggregator = registryContract.getAggregator();\n        require(aggregator.addr == msg.sender, \"Caller is not the aggregator\");  //\n        require(isValidateTime, \"Not validate time!\"); // \n        require(!isUrgeTime, \"Already urge lazyValidators\"); // ;\n        isUrgeTime = true;\n        urgeBeginTime = getBlockTime();\n        for(uint8 i = 0 ; i < lazyValidators.length ; i++){\n            uint8 index = lazyValidatorIndex[lazyValidators[i]];\n            index = i;\n            LazyValidators.push(lazyValidators[i]);\n        }\n        emit urgeEvent(urgeBeginTime, LazyValidators);\n    }\n\n    function judge() public {\n        RegistryContract.OracleNode memory aggregator = registryContract.getAggregator();\n        require(aggregator.addr == msg.sender, \"Caller is not the aggregator\");  //\n        require(isUrgeTime, \"Haven't urge lazyValidator\");\n        require(urgeBeginTime + waitTime < getBlockTime(), \"Be patient\");\n        // TODO: LazyValidators\n        delete(LazyValidators);\n    }\n\n    function lazySubmit(uint256 provement) public {\n        require(LazyValidators[lazyValidatorIndex[msg.sender]] == msg.sender, \"Not be urged!\");\n        // TODO: LazyValidators\n        LazyValidators[lazyValidatorIndex[msg.sender]] = 0x0000000000000000000000000000000000000000; // ;\n    }\n\n    function getBlockTime() public view returns (uint) {\n        return block.timestamp;\n    }\n\n    // \n    function findEnrollNodeByIndex(uint256 _index)\n        public\n        view\n        returns (EnrollNode memory)\n    {\n        require(_index >= 0 && _index < enrollNodeIndices.length, \"not found\");\n        return enrollNodes[enrollNodeIndices[_index]];\n    }\n    // \n    function countEnrollNodes() external view returns (uint256){\n        return enrollNodeIndices.length;\n    }\n\n    function findBlockValidationResult(bytes32 _hash) public view returns (bool) {\n        return blockValidationResults[_hash];\n    }\n\n    function findTransactionValidationResult(bytes32 _hash) public view returns (bool) {\n        return txValidationResults[_hash];\n    }\n}\n",
  "sourcePath": "/home/indistinguishable/GameBasedOracle/ioporaclecontracts/contracts/OracleContract.sol",
  "compiler": {
    "name": "solc",
    "version": "0.8.17+commit.8df45f5f.Emscripten.clang"
  },
  "schemaVersion": "3.4.11",
  "updatedAt": "2023-04-02T04:31:54.982Z",
  "networkType": "ethereum",
  "devdoc": {
    "kind": "dev",
    "methods": {},
    "version": 1
  },
  "userdoc": {
    "kind": "user",
    "methods": {},
    "version": 1
  }
}