{
  "contractName": "RegistryContract",
  "abi": [
    {
      "anonymous": false,
      "inputs": [
        {
          "indexed": true,
          "internalType": "address",
          "name": "sender",
          "type": "address"
        }
      ],
      "name": "RegisterOracleNode",
      "type": "event"
    },
    {
      "inputs": [],
      "name": "MIN_STAKE",
      "outputs": [
        {
          "internalType": "uint256",
          "name": "",
          "type": "uint256"
        }
      ],
      "stateMutability": "view",
      "type": "function",
      "constant": true
    },
    {
      "inputs": [
        {
          "internalType": "string",
          "name": "_ipAddr",
          "type": "string"
        },
        {
          "internalType": "bytes",
          "name": "_pubKey",
          "type": "bytes"
        }
      ],
      "name": "registerOracleNode",
      "outputs": [],
      "stateMutability": "payable",
      "type": "function",
      "payable": true
    },
    {
      "inputs": [
        {
          "internalType": "address",
          "name": "_addr",
          "type": "address"
        }
      ],
      "name": "oracleNodeIsRegistered",
      "outputs": [
        {
          "internalType": "bool",
          "name": "",
          "type": "bool"
        }
      ],
      "stateMutability": "view",
      "type": "function",
      "constant": true
    },
    {
      "inputs": [
        {
          "internalType": "address",
          "name": "_addr",
          "type": "address"
        }
      ],
      "name": "findOracleNodeByAddress",
      "outputs": [
        {
          "components": [
            {
              "internalType": "address",
              "name": "addr",
              "type": "address"
            },
            {
              "internalType": "string",
              "name": "ipAddr",
              "type": "string"
            },
            {
              "internalType": "bytes",
              "name": "pubKey",
              "type": "bytes"
            },
            {
              "internalType": "uint256",
              "name": "stake",
              "type": "uint256"
            },
            {
              "internalType": "uint256",
              "name": "index",
              "type": "uint256"
            }
          ],
          "internalType": "struct RegistryContract.OracleNode",
          "name": "",
          "type": "tuple"
        }
      ],
      "stateMutability": "view",
      "type": "function",
      "constant": true
    },
    {
      "inputs": [
        {
          "internalType": "uint256",
          "name": "_index",
          "type": "uint256"
        }
      ],
      "name": "findOracleNodeByIndex",
      "outputs": [
        {
          "components": [
            {
              "internalType": "address",
              "name": "addr",
              "type": "address"
            },
            {
              "internalType": "string",
              "name": "ipAddr",
              "type": "string"
            },
            {
              "internalType": "bytes",
              "name": "pubKey",
              "type": "bytes"
            },
            {
              "internalType": "uint256",
              "name": "stake",
              "type": "uint256"
            },
            {
              "internalType": "uint256",
              "name": "index",
              "type": "uint256"
            }
          ],
          "internalType": "struct RegistryContract.OracleNode",
          "name": "",
          "type": "tuple"
        }
      ],
      "stateMutability": "view",
      "type": "function",
      "constant": true
    },
    {
      "inputs": [],
      "name": "countOracleNodes",
      "outputs": [
        {
          "internalType": "uint256",
          "name": "",
          "type": "uint256"
        }
      ],
      "stateMutability": "view",
      "type": "function",
      "constant": true
    },
    {
      "inputs": [
        {
          "internalType": "address",
          "name": "_addr",
          "type": "address"
        }
      ],
      "name": "isAggregator",
      "outputs": [
        {
          "internalType": "bool",
          "name": "",
          "type": "bool"
        }
      ],
      "stateMutability": "view",
      "type": "function",
      "constant": true
    },
    {
      "inputs": [
        {
          "internalType": "address",
          "name": "_addr",
          "type": "address"
        },
        {
          "internalType": "uint256",
          "name": "_block",
          "type": "uint256"
        }
      ],
      "name": "isAggregatorByBlock",
      "outputs": [
        {
          "internalType": "bool",
          "name": "",
          "type": "bool"
        }
      ],
      "stateMutability": "view",
      "type": "function",
      "constant": true
    },
    {
      "inputs": [],
      "name": "getAggregator",
      "outputs": [
        {
          "components": [
            {
              "internalType": "address",
              "name": "addr",
              "type": "address"
            },
            {
              "internalType": "string",
              "name": "ipAddr",
              "type": "string"
            },
            {
              "internalType": "bytes",
              "name": "pubKey",
              "type": "bytes"
            },
            {
              "internalType": "uint256",
              "name": "stake",
              "type": "uint256"
            },
            {
              "internalType": "uint256",
              "name": "index",
              "type": "uint256"
            }
          ],
          "internalType": "struct RegistryContract.OracleNode",
          "name": "",
          "type": "tuple"
        }
      ],
      "stateMutability": "view",
      "type": "function",
      "constant": true
    },
    {
      "inputs": [
        {
          "internalType": "uint256",
          "name": "_block",
          "type": "uint256"
        }
      ],
      "name": "getAggregatorByBlock",
      "outputs": [
        {
          "components": [
            {
              "internalType": "address",
              "name": "addr",
              "type": "address"
            },
            {
              "internalType": "string",
              "name": "ipAddr",
              "type": "string"
            },
            {
              "internalType": "bytes",
              "name": "pubKey",
              "type": "bytes"
            },
            {
              "internalType": "uint256",
              "name": "stake",
              "type": "uint256"
            },
            {
              "internalType": "uint256",
              "name": "index",
              "type": "uint256"
            }
          ],
          "internalType": "struct RegistryContract.OracleNode",
          "name": "",
          "type": "tuple"
        }
      ],
      "stateMutability": "view",
      "type": "function",
      "constant": true
    }
  ],
  "bytecode": "0x608060405234801561001057600080fd5b50611746806100206000396000f3fe6080604052600436106100915760003560e01c8063655a102f11610059578063655a102f146101b557806368982668146101f2578063836f187a1461022f578063cb1c2b5c1461025a578063df74f12c1461028557610091565b8063140f3daa146100965780631e8f3c95146100d3578063272132e9146101105780633ad59dbc1461014d57806359798dfd14610178575b600080fd5b3480156100a257600080fd5b506100bd60048036038101906100b89190610bfc565b6102a1565b6040516100ca9190610c44565b60405180910390f35b3480156100df57600080fd5b506100fa60048036038101906100f59190610bfc565b61036e565b6040516101079190610c44565b60405180910390f35b34801561011c57600080fd5b5061013760048036038101906101329190610c95565b61038d565b6040516101449190610e42565b60405180910390f35b34801561015957600080fd5b50610162610605565b60405161016f9190610e42565b60405180910390f35b34801561018457600080fd5b5061019f600480360381019061019a9190610c95565b610627565b6040516101ac9190610e42565b60405180910390f35b3480156101c157600080fd5b506101dc60048036038101906101d79190610bfc565b610659565b6040516101e99190610e42565b60405180910390f35b3480156101fe57600080fd5b5061021960048036038101906102149190610e64565b610887565b6040516102269190610c44565b60405180910390f35b34801561023b57600080fd5b506102446108e7565b6040516102519190610eb3565b60405180910390f35b34801561026657600080fd5b5061026f6108f4565b60405161027c9190610eb3565b60405180910390f35b61029f600480360381019061029a9190610f89565b610900565b005b600080600180549050036102b85760009050610369565b8173ffffffffffffffffffffffffffffffffffffffff1660016000808573ffffffffffffffffffffffffffffffffffffffff1673ffffffffffffffffffffffffffffffffffffffff16815260200190815260200160002060040154815481106103245761032361100a565b5b9060005260206000200160009054906101000a900473ffffffffffffffffffffffffffffffffffffffff1673ffffffffffffffffffffffffffffffffffffffff161490505b919050565b6000610386826001436103819190611068565b610887565b9050919050565b610395610b4f565b600082101580156103aa575060018054905082105b6103e9576040517f08c379a00000000000000000000000000000000000000000000000000000000081526004016103e0906110f9565b60405180910390fd5b60008060018481548110610400576103ff61100a565b5b9060005260206000200160009054906101000a900473ffffffffffffffffffffffffffffffffffffffff1673ffffffffffffffffffffffffffffffffffffffff1673ffffffffffffffffffffffffffffffffffffffff1681526020019081526020016000206040518060a00160405290816000820160009054906101000a900473ffffffffffffffffffffffffffffffffffffffff1673ffffffffffffffffffffffffffffffffffffffff1673ffffffffffffffffffffffffffffffffffffffff1681526020016001820180546104d690611148565b80601f016020809104026020016040519081016040528092919081815260200182805461050290611148565b801561054f5780601f106105245761010080835404028352916020019161054f565b820191906000526020600020905b81548152906001019060200180831161053257829003601f168201915b5050505050815260200160028201805461056890611148565b80601f016020809104026020016040519081016040528092919081815260200182805461059490611148565b80156105e15780601f106105b6576101008083540402835291602001916105e1565b820191906000526020600020905b8154815290600101906020018083116105c457829003601f168201915b50505050508152602001600382015481526020016004820154815250509050919050565b61060d610b4f565b61062260014361061d9190611068565b610627565b905090565b61062f610b4f565b6000600661063c84610b29565b61064691906111a8565b90506106518161038d565b915050919050565b610661610b4f565b61066a826102a1565b6106a9576040517f08c379a00000000000000000000000000000000000000000000000000000000081526004016106a0906110f9565b60405180910390fd5b6000808373ffffffffffffffffffffffffffffffffffffffff1673ffffffffffffffffffffffffffffffffffffffff1681526020019081526020016000206040518060a00160405290816000820160009054906101000a900473ffffffffffffffffffffffffffffffffffffffff1673ffffffffffffffffffffffffffffffffffffffff1673ffffffffffffffffffffffffffffffffffffffff16815260200160018201805461075890611148565b80601f016020809104026020016040519081016040528092919081815260200182805461078490611148565b80156107d15780601f106107a6576101008083540402835291602001916107d1565b820191906000526020600020905b8154815290600101906020018083116107b457829003601f168201915b505050505081526020016002820180546107ea90611148565b80601f016020809104026020016040519081016040528092919081815260200182805461081690611148565b80156108635780601f1061083857610100808354040283529160200191610863565b820191906000526020600020905b81548152906001019060200180831161084657829003601f168201915b50505050508152602001600382015481526020016004820154815250509050919050565b60008061089384610659565b905060006108a084610b29565b9050600682608001516108b391906111d9565b81101580156108dd57506006600183608001516108d09190611068565b6108da91906111d9565b81105b9250505092915050565b6000600180549050905090565b670de0b6b3a764000081565b610909336102a1565b15610949576040517f08c379a000000000000000000000000000000000000000000000000000000000815260040161094090611267565b60405180910390fd5b670de0b6b3a7640000341015610994576040517f08c379a000000000000000000000000000000000000000000000000000000000815260040161098b906112d3565b60405180910390fd5b60008060003373ffffffffffffffffffffffffffffffffffffffff1673ffffffffffffffffffffffffffffffffffffffff1681526020019081526020016000209050338160000160006101000a81548173ffffffffffffffffffffffffffffffffffffffff021916908373ffffffffffffffffffffffffffffffffffffffff1602179055508484826001019182610a2c9291906114d9565b508282826002019182610a4092919061160f565b50348160030181905550600180549050816004018190555060018160000160009054906101000a900473ffffffffffffffffffffffffffffffffffffffff169080600181540180825580915050600190039060005260206000200160009091909190916101000a81548173ffffffffffffffffffffffffffffffffffffffff021916908373ffffffffffffffffffffffffffffffffffffffff1602179055503373ffffffffffffffffffffffffffffffffffffffff167f463624ffd45713d944420ab743c635b5714b8dbabe9c3ae0045ba085e71fada060405160405180910390a25050505050565b60006006600180549050610b3d91906111d9565b82610b4891906116df565b9050919050565b6040518060a00160405280600073ffffffffffffffffffffffffffffffffffffffff168152602001606081526020016060815260200160008152602001600081525090565b600080fd5b600080fd5b600073ffffffffffffffffffffffffffffffffffffffff82169050919050565b6000610bc982610b9e565b9050919050565b610bd981610bbe565b8114610be457600080fd5b50565b600081359050610bf681610bd0565b92915050565b600060208284031215610c1257610c11610b94565b5b6000610c2084828501610be7565b91505092915050565b60008115159050919050565b610c3e81610c29565b82525050565b6000602082019050610c596000830184610c35565b92915050565b6000819050919050565b610c7281610c5f565b8114610c7d57600080fd5b50565b600081359050610c8f81610c69565b92915050565b600060208284031215610cab57610caa610b94565b5b6000610cb984828501610c80565b91505092915050565b610ccb81610bbe565b82525050565b600081519050919050565b600082825260208201905092915050565b60005b83811015610d0b578082015181840152602081019050610cf0565b60008484015250505050565b6000601f19601f8301169050919050565b6000610d3382610cd1565b610d3d8185610cdc565b9350610d4d818560208601610ced565b610d5681610d17565b840191505092915050565b600081519050919050565b600082825260208201905092915050565b6000610d8882610d61565b610d928185610d6c565b9350610da2818560208601610ced565b610dab81610d17565b840191505092915050565b610dbf81610c5f565b82525050565b600060a083016000830151610ddd6000860182610cc2565b5060208301518482036020860152610df58282610d28565b91505060408301518482036040860152610e0f8282610d7d565b9150506060830151610e246060860182610db6565b506080830151610e376080860182610db6565b508091505092915050565b60006020820190508181036000830152610e5c8184610dc5565b905092915050565b60008060408385031215610e7b57610e7a610b94565b5b6000610e8985828601610be7565b9250506020610e9a85828601610c80565b9150509250929050565b610ead81610c5f565b82525050565b6000602082019050610ec86000830184610ea4565b92915050565b600080fd5b600080fd5b600080fd5b60008083601f840112610ef357610ef2610ece565b5b8235905067ffffffffffffffff811115610f1057610f0f610ed3565b5b602083019150836001820283011115610f2c57610f2b610ed8565b5b9250929050565b60008083601f840112610f4957610f48610ece565b5b8235905067ffffffffffffffff811115610f6657610f65610ed3565b5b602083019150836001820283011115610f8257610f81610ed8565b5b9250929050565b60008060008060408587031215610fa357610fa2610b94565b5b600085013567ffffffffffffffff811115610fc157610fc0610b99565b5b610fcd87828801610edd565b9450945050602085013567ffffffffffffffff811115610ff057610fef610b99565b5b610ffc87828801610f33565b925092505092959194509250565b7f4e487b7100000000000000000000000000000000000000000000000000000000600052603260045260246000fd5b7f4e487b7100000000000000000000000000000000000000000000000000000000600052601160045260246000fd5b600061107382610c5f565b915061107e83610c5f565b925082820190508082111561109657611095611039565b5b92915050565b600082825260208201905092915050565b7f6e6f7420666f756e640000000000000000000000000000000000000000000000600082015250565b60006110e360098361109c565b91506110ee826110ad565b602082019050919050565b60006020820190508181036000830152611112816110d6565b9050919050565b7f4e487b7100000000000000000000000000000000000000000000000000000000600052602260045260246000fd5b6000600282049050600182168061116057607f821691505b60208210810361117357611172611119565b5b50919050565b7f4e487b7100000000000000000000000000000000000000000000000000000000600052601260045260246000fd5b60006111b382610c5f565b91506111be83610c5f565b9250826111ce576111cd611179565b5b828204905092915050565b60006111e482610c5f565b91506111ef83610c5f565b92508282026111fd81610c5f565b9150828204841483151761121457611213611039565b5b5092915050565b7f616c726561647920726567697374657265640000000000000000000000000000600082015250565b600061125160128361109c565b915061125c8261121b565b602082019050919050565b6000602082019050818103600083015261128081611244565b9050919050565b7f6d696e207374616b6520746f6f206c6f77000000000000000000000000000000600082015250565b60006112bd60118361109c565b91506112c882611287565b602082019050919050565b600060208201905081810360008301526112ec816112b0565b9050919050565b600082905092915050565b7f4e487b7100000000000000000000000000000000000000000000000000000000600052604160045260246000fd5b60008190508160005260206000209050919050565b60006020601f8301049050919050565b600082821b905092915050565b60006008830261138f7fffffffffffffffffffffffffffffffffffffffffffffffffffffffffffffffff82611352565b6113998683611352565b95508019841693508086168417925050509392505050565b6000819050919050565b60006113d66113d16113cc84610c5f565b6113b1565b610c5f565b9050919050565b6000819050919050565b6113f0836113bb565b6114046113fc826113dd565b84845461135f565b825550505050565b600090565b61141961140c565b6114248184846113e7565b505050565b5b818110156114485761143d600082611411565b60018101905061142a565b5050565b601f82111561148d5761145e8161132d565b61146784611342565b81016020851015611476578190505b61148a61148285611342565b830182611429565b50505b505050565b600082821c905092915050565b60006114b060001984600802611492565b1980831691505092915050565b60006114c9838361149f565b9150826002028217905092915050565b6114e383836112f3565b67ffffffffffffffff8111156114fc576114fb6112fe565b5b6115068254611148565b61151182828561144c565b6000601f831160018114611540576000841561152e578287013590505b61153885826114bd565b8655506115a0565b601f19841661154e8661132d565b60005b8281101561157657848901358255600182019150602085019450602081019050611551565b86831015611593578489013561158f601f89168261149f565b8355505b6001600288020188555050505b50505050505050565b600082905092915050565b60008190508160005260206000209050919050565b601f82111561160a576115db816115b4565b6115e484611342565b810160208510156115f3578190505b6116076115ff85611342565b830182611429565b50505b505050565b61161983836115a9565b67ffffffffffffffff811115611632576116316112fe565b5b61163c8254611148565b6116478282856115c9565b6000601f8311600181146116765760008415611664578287013590505b61166e85826114bd565b8655506116d6565b601f198416611684866115b4565b60005b828110156116ac57848901358255600182019150602085019450602081019050611687565b868310156116c957848901356116c5601f89168261149f565b8355505b6001600288020188555050505b50505050505050565b60006116ea82610c5f565b91506116f583610c5f565b92508261170557611704611179565b5b82820690509291505056fea2646970667358221220e230a636b62f959d6bcf879b08d8628f7661093644c44dceae36c4c1d7842e6964736f6c63430008110033",
  "immutableReferences": {},
  "source": "// SPDX-License-Identifier: MIT\npragma solidity ^0.8.0;\n\ncontract RegistryContract {\n    struct OracleNode {\n        address addr;  // \n        string ipAddr; // IP\n        bytes pubKey;  // schnorr\n        uint256 stake; // \n        uint256 index;\n    }\n\n    uint256 private constant BLOCK_RANGE = 6;\n    uint256 public constant MIN_STAKE = 1 ether;\n\n    mapping(address => OracleNode) private oracleNodes;\n    address[] private oracleNodeIndices;\n\n    event RegisterOracleNode(address indexed sender);\n\n    function registerOracleNode(string calldata _ipAddr, bytes calldata _pubKey)\n        external\n        payable\n    {\n        require(!oracleNodeIsRegistered(msg.sender), \"already registered\");\n        require(msg.value >= MIN_STAKE, \"min stake too low\");\n\n        OracleNode storage iopNode = oracleNodes[msg.sender];\n        iopNode.addr = msg.sender;\n        iopNode.ipAddr = _ipAddr;\n        iopNode.pubKey = _pubKey;\n        iopNode.stake = msg.value;\n        iopNode.index = oracleNodeIndices.length;\n        oracleNodeIndices.push(iopNode.addr);\n\n        emit RegisterOracleNode(msg.sender);\n\n    }\n\n    function oracleNodeIsRegistered(address _addr) public view returns (bool) {\n        if (oracleNodeIndices.length == 0) return false;\n        return (oracleNodeIndices[oracleNodes[_addr].index] == _addr);\n    }\n\n    function findOracleNodeByAddress(address _addr)\n        public\n        view\n        returns (OracleNode memory)\n    {\n        require(oracleNodeIsRegistered(_addr), \"not found\");\n        return oracleNodes[_addr];\n    }\n\n    function findOracleNodeByIndex(uint256 _index)\n        public\n        view\n        returns (OracleNode memory)\n    {\n        require(_index >= 0 && _index < oracleNodeIndices.length, \"not found\");\n        return oracleNodes[oracleNodeIndices[_index]];\n    }\n\n    function countOracleNodes() external view returns (uint256) {\n        return oracleNodeIndices.length;\n    }\n\n    function isAggregator(address _addr) public view returns (bool) {\n        /**\n         * As this method is a call, block.number refers to an already finalized block.\n         * But aggregators submit transactions that should be included in a new block,\n         * therefore the information of the aggregator of a finalized block is outdated.\n         */\n        return isAggregatorByBlock(_addr, block.number + 1);\n    }\n\n    function isAggregatorByBlock(address _addr, uint256 _block)\n        public\n        view\n        returns (bool)\n    {\n        OracleNode memory iopNode = findOracleNodeByAddress(_addr);\n        uint256 chosen = blockNumberMod(_block);\n        return\n            chosen >= iopNode.index * BLOCK_RANGE &&\n            chosen < (iopNode.index + 1) * BLOCK_RANGE;\n    }\n\n    function getAggregator() public view returns (OracleNode memory) {\n        /**\n         * As this method is a call, block.number refers to an already finalized block.\n         * But aggregators submit transactions that should be included in a new block,\n         * therefore the information of the aggregator of a finalized block is outdated.\n         */\n        return getAggregatorByBlock(block.number + 1);\n    }\n\n    function getAggregatorByBlock(uint256 _block)\n        public\n        view\n        returns (OracleNode memory)\n    {\n        uint256 i = blockNumberMod(_block) / BLOCK_RANGE;\n        return findOracleNodeByIndex(i);\n    }\n\n    function blockNumberMod(uint256 _block) internal view returns (uint256) {\n        return _block % (oracleNodeIndices.length * BLOCK_RANGE);\n    }\n}\n",
  "sourcePath": "/home/indistinguishable/GameBasedOracle/ioporaclecontracts/contracts/RegistryContract.sol",
  "compiler": {
    "name": "solc",
    "version": "0.8.17+commit.8df45f5f.Emscripten.clang"
  },
  "schemaVersion": "3.4.11",
  "updatedAt": "2023-04-10T08:11:07.991Z",
  "networkType": "ethereum",
  "devdoc": {
    "kind": "dev",
    "methods": {},
    "version": 1
  },
  "userdoc": {
    "kind": "user",
    "methods": {},
    "version": 1
  }
}