{
  "contractName": "Schnorr",
  "abi": [
    {
      "inputs": [],
      "name": "GX",
      "outputs": [
        {
          "internalType": "uint256",
          "name": "",
          "type": "uint256"
        }
      ],
      "stateMutability": "view",
      "type": "function"
    },
    {
      "inputs": [],
      "name": "GY",
      "outputs": [
        {
          "internalType": "uint256",
          "name": "",
          "type": "uint256"
        }
      ],
      "stateMutability": "view",
      "type": "function"
    },
    {
      "inputs": [
        {
          "internalType": "address",
          "name": "account",
          "type": "address"
        }
      ],
      "name": "toString",
      "outputs": [
        {
          "internalType": "string",
          "name": "",
          "type": "string"
        }
      ],
      "stateMutability": "pure",
      "type": "function"
    },
    {
      "inputs": [
        {
          "internalType": "uint256",
          "name": "value",
          "type": "uint256"
        }
      ],
      "name": "toString",
      "outputs": [
        {
          "internalType": "string",
          "name": "",
          "type": "string"
        }
      ],
      "stateMutability": "pure",
      "type": "function"
    },
    {
      "inputs": [
        {
          "internalType": "bytes",
          "name": "data",
          "type": "bytes"
        }
      ],
      "name": "toString",
      "outputs": [
        {
          "internalType": "string",
          "name": "",
          "type": "string"
        }
      ],
      "stateMutability": "pure",
      "type": "function"
    },
    {
      "inputs": [
        {
          "internalType": "bytes32",
          "name": "value",
          "type": "bytes32"
        }
      ],
      "name": "toString",
      "outputs": [
        {
          "internalType": "string",
          "name": "",
          "type": "string"
        }
      ],
      "stateMutability": "pure",
      "type": "function"
    }
  ],
  "bytecode": "0x610af0610053600b82828239805160001a607314610046577f4e487b7100000000000000000000000000000000000000000000000000000000600052600060045260246000fd5b30600052607381538281f3fe730000000000000000000000000000000000000000301460806040526004361061006c5760003560e01c806303a507be1461007157806356ca623e1461008f5780636900a3ae146100bf57806371aad10d146100ef5780637a308a4c1461011f578063b11a19e81461013d575b600080fd5b61007961016d565b604051610086919061051d565b60405180910390f35b6100a960048036038101906100a491906105aa565b610172565b6040516100b69190610667565b60405180910390f35b6100d960048036038101906100d491906106b5565b6101a3565b6040516100e69190610667565b60405180910390f35b61010960048036038101906101049190610817565b6101d4565b6040516101169190610667565b60405180910390f35b6101276104ce565b604051610134919061051d565b60405180910390f35b61015760048036038101906101529190610896565b6104d3565b6040516101649190610667565b60405180910390f35b600181565b606061019c82604051602001610188919061090b565b6040516020818303038152906040526101d4565b9050919050565b60606101cd826040516020016101b99190610947565b6040516020818303038152906040526101d4565b9050919050565b606060006040518060400160405280601081526020017f303132333435363738396162636465660000000000000000000000000000000081525090506000600284516102209190610991565b600261022c91906109d3565b67ffffffffffffffff811115610245576102446106ec565b5b6040519080825280601f01601f1916602001820160405280156102775781602001600182028036833780820191505090505b5090507f3000000000000000000000000000000000000000000000000000000000000000816000815181106102af576102ae610a07565b5b60200101907effffffffffffffffffffffffffffffffffffffffffffffffffffffffffffff1916908160001a9053507f78000000000000000000000000000000000000000000000000000000000000008160018151811061031357610312610a07565b5b60200101907effffffffffffffffffffffffffffffffffffffffffffffffffffffffffffff1916908160001a90535060005b84518110156104c35782600486838151811061036457610363610a07565b5b602001015160f81c60f81b7effffffffffffffffffffffffffffffffffffffffffffffffffffffffffffff1916901c60f81c60ff16815181106103aa576103a9610a07565b5b602001015160f81c60f81b826002836103c39190610991565b60026103cf91906109d3565b815181106103e0576103df610a07565b5b60200101907effffffffffffffffffffffffffffffffffffffffffffffffffffffffffffff1916908160001a90535082600f60f81b86838151811061042857610427610a07565b5b602001015160f81c60f81b1660f81c60ff168151811061044b5761044a610a07565b5b602001015160f81c60f81b826002836104649190610991565b600361047091906109d3565b8151811061048157610480610a07565b5b60200101907effffffffffffffffffffffffffffffffffffffffffffffffffffffffffffff1916908160001a90535080806104bb90610a36565b915050610345565b508092505050919050565b600281565b60606104fd826040516020016104e99190610a9f565b6040516020818303038152906040526101d4565b9050919050565b6000819050919050565b61051781610504565b82525050565b6000602082019050610532600083018461050e565b92915050565b6000604051905090565b600080fd5b600080fd5b600073ffffffffffffffffffffffffffffffffffffffff82169050919050565b60006105778261054c565b9050919050565b6105878161056c565b811461059257600080fd5b50565b6000813590506105a48161057e565b92915050565b6000602082840312156105c0576105bf610542565b5b60006105ce84828501610595565b91505092915050565b600081519050919050565b600082825260208201905092915050565b60005b838110156106115780820151818401526020810190506105f6565b60008484015250505050565b6000601f19601f8301169050919050565b6000610639826105d7565b61064381856105e2565b93506106538185602086016105f3565b61065c8161061d565b840191505092915050565b60006020820190508181036000830152610681818461062e565b905092915050565b61069281610504565b811461069d57600080fd5b50565b6000813590506106af81610689565b92915050565b6000602082840312156106cb576106ca610542565b5b60006106d9848285016106a0565b91505092915050565b600080fd5b600080fd5b7f4e487b7100000000000000000000000000000000000000000000000000000000600052604160045260246000fd5b6107248261061d565b810181811067ffffffffffffffff82111715610743576107426106ec565b5b80604052505050565b6000610756610538565b9050610762828261071b565b919050565b600067ffffffffffffffff821115610782576107816106ec565b5b61078b8261061d565b9050602081019050919050565b82818337600083830152505050565b60006107ba6107b584610767565b61074c565b9050828152602081018484840111156107d6576107d56106e7565b5b6107e1848285610798565b509392505050565b600082601f8301126107fe576107fd6106e2565b5b813561080e8482602086016107a7565b91505092915050565b60006020828403121561082d5761082c610542565b5b600082013567ffffffffffffffff81111561084b5761084a610547565b5b610857848285016107e9565b91505092915050565b6000819050919050565b61087381610860565b811461087e57600080fd5b50565b6000813590506108908161086a565b92915050565b6000602082840312156108ac576108ab610542565b5b60006108ba84828501610881565b91505092915050565b60008160601b9050919050565b60006108db826108c3565b9050919050565b60006108ed826108d0565b9050919050565b6109056109008261056c565b6108e2565b82525050565b600061091782846108f4565b60148201915081905092915050565b6000819050919050565b61094161093c82610504565b610926565b82525050565b60006109538284610930565b60208201915081905092915050565b7f4e487b7100000000000000000000000000000000000000000000000000000000600052601160045260246000fd5b600061099c82610504565b91506109a783610504565b92508282026109b581610504565b915082820484148315176109cc576109cb610962565b5b5092915050565b60006109de82610504565b91506109e983610504565b9250828201905080821115610a0157610a00610962565b5b92915050565b7f4e487b7100000000000000000000000000000000000000000000000000000000600052603260045260246000fd5b6000610a4182610504565b91507fffffffffffffffffffffffffffffffffffffffffffffffffffffffffffffffff8203610a7357610a72610962565b5b600182019050919050565b6000819050919050565b610a99610a9482610860565b610a7e565b82525050565b6000610aab8284610a88565b6020820191508190509291505056fea2646970667358221220b4e91defbddf569134f15dffba181324f604f8e0d650a604bf75337ff263c99b64736f6c63430008110033",
  "immutableReferences": {},
  "source": "// SPDX-License-Identifier: MIT\npragma solidity ^0.8.0;\n\nimport \"./BN256G1.sol\";\n\n/**\n * @title Schnorr Signature Verify on BN256 Elliptic Curve\n * @author W1tnezz\n */\nlibrary  Schnorr {\n  uint256 public constant GX = 1;\n  uint256 public constant GY = 2;\n\n  struct ECPoint {\n    uint256 x;\n    uint256 y;\n  }\n\n  function toString(address account) public pure returns (string memory) {\n    return toString(abi.encodePacked(account));\n  }\n\n  function toString(uint256 value) public pure returns (string memory) {\n    return toString(abi.encodePacked(value));\n  }\n\n  function toString(bytes32 value) public pure returns (string memory) {\n    return toString(abi.encodePacked(value));\n  }\n\n  function toString(bytes memory data) public pure returns (string memory) {\n    bytes memory alphabet = \"0123456789abcdef\";\n    bytes memory str = new bytes(2 + data.length * 2);\n    str[0] = \"0\";\n    str[1] = \"x\";\n    for (uint i = 0; i < data.length; i++) {\n      str[2 + i * 2] = alphabet[uint(uint8(data[i] >> 4))];\n      str[3 + i * 2] = alphabet[uint(uint8(data[i] & 0x0f))];\n    }\n    return string(str);\n  }\n\n  function verify(uint256 signature, uint256 pubKeyX, uint256 pubKeyY, uint256 RX , uint256 RY, uint256 _hash) internal returns (bool) {\n    uint256[3] memory input1 =\n    [\n    GX,\n    GY,\n    signature\n    ];\n    // S1 = sig * G;\n    ECPoint memory S1;\n    (S1.x, S1.y) = BN256G1.mulPoint(input1);\n\n    uint256[3] memory input2 =\n    [\n    pubKeyX,\n    pubKeyY,\n    _hash\n    ];\n\n    // S2 = R + _hash * PubKey;\n    ECPoint memory S2;\n    (S2.x, S2.y) = BN256G1.mulPoint(input2);\n\n    uint256[4] memory input3 =\n    [\n    RX,\n    RY,\n    S2.x,\n    S2.y\n    ];\n    (S2.x, S2.y) = BN256G1.addPoint(input3);\n    // S1 == S2;\n    return S1.x == S2.x && S1.y == S2.y;\n  }\n}",
  "sourcePath": "/home/indistinguishable/GameBasedOracle/ioporaclecontracts/contracts/crypto/Schnorr.sol",
  "compiler": {
    "name": "solc",
    "version": "0.8.17+commit.8df45f5f.Emscripten.clang"
  },
  "schemaVersion": "3.4.11",
  "updatedAt": "2023-04-02T04:28:09.630Z",
  "devdoc": {
    "author": "W1tnezz",
    "kind": "dev",
    "methods": {},
    "title": "Schnorr Signature Verify on BN256 Elliptic Curve",
    "version": 1
  },
  "userdoc": {
    "kind": "user",
    "methods": {},
    "version": 1
  }
}