{
  "contractName": "Schnorr",
  "abi": [
    {
      "inputs": [],
      "name": "AA",
      "outputs": [
        {
          "internalType": "uint256",
          "name": "",
          "type": "uint256"
        }
      ],
      "stateMutability": "view",
      "type": "function"
    },
    {
      "inputs": [],
      "name": "BB",
      "outputs": [
        {
          "internalType": "uint256",
          "name": "",
          "type": "uint256"
        }
      ],
      "stateMutability": "view",
      "type": "function"
    },
    {
      "inputs": [],
      "name": "GX",
      "outputs": [
        {
          "internalType": "uint256",
          "name": "",
          "type": "uint256"
        }
      ],
      "stateMutability": "view",
      "type": "function"
    },
    {
      "inputs": [],
      "name": "GY",
      "outputs": [
        {
          "internalType": "uint256",
          "name": "",
          "type": "uint256"
        }
      ],
      "stateMutability": "view",
      "type": "function"
    },
    {
      "inputs": [],
      "name": "PP",
      "outputs": [
        {
          "internalType": "uint256",
          "name": "",
          "type": "uint256"
        }
      ],
      "stateMutability": "view",
      "type": "function"
    }
  ],
  "bytecode": "0x6101dc610053600b82828239805160001a607314610046577f4e487b7100000000000000000000000000000000000000000000000000000000600052600060045260246000fd5b30600052607381538281f3fe73000000000000000000000000000000000000000030146080604052600436106100615760003560e01c806303a507be146100665780635727dc5c146100845780637a308a4c146100a2578063997da8d4146100c0578063eeeac01e146100de575b600080fd5b61006e6100fc565b60405161007b919061018b565b60405180910390f35b61008c610120565b604051610099919061018b565b60405180910390f35b6100aa610125565b6040516100b7919061018b565b60405180910390f35b6100c8610149565b6040516100d5919061018b565b60405180910390f35b6100e661014e565b6040516100f3919061018b565b60405180910390f35b7f79be667ef9dcbbac55a06295ce870b07029bfcdb2dce28d959f2815b16f8179881565b600781565b7f483ada7726a3c4655da4fbfc0e1108a8fd17b448a68554199c47d08ffb10d4b881565b600081565b7ffffffffffffffffffffffffffffffffffffffffffffffffffffffffefffffc2f81565b6000819050919050565b61018581610172565b82525050565b60006020820190506101a0600083018461017c565b9291505056fea2646970667358221220664acb6d0028f907bafb4e58f0b520711e06a933ca8bc7a6325d8a4d92f37baf64736f6c63430008110033",
  "immutableReferences": {},
  "source": "// SPDX-License-Identifier: MIT\npragma solidity ^0.8.0;\n\nimport \"./EllipticCurve.sol\";\n\n/**\n * @title Schnorr Signature Verify on Secp256k1 Elliptic Curve\n * @author W1tnezz\n */\nlibrary  Schnorr {\n  uint256 public constant GX = 0x79BE667EF9DCBBAC55A06295CE870B07029BFCDB2DCE28D959F2815B16F81798;\n  uint256 public constant GY = 0x483ADA7726A3C4655DA4FBFC0E1108A8FD17B448A68554199C47D08FFB10D4B8;\n  uint256 public constant AA = 0;\n  uint256 public constant BB = 7;\n  uint256 public constant PP = 0xFFFFFFFFFFFFFFFFFFFFFFFFFFFFFFFFFFFFFFFFFFFFFFFFFFFFFFFEFFFFFC2F;\n\n  struct ECPoint {\n    uint256 x;\n    uint256 y;\n  }\n\n  function verify(uint256 signature, uint256 pubKeyX, uint256 pubKeyY, uint256 RX , uint256 RY, uint256 _hash) internal pure returns (bool) {\n    require(EllipticCurve.isOnCurve(pubKeyX, pubKeyY, AA, BB, PP), \"Invalid public key!\");\n    require(EllipticCurve.isOnCurve(RX, RY, AA, BB, PP), \"Invalid R!\");\n\n    // S1 = sig * G;\n    ECPoint memory S1;\n    (S1.x, S1.y) = EllipticCurve.ecMul(signature, GX, GY, AA, PP);\n\n    // S2 = R + _hash * PubKey;\n    ECPoint memory S2;\n    (S2.x, S2.y) = EllipticCurve.ecMul(_hash, pubKeyX, pubKeyY, AA, PP);\n    (S2.x, S2.y) = EllipticCurve.ecAdd(RX, RY, S2.x, S2.y, AA, PP);\n    // S1 == S2;\n\n    return S1.x == S2.x;\n  }\n}",
  "sourcePath": "/home/indistinguishable/GameBasedOracle/ioporaclecontracts/contracts/crypto/Schnorr.sol",
  "compiler": {
    "name": "solc",
    "version": "0.8.17+commit.8df45f5f.Emscripten.clang"
  },
  "schemaVersion": "3.4.11",
  "updatedAt": "2023-03-28T05:30:54.537Z",
  "devdoc": {
    "author": "W1tnezz",
    "kind": "dev",
    "methods": {},
    "title": "Schnorr Signature Verify on Secp256k1 Elliptic Curve",
    "version": 1
  },
  "userdoc": {
    "kind": "user",
    "methods": {},
    "version": 1
  }
}